{
  "contractName": "DeviceProfiles",
  "abi": [
    {
      "inputs": [
        {
          "internalType": "address",
          "name": "_addy",
          "type": "address"
        }
      ],
      "payable": false,
      "stateMutability": "nonpayable",
      "type": "constructor"
    },
    {
      "constant": true,
      "inputs": [],
      "name": "attr",
      "outputs": [
        {
          "internalType": "uint256",
          "name": "",
          "type": "uint256"
        }
      ],
      "payable": false,
      "stateMutability": "view",
      "type": "function"
    },
    {
      "constant": true,
      "inputs": [],
      "name": "called_address",
      "outputs": [
        {
          "internalType": "contract DeviceDefaultAttribute",
          "name": "",
          "type": "address"
        }
      ],
      "payable": false,
      "stateMutability": "view",
      "type": "function"
    },
    {
      "constant": true,
      "inputs": [
        {
          "internalType": "uint256",
          "name": "",
          "type": "uint256"
        }
      ],
      "name": "devices",
      "outputs": [
        {
          "internalType": "uint256",
          "name": "deviceId",
          "type": "uint256"
        },
        {
          "internalType": "string",
          "name": "deviceIp",
          "type": "string"
        },
        {
          "internalType": "string",
          "name": "deviceModel",
          "type": "string"
        },
        {
          "internalType": "uint256",
          "name": "samplingRateMinute",
          "type": "uint256"
        },
        {
          "internalType": "string",
          "name": "softwareIpfsHash",
          "type": "string"
        },
        {
          "internalType": "uint256",
          "name": "attributeCount",
          "type": "uint256"
        }
      ],
      "payable": false,
      "stateMutability": "view",
      "type": "function"
    },
    {
      "constant": true,
      "inputs": [],
      "name": "devicesCount",
      "outputs": [
        {
          "internalType": "uint256",
          "name": "",
          "type": "uint256"
        }
      ],
      "payable": false,
      "stateMutability": "view",
      "type": "function"
    },
    {
      "constant": true,
      "inputs": [],
      "name": "name",
      "outputs": [
        {
          "internalType": "string",
          "name": "",
          "type": "string"
        }
      ],
      "payable": false,
      "stateMutability": "view",
      "type": "function"
    },
    {
      "constant": true,
      "inputs": [],
      "name": "testAttList",
      "outputs": [
        {
          "internalType": "string",
          "name": "name",
          "type": "string"
        },
        {
          "internalType": "int256",
          "name": "minimunThreshold",
          "type": "int256"
        },
        {
          "internalType": "uint256",
          "name": "minimunViolationCount",
          "type": "uint256"
        },
        {
          "internalType": "enum DeviceDefaultAttribute.Criticality",
          "name": "minimumCriticality",
          "type": "uint8"
        },
        {
          "internalType": "int256",
          "name": "maximumThresold",
          "type": "int256"
        },
        {
          "internalType": "uint256",
          "name": "maximumViolationCount",
          "type": "uint256"
        },
        {
          "internalType": "enum DeviceDefaultAttribute.Criticality",
          "name": "maximumCriticality",
          "type": "uint8"
        }
      ],
      "payable": false,
      "stateMutability": "view",
      "type": "function"
    },
    {
      "constant": true,
      "inputs": [],
      "name": "testAttList2",
      "outputs": [
        {
          "internalType": "string",
          "name": "name",
          "type": "string"
        },
        {
          "internalType": "int256",
          "name": "minimunThreshold",
          "type": "int256"
        },
        {
          "internalType": "uint256",
          "name": "minimunViolationCount",
          "type": "uint256"
        },
        {
          "internalType": "enum DeviceDefaultAttribute.Criticality",
          "name": "minimumCriticality",
          "type": "uint8"
        },
        {
          "internalType": "int256",
          "name": "maximumThresold",
          "type": "int256"
        },
        {
          "internalType": "uint256",
          "name": "maximumViolationCount",
          "type": "uint256"
        },
        {
          "internalType": "enum DeviceDefaultAttribute.Criticality",
          "name": "maximumCriticality",
          "type": "uint8"
        }
      ],
      "payable": false,
      "stateMutability": "view",
      "type": "function"
    },
    {
      "constant": true,
      "inputs": [],
      "name": "callDeviceDefaultAttributeMethod",
      "outputs": [
        {
          "internalType": "string",
          "name": "",
          "type": "string"
        }
      ],
      "payable": false,
      "stateMutability": "view",
      "type": "function"
    },
    {
      "constant": false,
      "inputs": [
        {
          "internalType": "string",
          "name": "_ip",
          "type": "string"
        },
        {
          "internalType": "string",
          "name": "_model",
          "type": "string"
        },
        {
          "internalType": "uint256",
          "name": "_samplingRateMinute",
          "type": "uint256"
        }
      ],
      "name": "addDevice",
      "outputs": [],
      "payable": false,
      "stateMutability": "nonpayable",
      "type": "function"
    },
    {
      "constant": false,
      "inputs": [
        {
          "internalType": "uint256",
          "name": "_deviceId",
          "type": "uint256"
        },
        {
          "internalType": "string",
          "name": "_name",
          "type": "string"
        },
        {
          "internalType": "int256",
          "name": "_minimunThreshold",
          "type": "int256"
        },
        {
          "internalType": "uint256",
          "name": "_minimunViolationCount",
          "type": "uint256"
        },
        {
          "internalType": "enum DeviceDefaultAttribute.Criticality",
          "name": "_minimumCriticality",
          "type": "uint8"
        },
        {
          "internalType": "int256",
          "name": "_maximumThresold",
          "type": "int256"
        },
        {
          "internalType": "uint256",
          "name": "_maximumViolationCount",
          "type": "uint256"
        },
        {
          "internalType": "enum DeviceDefaultAttribute.Criticality",
          "name": "_maximumCriticality",
          "type": "uint8"
        }
      ],
      "name": "addAttributeToDeviceById",
      "outputs": [
        {
          "internalType": "uint256",
          "name": "",
          "type": "uint256"
        }
      ],
      "payable": false,
      "stateMutability": "nonpayable",
      "type": "function"
    },
    {
      "constant": true,
      "inputs": [
        {
          "internalType": "uint256",
          "name": "_deviceId",
          "type": "uint256"
        }
      ],
      "name": "getDeviceAttributes",
      "outputs": [
        {
          "components": [
            {
              "internalType": "string",
              "name": "name",
              "type": "string"
            },
            {
              "internalType": "int256",
              "name": "minimunThreshold",
              "type": "int256"
            },
            {
              "internalType": "uint256",
              "name": "minimunViolationCount",
              "type": "uint256"
            },
            {
              "internalType": "enum DeviceDefaultAttribute.Criticality",
              "name": "minimumCriticality",
              "type": "uint8"
            },
            {
              "internalType": "int256",
              "name": "maximumThresold",
              "type": "int256"
            },
            {
              "internalType": "uint256",
              "name": "maximumViolationCount",
              "type": "uint256"
            },
            {
              "internalType": "enum DeviceDefaultAttribute.Criticality",
              "name": "maximumCriticality",
              "type": "uint8"
            }
          ],
          "internalType": "struct DeviceDefaultAttribute.Attribute[]",
          "name": "",
          "type": "tuple[]"
        }
      ],
      "payable": false,
      "stateMutability": "view",
      "type": "function"
    }
  ],
  "bytecode": "0x60806040523480156200001157600080fd5b506040516200221c3803806200221c833981810160405262000037919081019062000846565b806000806101000a81548173ffffffffffffffffffffffffffffffffffffffff021916908373ffffffffffffffffffffffffffffffffffffffff160217905550620000f56040518060400160405280600781526020017f312e312e312e31000000000000000000000000000000000000000000000000008152506040518060400160405280600781526020017f6d6f64656c20310000000000000000000000000000000000000000000000000081525060016200015260201b60201c565b6200014a60016040518060400160405280601081526020017f617474726962757465206e616d6520310000000000000000000000000000000081525060c860026000610190600260006200046260201b60201c565b5050620008c0565b6001600081548092919060010191905055506200016e62000667565b6002600060015481526020019081526020016000206040518060c001604052908160008201548152602001600182018054600181600116156101000203166002900480601f016020809104026020016040519081016040528092919081815260200182805460018160011615610100020316600290048015620002355780601f10620002095761010080835404028352916020019162000235565b820191906000526020600020905b8154815290600101906020018083116200021757829003601f168201915b50505050508152602001600282018054600181600116156101000203166002900480601f016020809104026020016040519081016040528092919081815260200182805460018160011615610100020316600290048015620002db5780601f10620002af57610100808354040283529160200191620002db565b820191906000526020600020905b815481529060010190602001808311620002bd57829003601f168201915b5050505050815260200160038201548152602001600482018054600181600116156101000203166002900480601f0160208091040260200160405190810160405280929190818152602001828054600181600116156101000203166002900480156200038b5780601f106200035f576101008083540402835291602001916200038b565b820191906000526020600020905b8154815290600101906020018083116200036d57829003601f168201915b5050505050815260200160058201548152505090506001548160000181815250508381602001819052508281604001819052508181606001818152505080600260006001548152602001908152602001600020600082015181600001556020820151816001019080519060200190620004069291906200069d565b506040820151816002019080519060200190620004259291906200069d565b506060820151816003015560808201518160040190805190602001906200044e9291906200069d565b5060a0820151816005015590505050505050565b600080600260008b815260200190815260200160002090506000816005015490506001810182600501819055506200049962000724565b6040518060e001604052808c81526020018b81526020018a8152602001896002811115620004c357fe5b8152602001888152602001878152602001866002811115620004e157fe5b8152509050808360060160008560050154815260200190815260200160002060008201518160000190805190602001906200051e9291906200069d565b50602082015181600101556040820151816002015560608201518160030160006101000a81548160ff021916908360028111156200055857fe5b02179055506080820151816004015560a0820151816005015560c08201518160060160006101000a81548160ff021916908360028111156200059657fe5b021790555090505082600260008e81526020019081526020016000206000820154816000015560018201816001019080546001816001161561010002031660029004620005e592919062000779565b50600282018160020190805460018160011615610100020316600290046200060f92919062000779565b5060038201548160030155600482018160040190805460018160011615610100020316600290046200064392919062000779565b50600582015481600501559050508260050154935050505098975050505050505050565b6040518060c001604052806000815260200160608152602001606081526020016000815260200160608152602001600081525090565b828054600181600116156101000203166002900490600052602060002090601f016020900481019282601f10620006e057805160ff191683800117855562000711565b8280016001018555821562000711579182015b8281111562000710578251825591602001919060010190620006f3565b5b50905062000720919062000807565b5090565b6040518060e00160405280606081526020016000815260200160008152602001600060028111156200075257fe5b81526020016000815260200160008152602001600060028111156200077357fe5b81525090565b828054600181600116156101000203166002900490600052602060002090601f016020900481019282601f10620007b45780548555620007f4565b82800160010185558215620007f457600052602060002091601f016020900482015b82811115620007f3578254825591600101919060010190620007d6565b5b50905062000803919062000807565b5090565b6200082c91905b80821115620008285760008160009055506001016200080e565b5090565b90565b6000815190506200084081620008a6565b92915050565b6000602082840312156200085957600080fd5b600062000869848285016200082f565b91505092915050565b60006200087f8262000886565b9050919050565b600073ffffffffffffffffffffffffffffffffffffffff82169050919050565b620008b18162000872565b8114620008bd57600080fd5b50565b61194c80620008d06000396000f3fe608060405234801561001057600080fd5b50600436106100a95760003560e01c8063363621a511610071578063363621a51461017357806381700fd61461018f578063a05edf54146101ad578063ab40c685146101cb578063c713e15d146101fb578063c820f0191461021f576100a9565b806306fdde03146100ae57806310ff8e31146100cc578063195bc254146101015780632f03e68814610131578063331704461461014f575b600080fd5b6100b661023d565b6040516100c391906115b9565b60405180910390f35b6100e660048036036100e19190810190611210565b6102db565b6040516100f8969594939291906116ae565b60405180910390f35b61011b60048036036101169190810190611239565b6104df565b6040516101289190611693565b60405180910390f35b6101396106d6565b6040516101469190611693565b60405180910390f35b6101576106dc565b60405161016a97969594939291906115fd565b60405180910390f35b61018d60048036036101889190810190611191565b6107be565b005b610197610aba565b6040516101a491906115db565b60405180910390f35b6101b5610b6e565b6040516101c29190611693565b60405180910390f35b6101e560048036036101e09190810190611210565b610b74565b6040516101f2919061157c565b60405180910390f35b610203610d5a565b60405161021697969594939291906115fd565b60405180910390f35b610227610e3c565b604051610234919061159e565b60405180910390f35b60038054600181600116156101000203166002900480601f0160208091040260200160405190810160405280929190818152602001828054600181600116156101000203166002900480156102d35780601f106102a8576101008083540402835291602001916102d3565b820191906000526020600020905b8154815290600101906020018083116102b657829003601f168201915b505050505081565b6002602052806000526040600020600091509050806000015490806001018054600181600116156101000203166002900480601f01602080910402602001604051908101604052809291908181526020018280546001816001161561010002031660029004801561038d5780601f106103625761010080835404028352916020019161038d565b820191906000526020600020905b81548152906001019060200180831161037057829003601f168201915b505050505090806002018054600181600116156101000203166002900480601f01602080910402602001604051908101604052809291908181526020018280546001816001161561010002031660029004801561042b5780601f106104005761010080835404028352916020019161042b565b820191906000526020600020905b81548152906001019060200180831161040e57829003601f168201915b505050505090806003015490806004018054600181600116156101000203166002900480601f0160208091040260200160405190810160405280929190818152602001828054600181600116156101000203166002900480156104cf5780601f106104a4576101008083540402835291602001916104cf565b820191906000526020600020905b8154815290600101906020018083116104b257829003601f168201915b5050505050908060050154905086565b600080600260008b81526020019081526020016000209050600081600501549050600181018260050181905550610514610e61565b6040518060e001604052808c81526020018b81526020018a815260200189600281111561053d57fe5b815260200188815260200187815260200186600281111561055a57fe5b815250905080836006016000856005015481526020019081526020016000206000820151816000019080519060200190610595929190610eb4565b50602082015181600101556040820151816002015560608201518160030160006101000a81548160ff021916908360028111156105ce57fe5b02179055506080820151816004015560a0820151816005015560c08201518160060160006101000a81548160ff0219169083600281111561060b57fe5b021790555090505082600260008e81526020019081526020016000206000820154816000015560018201816001019080546001816001161561010002031660029004610658929190610f34565b5060028201816002019080546001816001161561010002031660029004610680929190610f34565b5060038201548160030155600482018160040190805460018160011615610100020316600290046106b2929190610f34565b50600582015481600501559050508260050154935050505098975050505050505050565b60045481565b6005806000018054600181600116156101000203166002900480601f0160208091040260200160405190810160405280929190818152602001828054600181600116156101000203166002900480156107765780601f1061074b57610100808354040283529160200191610776565b820191906000526020600020905b81548152906001019060200180831161075957829003601f168201915b5050505050908060010154908060020154908060030160009054906101000a900460ff16908060040154908060050154908060060160009054906101000a900460ff16905087565b6001600081548092919060010191905055506107d8610fbb565b6002600060015481526020019081526020016000206040518060c001604052908160008201548152602001600182018054600181600116156101000203166002900480601f01602080910402602001604051908101604052809291908181526020018280546001816001161561010002031660029004801561089b5780601f106108705761010080835404028352916020019161089b565b820191906000526020600020905b81548152906001019060200180831161087e57829003601f168201915b50505050508152602001600282018054600181600116156101000203166002900480601f01602080910402602001604051908101604052809291908181526020018280546001816001161561010002031660029004801561093d5780601f106109125761010080835404028352916020019161093d565b820191906000526020600020905b81548152906001019060200180831161092057829003601f168201915b5050505050815260200160038201548152602001600482018054600181600116156101000203166002900480601f0160208091040260200160405190810160405280929190818152602001828054600181600116156101000203166002900480156109e95780601f106109be576101008083540402835291602001916109e9565b820191906000526020600020905b8154815290600101906020018083116109cc57829003601f168201915b5050505050815260200160058201548152505090506001548160000181815250508381602001819052508281604001819052508181606001818152505080600260006001548152602001908152602001600020600082015181600001556020820151816001019080519060200190610a62929190610eb4565b506040820151816002019080519060200190610a7f929190610eb4565b50606082015181600301556080820151816004019080519060200190610aa6929190610eb4565b5060a0820151816005015590505050505050565b60606000809054906101000a900473ffffffffffffffffffffffffffffffffffffffff1673ffffffffffffffffffffffffffffffffffffffff1663d6d20eba6040518163ffffffff1660e01b8152600401610b1490611673565b60006040518083038186803b158015610b2c57600080fd5b505afa158015610b40573d6000803e3d6000fd5b505050506040513d6000823e3d601f19601f82011682018060405250610b699190810190611150565b905090565b60015481565b60606000600260008481526020019081526020016000209050600081600501549050606081604051908082528060200260200182016040528015610bd257816020015b610bbf610ff1565b815260200190600190039081610bb75790505b5090506000600190505b828111610d4e578360060160008281526020019081526020016000206040518060e0016040529081600082018054600181600116156101000203166002900480601f016020809104026020016040519081016040528092919081815260200182805460018160011615610100020316600290048015610c9c5780601f10610c7157610100808354040283529160200191610c9c565b820191906000526020600020905b815481529060010190602001808311610c7f57829003601f168201915b5050505050815260200160018201548152602001600282015481526020016003820160009054906101000a900460ff166002811115610cd757fe5b6002811115610ce257fe5b815260200160048201548152602001600582015481526020016006820160009054906101000a900460ff166002811115610d1857fe5b6002811115610d2357fe5b81525050826001830381518110610d3657fe5b60200260200101819052508080600101915050610bdc565b50809350505050919050565b600c806000018054600181600116156101000203166002900480601f016020809104026020016040519081016040528092919081815260200182805460018160011615610100020316600290048015610df45780601f10610dc957610100808354040283529160200191610df4565b820191906000526020600020905b815481529060010190602001808311610dd757829003601f168201915b5050505050908060010154908060020154908060030160009054906101000a900460ff16908060040154908060050154908060060160009054906101000a900460ff16905087565b6000809054906101000a900473ffffffffffffffffffffffffffffffffffffffff1681565b6040518060e0016040528060608152602001600081526020016000815260200160006002811115610e8e57fe5b8152602001600081526020016000815260200160006002811115610eae57fe5b81525090565b828054600181600116156101000203166002900490600052602060002090601f016020900481019282601f10610ef557805160ff1916838001178555610f23565b82800160010185558215610f23579182015b82811115610f22578251825591602001919060010190610f07565b5b509050610f309190611044565b5090565b828054600181600116156101000203166002900490600052602060002090601f016020900481019282601f10610f6d5780548555610faa565b82800160010185558215610faa57600052602060002091601f016020900482015b82811115610fa9578254825591600101919060010190610f8e565b5b509050610fb79190611044565b5090565b6040518060c001604052806000815260200160608152602001606081526020016000815260200160608152602001600081525090565b6040518060e001604052806060815260200160008152602001600081526020016000600281111561101e57fe5b815260200160008152602001600081526020016000600281111561103e57fe5b81525090565b61106691905b8082111561106257600081600090555060010161104a565b5090565b90565b600081359050611078816118cb565b92915050565b60008135905061108d816118db565b92915050565b600082601f8301126110a457600080fd5b81356110b76110b282611751565b611724565b915080825260208301602083018583830111156110d357600080fd5b6110de83828461186b565b50505092915050565b600082601f8301126110f857600080fd5b815161110b61110682611751565b611724565b9150808252602083016020830185838301111561112757600080fd5b61113283828461187a565b50505092915050565b60008135905061114a816118f2565b92915050565b60006020828403121561116257600080fd5b600082015167ffffffffffffffff81111561117c57600080fd5b611188848285016110e7565b91505092915050565b6000806000606084860312156111a657600080fd5b600084013567ffffffffffffffff8111156111c057600080fd5b6111cc86828701611093565b935050602084013567ffffffffffffffff8111156111e957600080fd5b6111f586828701611093565b92505060406112068682870161113b565b9150509250925092565b60006020828403121561122257600080fd5b60006112308482850161113b565b91505092915050565b600080600080600080600080610100898b03121561125657600080fd5b60006112648b828c0161113b565b985050602089013567ffffffffffffffff81111561128157600080fd5b61128d8b828c01611093565b975050604061129e8b828c0161107e565b96505060606112af8b828c0161113b565b95505060806112c08b828c01611069565b94505060a06112d18b828c0161107e565b93505060c06112e28b828c0161113b565b92505060e06112f38b828c01611069565b9150509295985092959890939650565b600061130f83836114c2565b905092915050565b60006113228261178d565b61132c81856117bb565b93508360208202850161133e8561177d565b8060005b8581101561137a578484038952815161135b8582611303565b9450611366836117ae565b925060208a01995050600181019050611342565b50829750879550505050505092915050565b61139581611835565b82525050565b6113a481611859565b82525050565b6113b381611859565b82525050565b6113c281611801565b82525050565b6113d181611801565b82525050565b60006113e2826117a3565b6113ec81856117dd565b93506113fc81856020860161187a565b611405816118ad565b840191505092915050565b600061141b82611798565b61142581856117cc565b935061143581856020860161187a565b61143e816118ad565b840191505092915050565b600061145482611798565b61145e81856117dd565b935061146e81856020860161187a565b611477816118ad565b840191505092915050565b600061148f600b836117dd565b91507f52617370626572727950690000000000000000000000000000000000000000006000830152602082019050919050565b600060e08301600083015184820360008601526114df8282611410565b91505060208301516114f460208601826113b9565b506040830151611507604086018261155e565b50606083015161151a606086018261139b565b50608083015161152d60808601826113b9565b5060a083015161154060a086018261155e565b5060c083015161155360c086018261139b565b508091505092915050565b6115678161182b565b82525050565b6115768161182b565b82525050565b600060208201905081810360008301526115968184611317565b905092915050565b60006020820190506115b3600083018461138c565b92915050565b600060208201905081810360008301526115d38184611449565b905092915050565b600060208201905081810360008301526115f581846113d7565b905092915050565b600060e0820190508181036000830152611617818a611449565b905061162660208301896113c8565b611633604083018861156d565b61164060608301876113aa565b61164d60808301866113c8565b61165a60a083018561156d565b61166760c08301846113aa565b98975050505050505050565b6000602082019050818103600083015261168c81611482565b9050919050565b60006020820190506116a8600083018461156d565b92915050565b600060c0820190506116c3600083018961156d565b81810360208301526116d58188611449565b905081810360408301526116e98187611449565b90506116f8606083018661156d565b818103608083015261170a8185611449565b905061171960a083018461156d565b979650505050505050565b6000604051905081810181811067ffffffffffffffff8211171561174757600080fd5b8060405250919050565b600067ffffffffffffffff82111561176857600080fd5b601f19601f8301169050602081019050919050565b6000819050602082019050919050565b600081519050919050565b600081519050919050565b600081519050919050565b6000602082019050919050565b600082825260208201905092915050565b600082825260208201905092915050565b600082825260208201905092915050565b60008190506117fc826118be565b919050565b6000819050919050565b600073ffffffffffffffffffffffffffffffffffffffff82169050919050565b6000819050919050565b600061184082611847565b9050919050565b60006118528261180b565b9050919050565b6000611864826117ee565b9050919050565b82818337600083830152505050565b60005b8381101561189857808201518184015260208101905061187d565b838111156118a7576000848401525b50505050565b6000601f19601f8301169050919050565b600381106118c857fe5b50565b600381106118d857600080fd5b50565b6118e481611801565b81146118ef57600080fd5b50565b6118fb8161182b565b811461190657600080fd5b5056fea365627a7a7231582095f2d3b1e81526730bbc4a5e920a47e2822e849ecb60ac590475b5bb5a9cbf236c6578706572696d656e74616cf564736f6c634300050c0040",
  "source": "pragma experimental ABIEncoderV2;\npragma solidity ^0.5.12;\n\ncontract DeviceDefaultAttribute{\n  enum Criticality {LOW, MEDIUM, HIGH}\n\n  struct Attribute {\n    string name;\n    int256 minimunThreshold;\n    uint256 minimunViolationCount;\n    Criticality minimumCriticality;\n    int256 maximumThresold;\n    uint256 maximumViolationCount;\n    Criticality maximumCriticality;\n  }\n\n  function getAllAttributeCount() public view returns (uint);\n\n  function addDefaultAttribute(\n    string memory _modelName,\n    string memory _attributeName,\n    int256 _minimumThresold, uint256 _minimumViolationCount, Criticality _minimumCriticality,\n    int256 _maximumThresold, uint256 _maximumViolationCount, Criticality _maximumCriticality\n  ) public;\n\n  function getDefaulltAttributeIndicesByModelName(string memory _modelName) public view returns (string memory);\n}\n\ncontract DeviceProfiles {\n\n  DeviceDefaultAttribute public called_address;\n\n  struct Device {\n    // Store device info (id, ip, model)\n    uint deviceId;\n    string deviceIp;\n    string deviceModel;\n\n    // Interval time for sampling data in minutes\n    uint samplingRateMinute;\n\n    // Store ipfs hash code of device's model software\n    string softwareIpfsHash;\n\n    // Store attributes count\n    uint attributeCount;\n\n    // Store & fetch Attributes\n    mapping(uint => DeviceDefaultAttribute.Attribute) attributes;\n\n    // Get ipfs hash code of each attribute monitoring data (by attribute name)\n    mapping(string => string) attributeNameDataIpfsHashMap;\n  }\n\n  // Store devices count\n  uint public devicesCount;\n\n  // Store & fetch devices\n  mapping (uint => Device) public devices;\n\n  // Test\n  string public name;\n  uint public attr;\n  DeviceDefaultAttribute.Attribute public testAttList;\n  DeviceDefaultAttribute.Attribute public testAttList2;\n\n  constructor (address _addy) public {\n    called_address = DeviceDefaultAttribute(_addy);\n\n    // Remove these lines\n    addDevice(\"1.1.1.1\", \"model 1\", 1);\n    addAttributeToDeviceById(\n      1,\n      \"attribute name 1\",\n      200,\n      2,\n      DeviceDefaultAttribute.Criticality.LOW,\n      400,\n      2,\n      DeviceDefaultAttribute.Criticality.LOW\n    );\n  }\n\n  function callDeviceDefaultAttributeMethod() public view returns(string memory){\n    return called_address.getDefaulltAttributeIndicesByModelName(\"RaspberryPi\");\n  }\n\n  function addDevice(\n    string memory _ip,\n    string memory _model,\n    uint _samplingRateMinute\n  ) public {\n    devicesCount ++;\n    Device memory device = devices[devicesCount];\n    device.deviceId = devicesCount;\n    device.deviceIp = _ip;\n    device.deviceModel = _model;\n    device.samplingRateMinute = _samplingRateMinute;\n    devices[devicesCount] = device;\n  }\n\n  function addAttributeToDeviceById(\n    uint _deviceId,\n    string memory _name,\n    int256 _minimunThreshold,\n    uint256 _minimunViolationCount,\n    DeviceDefaultAttribute.Criticality _minimumCriticality,\n    int256 _maximumThresold,\n    uint256 _maximumViolationCount,\n    DeviceDefaultAttribute.Criticality _maximumCriticality\n  ) public returns (uint256){\n    Device storage device = devices[_deviceId];\n    uint counter = device.attributeCount;\n    device.attributeCount = counter + 1;\n    DeviceDefaultAttribute.Attribute memory attribute =\n    DeviceDefaultAttribute.Attribute(\n      _name,\n      _minimunThreshold,\n      _minimunViolationCount,\n      _minimumCriticality,\n      _maximumThresold,\n      _maximumViolationCount,\n      _maximumCriticality\n    );\n    device.attributes[device.attributeCount] = attribute;\n    devices[_deviceId] = device;\n    return device.attributeCount;\n  }\n\n  function getDeviceAttributes (uint _deviceId)\n  public view\n  returns (\n    DeviceDefaultAttribute.Attribute[] memory\n  ){\n    Device storage device = devices[_deviceId];\n    uint size = device.attributeCount;\n    DeviceDefaultAttribute.Attribute[] memory attributes = new DeviceDefaultAttribute.Attribute[](size);\n    for (uint i = 1; i <= size; i++) {\n      attributes[i - 1] = device.attributes[i];\n    }\n    return attributes;\n  }\n}",
  "sourcePath": "/Users/shirin/Desktop/Thesis/Implementation/MSc-Thesis/Implementation/thesis-front/contracts/DeviceProfiles.sol",
  "compiler": {
    "name": "solc",
    "version": "0.5.12+commit.7709ece9.Emscripten.clang"
  },
  "schemaVersion": "3.0.15",
  "updatedAt": "2019-10-19T17:18:01.969Z",
  "devdoc": {
    "methods": {}
  },
  "userdoc": {
    "methods": {}
  }
}