{
  "contractName": "DeviceProfiles",
  "abi": [
    {
      "inputs": [
        {
          "internalType": "address",
          "name": "_addy",
          "type": "address"
        }
      ],
      "payable": false,
      "stateMutability": "nonpayable",
      "type": "constructor"
    },
    {
      "anonymous": false,
      "inputs": [
        {
          "indexed": false,
          "internalType": "uint256",
          "name": "deivceId",
          "type": "uint256"
        },
        {
          "indexed": false,
          "internalType": "string",
          "name": "deviceIp",
          "type": "string"
        },
        {
          "indexed": false,
          "internalType": "string",
          "name": "deviceModel",
          "type": "string"
        }
      ],
      "name": "DeviceAdded",
      "type": "event"
    },
    {
      "constant": true,
      "inputs": [],
      "name": "attrCount",
      "outputs": [
        {
          "internalType": "uint256",
          "name": "",
          "type": "uint256"
        }
      ],
      "payable": false,
      "stateMutability": "view",
      "type": "function"
    },
    {
      "constant": true,
      "inputs": [],
      "name": "called_address",
      "outputs": [
        {
          "internalType": "contract DeviceDefaultAttribute",
          "name": "",
          "type": "address"
        }
      ],
      "payable": false,
      "stateMutability": "view",
      "type": "function"
    },
    {
      "constant": true,
      "inputs": [
        {
          "internalType": "uint256",
          "name": "",
          "type": "uint256"
        }
      ],
      "name": "devices",
      "outputs": [
        {
          "internalType": "uint256",
          "name": "deviceId",
          "type": "uint256"
        },
        {
          "internalType": "string",
          "name": "deviceIp",
          "type": "string"
        },
        {
          "internalType": "string",
          "name": "deviceModel",
          "type": "string"
        },
        {
          "internalType": "uint256",
          "name": "samplingRateMinute",
          "type": "uint256"
        },
        {
          "internalType": "string",
          "name": "softwareIpfsHash",
          "type": "string"
        },
        {
          "internalType": "uint256",
          "name": "attributeCount",
          "type": "uint256"
        }
      ],
      "payable": false,
      "stateMutability": "view",
      "type": "function"
    },
    {
      "constant": true,
      "inputs": [],
      "name": "devicesCount",
      "outputs": [
        {
          "internalType": "uint256",
          "name": "",
          "type": "uint256"
        }
      ],
      "payable": false,
      "stateMutability": "view",
      "type": "function"
    },
    {
      "constant": true,
      "inputs": [],
      "name": "callDeviceDefaultAttributeMethod",
      "outputs": [
        {
          "components": [
            {
              "internalType": "string",
              "name": "name",
              "type": "string"
            },
            {
              "internalType": "int256",
              "name": "minimunThreshold",
              "type": "int256"
            },
            {
              "internalType": "uint256",
              "name": "minimunViolationCount",
              "type": "uint256"
            },
            {
              "internalType": "enum DeviceDefaultAttribute.Criticality",
              "name": "minimumCriticality",
              "type": "uint8"
            },
            {
              "internalType": "int256",
              "name": "maximumThresold",
              "type": "int256"
            },
            {
              "internalType": "uint256",
              "name": "maximumViolationCount",
              "type": "uint256"
            },
            {
              "internalType": "enum DeviceDefaultAttribute.Criticality",
              "name": "maximumCriticality",
              "type": "uint8"
            }
          ],
          "internalType": "struct DeviceDefaultAttribute.Attribute[]",
          "name": "",
          "type": "tuple[]"
        }
      ],
      "payable": false,
      "stateMutability": "view",
      "type": "function"
    },
    {
      "constant": false,
      "inputs": [
        {
          "internalType": "string",
          "name": "_ip",
          "type": "string"
        },
        {
          "internalType": "string",
          "name": "_model",
          "type": "string"
        },
        {
          "internalType": "uint256",
          "name": "_samplingRateMinute",
          "type": "uint256"
        }
      ],
      "name": "addDevice",
      "outputs": [],
      "payable": false,
      "stateMutability": "nonpayable",
      "type": "function"
    },
    {
      "constant": false,
      "inputs": [
        {
          "internalType": "uint256",
          "name": "_deviceId",
          "type": "uint256"
        },
        {
          "internalType": "string",
          "name": "_name",
          "type": "string"
        },
        {
          "internalType": "int256",
          "name": "_minimunThreshold",
          "type": "int256"
        },
        {
          "internalType": "uint256",
          "name": "_minimunViolationCount",
          "type": "uint256"
        },
        {
          "internalType": "enum DeviceDefaultAttribute.Criticality",
          "name": "_minimumCriticality",
          "type": "uint8"
        },
        {
          "internalType": "int256",
          "name": "_maximumThresold",
          "type": "int256"
        },
        {
          "internalType": "uint256",
          "name": "_maximumViolationCount",
          "type": "uint256"
        },
        {
          "internalType": "enum DeviceDefaultAttribute.Criticality",
          "name": "_maximumCriticality",
          "type": "uint8"
        }
      ],
      "name": "addAttributeToDeviceById",
      "outputs": [
        {
          "internalType": "uint256",
          "name": "",
          "type": "uint256"
        }
      ],
      "payable": false,
      "stateMutability": "nonpayable",
      "type": "function"
    },
    {
      "constant": false,
      "inputs": [
        {
          "internalType": "uint256",
          "name": "_deviceId",
          "type": "uint256"
        }
      ],
      "name": "getDeviceAttributes",
      "outputs": [
        {
          "components": [
            {
              "internalType": "string",
              "name": "name",
              "type": "string"
            },
            {
              "internalType": "int256",
              "name": "minimunThreshold",
              "type": "int256"
            },
            {
              "internalType": "uint256",
              "name": "minimunViolationCount",
              "type": "uint256"
            },
            {
              "internalType": "enum DeviceDefaultAttribute.Criticality",
              "name": "minimumCriticality",
              "type": "uint8"
            },
            {
              "internalType": "int256",
              "name": "maximumThresold",
              "type": "int256"
            },
            {
              "internalType": "uint256",
              "name": "maximumViolationCount",
              "type": "uint256"
            },
            {
              "internalType": "enum DeviceDefaultAttribute.Criticality",
              "name": "maximumCriticality",
              "type": "uint8"
            }
          ],
          "internalType": "struct DeviceDefaultAttribute.Attribute[]",
          "name": "",
          "type": "tuple[]"
        }
      ],
      "payable": false,
      "stateMutability": "nonpayable",
      "type": "function"
    }
  ],
  "bytecode": "0x60806040523480156200001157600080fd5b5060405162002222380380620022228339818101604052620000379190810190620008e5565b806000806101000a81548173ffffffffffffffffffffffffffffffffffffffff021916908373ffffffffffffffffffffffffffffffffffffffff160217905550620000f56040518060400160405280600781526020017f312e312e312e31000000000000000000000000000000000000000000000000008152506040518060400160405280600781526020017f6d6f64656c2031000000000000000000000000000000000000000000000000008152506001620001a860201b60201c565b6200014a60016040518060400160405280601081526020017f617474726962757465206e616d6520310000000000000000000000000000000081525060c860026000610190600260006200050160201b60201c565b50620001a060016040518060400160405280601081526020017f617474726962757465206e616d6520320000000000000000000000000000000081525060c860026000610190600260006200050160201b60201c565b505062000a69565b600160008154809291906001019190505550620001c462000706565b6002600060015481526020019081526020016000206040518060c001604052908160008201548152602001600182018054600181600116156101000203166002900480601f0160208091040260200160405190810160405280929190818152602001828054600181600116156101000203166002900480156200028b5780601f106200025f576101008083540402835291602001916200028b565b820191906000526020600020905b8154815290600101906020018083116200026d57829003601f168201915b50505050508152602001600282018054600181600116156101000203166002900480601f016020809104026020016040519081016040528092919081815260200182805460018160011615610100020316600290048015620003315780601f10620003055761010080835404028352916020019162000331565b820191906000526020600020905b8154815290600101906020018083116200031357829003601f168201915b5050505050815260200160038201548152602001600482018054600181600116156101000203166002900480601f016020809104026020016040519081016040528092919081815260200182805460018160011615610100020316600290048015620003e15780601f10620003b557610100808354040283529160200191620003e1565b820191906000526020600020905b815481529060010190602001808311620003c357829003601f168201915b50505050508152602001600582015481525050905060015481600001818152505083816020018190525082816040018190525081816060018181525050806002600060015481526020019081526020016000206000820151816000015560208201518160010190805190602001906200045c9291906200073c565b5060408201518160020190805190602001906200047b9291906200073c565b50606082015181600301556080820151816004019080519060200190620004a49291906200073c565b5060a082015181600501559050507fb89dae6f79ce740c8f64a816f7060781c54c0c5ad24df7fc163a842d30daa497816000015182602001518360400151604051620004f39392919062000963565b60405180910390a150505050565b600080600260008b8152602001908152602001600020905060008160050154905060018101826005018190555062000538620007c3565b6040518060e001604052808c81526020018b81526020018a81526020018960028111156200056257fe5b81526020018881526020018781526020018660028111156200058057fe5b815250905080836006016000856005015481526020019081526020016000206000820151816000019080519060200190620005bd9291906200073c565b50602082015181600101556040820151816002015560608201518160030160006101000a81548160ff02191690836002811115620005f757fe5b02179055506080820151816004015560a0820151816005015560c08201518160060160006101000a81548160ff021916908360028111156200063557fe5b021790555090505082600260008e815260200190815260200160002060008201548160000155600182018160010190805460018160011615610100020316600290046200068492919062000818565b5060028201816002019080546001816001161561010002031660029004620006ae92919062000818565b506003820154816003015560048201816004019080546001816001161561010002031660029004620006e292919062000818565b50600582015481600501559050508260050154935050505098975050505050505050565b6040518060c001604052806000815260200160608152602001606081526020016000815260200160608152602001600081525090565b828054600181600116156101000203166002900490600052602060002090601f016020900481019282601f106200077f57805160ff1916838001178555620007b0565b82800160010185558215620007b0579182015b82811115620007af57825182559160200191906001019062000792565b5b509050620007bf9190620008a6565b5090565b6040518060e0016040528060608152602001600081526020016000815260200160006002811115620007f157fe5b81526020016000815260200160008152602001600060028111156200081257fe5b81525090565b828054600181600116156101000203166002900490600052602060002090601f016020900481019282601f1062000853578054855562000893565b828001600101855582156200089357600052602060002091601f016020900482015b828111156200089257825482559160010191906001019062000875565b5b509050620008a29190620008a6565b5090565b620008cb91905b80821115620008c7576000816000905550600101620008ad565b5090565b90565b600081519050620008df8162000a4f565b92915050565b600060208284031215620008f857600080fd5b60006200090884828501620008ce565b91505092915050565b60006200091e82620009ae565b6200092a8185620009b9565b93506200093c81856020860162000a08565b620009478162000a3e565b840191505092915050565b6200095d81620009fe565b82525050565b60006060820190506200097a600083018662000952565b81810360208301526200098e818562000911565b90508181036040830152620009a4818462000911565b9050949350505050565b600081519050919050565b600082825260208201905092915050565b6000620009d782620009de565b9050919050565b600073ffffffffffffffffffffffffffffffffffffffff82169050919050565b6000819050919050565b60005b8381101562000a2857808201518184015260208101905062000a0b565b8381111562000a38576000848401525b50505050565b6000601f19601f8301169050919050565b62000a5a81620009ca565b811462000a6657600080fd5b50565b6117a98062000a796000396000f3fe608060405234801561001057600080fd5b50600436106100885760003560e01c8063a05edf541161005b578063a05edf541461012c578063ab40c6851461014a578063add49d041461017a578063c820f0191461019857610088565b806310ff8e311461008d578063195bc254146100c2578063363621a5146100f257806381700fd61461010e575b600080fd5b6100a760048036036100a291908101906110f0565b6101b6565b6040516100b9969594939291906114c2565b60405180910390f35b6100dc60048036036100d79190810190611119565b6103ba565b6040516100e99190611462565b60405180910390f35b61010c60048036036101079190810190611071565b6105b1565b005b6101166108f4565b6040516101239190611405565b60405180910390f35b6101346109a8565b6040516101419190611462565b60405180910390f35b610164600480360361015f91908101906110f0565b6109ae565b6040516101719190611405565b60405180910390f35b610182610b9b565b60405161018f9190611462565b60405180910390f35b6101a0610ba1565b6040516101ad9190611427565b60405180910390f35b6002602052806000526040600020600091509050806000015490806001018054600181600116156101000203166002900480601f0160208091040260200160405190810160405280929190818152602001828054600181600116156101000203166002900480156102685780601f1061023d57610100808354040283529160200191610268565b820191906000526020600020905b81548152906001019060200180831161024b57829003601f168201915b505050505090806002018054600181600116156101000203166002900480601f0160208091040260200160405190810160405280929190818152602001828054600181600116156101000203166002900480156103065780601f106102db57610100808354040283529160200191610306565b820191906000526020600020905b8154815290600101906020018083116102e957829003601f168201915b505050505090806003015490806004018054600181600116156101000203166002900480601f0160208091040260200160405190810160405280929190818152602001828054600181600116156101000203166002900480156103aa5780601f1061037f576101008083540402835291602001916103aa565b820191906000526020600020905b81548152906001019060200180831161038d57829003601f168201915b5050505050908060050154905086565b600080600260008b815260200190815260200160002090506000816005015490506001810182600501819055506103ef610bc6565b6040518060e001604052808c81526020018b81526020018a815260200189600281111561041857fe5b815260200188815260200187815260200186600281111561043557fe5b815250905080836006016000856005015481526020019081526020016000206000820151816000019080519060200190610470929190610c19565b50602082015181600101556040820151816002015560608201518160030160006101000a81548160ff021916908360028111156104a957fe5b02179055506080820151816004015560a0820151816005015560c08201518160060160006101000a81548160ff021916908360028111156104e657fe5b021790555090505082600260008e81526020019081526020016000206000820154816000015560018201816001019080546001816001161561010002031660029004610533929190610c99565b506002820181600201908054600181600116156101000203166002900461055b929190610c99565b50600382015481600301556004820181600401908054600181600116156101000203166002900461058d929190610c99565b50600582015481600501559050508260050154935050505098975050505050505050565b6001600081548092919060010191905055506105cb610d20565b6002600060015481526020019081526020016000206040518060c001604052908160008201548152602001600182018054600181600116156101000203166002900480601f01602080910402602001604051908101604052809291908181526020018280546001816001161561010002031660029004801561068e5780601f106106635761010080835404028352916020019161068e565b820191906000526020600020905b81548152906001019060200180831161067157829003601f168201915b50505050508152602001600282018054600181600116156101000203166002900480601f0160208091040260200160405190810160405280929190818152602001828054600181600116156101000203166002900480156107305780601f1061070557610100808354040283529160200191610730565b820191906000526020600020905b81548152906001019060200180831161071357829003601f168201915b5050505050815260200160038201548152602001600482018054600181600116156101000203166002900480601f0160208091040260200160405190810160405280929190818152602001828054600181600116156101000203166002900480156107dc5780601f106107b1576101008083540402835291602001916107dc565b820191906000526020600020905b8154815290600101906020018083116107bf57829003601f168201915b5050505050815260200160058201548152505090506001548160000181815250508381602001819052508281604001819052508181606001818152505080600260006001548152602001908152602001600020600082015181600001556020820151816001019080519060200190610855929190610c19565b506040820151816002019080519060200190610872929190610c19565b50606082015181600301556080820151816004019080519060200190610899929190610c19565b5060a082015181600501559050507fb89dae6f79ce740c8f64a816f7060781c54c0c5ad24df7fc163a842d30daa4978160000151826020015183604001516040516108e69392919061147d565b60405180910390a150505050565b60606000809054906101000a900473ffffffffffffffffffffffffffffffffffffffff1673ffffffffffffffffffffffffffffffffffffffff1663d6d20eba6040518163ffffffff1660e01b815260040161094e90611442565b60006040518083038186803b15801561096657600080fd5b505afa15801561097a573d6000803e3d6000fd5b505050506040513d6000823e3d601f19601f820116820180604052506109a39190810190611030565b905090565b60015481565b6060600060026000848152602001908152602001600020905060008160050154905080600381905550606081604051908082528060200260200182016040528015610a1357816020015b610a00610d56565b8152602001906001900390816109f85790505b5090506000600190505b828111610b8f578360060160008281526020019081526020016000206040518060e0016040529081600082018054600181600116156101000203166002900480601f016020809104026020016040519081016040528092919081815260200182805460018160011615610100020316600290048015610add5780601f10610ab257610100808354040283529160200191610add565b820191906000526020600020905b815481529060010190602001808311610ac057829003601f168201915b5050505050815260200160018201548152602001600282015481526020016003820160009054906101000a900460ff166002811115610b1857fe5b6002811115610b2357fe5b815260200160048201548152602001600582015481526020016006820160009054906101000a900460ff166002811115610b5957fe5b6002811115610b6457fe5b81525050826001830381518110610b7757fe5b60200260200101819052508080600101915050610a1d565b50809350505050919050565b60035481565b6000809054906101000a900473ffffffffffffffffffffffffffffffffffffffff1681565b6040518060e0016040528060608152602001600081526020016000815260200160006002811115610bf357fe5b8152602001600081526020016000815260200160006002811115610c1357fe5b81525090565b828054600181600116156101000203166002900490600052602060002090601f016020900481019282601f10610c5a57805160ff1916838001178555610c88565b82800160010185558215610c88579182015b82811115610c87578251825591602001919060010190610c6c565b5b509050610c959190610da9565b5090565b828054600181600116156101000203166002900490600052602060002090601f016020900481019282601f10610cd25780548555610d0f565b82800160010185558215610d0f57600052602060002091601f016020900482015b82811115610d0e578254825591600101919060010190610cf3565b5b509050610d1c9190610da9565b5090565b6040518060c001604052806000815260200160608152602001606081526020016000815260200160608152602001600081525090565b6040518060e0016040528060608152602001600081526020016000815260200160006002811115610d8357fe5b8152602001600081526020016000815260200160006002811115610da357fe5b81525090565b610dcb91905b80821115610dc7576000816000905550600101610daf565b5090565b90565b600082601f830112610ddf57600080fd5b8151610df2610ded82611565565b611538565b9150818183526020840193506020810190508360005b83811015610e385781518601610e1e8882610f3e565b845260208401935060208301925050600181019050610e08565b5050505092915050565b600081359050610e5181611728565b92915050565b600081519050610e6681611728565b92915050565b600081359050610e7b81611738565b92915050565b600081519050610e9081611738565b92915050565b600082601f830112610ea757600080fd5b8151610eba610eb58261158d565b611538565b91508082526020830160208301858383011115610ed657600080fd5b610ee18382846116d7565b50505092915050565b600082601f830112610efb57600080fd5b8135610f0e610f09826115b9565b611538565b91508082526020830160208301858383011115610f2a57600080fd5b610f358382846116c8565b50505092915050565b600060e08284031215610f5057600080fd5b610f5a60e0611538565b9050600082015167ffffffffffffffff811115610f7657600080fd5b610f8284828501610e96565b6000830152506020610f9684828501610e81565b6020830152506040610faa8482850161101b565b6040830152506060610fbe84828501610e57565b6060830152506080610fd284828501610e81565b60808301525060a0610fe68482850161101b565b60a08301525060c0610ffa84828501610e57565b60c08301525092915050565b6000813590506110158161174f565b92915050565b60008151905061102a8161174f565b92915050565b60006020828403121561104257600080fd5b600082015167ffffffffffffffff81111561105c57600080fd5b61106884828501610dce565b91505092915050565b60008060006060848603121561108657600080fd5b600084013567ffffffffffffffff8111156110a057600080fd5b6110ac86828701610eea565b935050602084013567ffffffffffffffff8111156110c957600080fd5b6110d586828701610eea565b92505060406110e686828701611006565b9150509250925092565b60006020828403121561110257600080fd5b600061111084828501611006565b91505092915050565b600080600080600080600080610100898b03121561113657600080fd5b60006111448b828c01611006565b985050602089013567ffffffffffffffff81111561116157600080fd5b61116d8b828c01610eea565b975050604061117e8b828c01610e6c565b965050606061118f8b828c01611006565b95505060806111a08b828c01610e42565b94505060a06111b18b828c01610e6c565b93505060c06111c28b828c01611006565b92505060e06111d38b828c01610e42565b9150509295985092959890939650565b60006111ef838361134b565b905092915050565b6000611202826115f5565b61120c8185611618565b93508360208202850161121e856115e5565b8060005b8581101561125a578484038952815161123b85826111e3565b94506112468361160b565b925060208a01995050600181019050611222565b50829750879550505050505092915050565b61127581611692565b82525050565b611284816116b6565b82525050565b6112938161165e565b82525050565b60006112a482611600565b6112ae8185611629565b93506112be8185602086016116d7565b6112c78161170a565b840191505092915050565b60006112dd82611600565b6112e7818561163a565b93506112f78185602086016116d7565b6113008161170a565b840191505092915050565b6000611318600b8361163a565b91507f52617370626572727950690000000000000000000000000000000000000000006000830152602082019050919050565b600060e08301600083015184820360008601526113688282611299565b915050602083015161137d602086018261128a565b50604083015161139060408601826113e7565b5060608301516113a3606086018261127b565b5060808301516113b6608086018261128a565b5060a08301516113c960a08601826113e7565b5060c08301516113dc60c086018261127b565b508091505092915050565b6113f081611688565b82525050565b6113ff81611688565b82525050565b6000602082019050818103600083015261141f81846111f7565b905092915050565b600060208201905061143c600083018461126c565b92915050565b6000602082019050818103600083015261145b8161130b565b9050919050565b600060208201905061147760008301846113f6565b92915050565b600060608201905061149260008301866113f6565b81810360208301526114a481856112d2565b905081810360408301526114b881846112d2565b9050949350505050565b600060c0820190506114d760008301896113f6565b81810360208301526114e981886112d2565b905081810360408301526114fd81876112d2565b905061150c60608301866113f6565b818103608083015261151e81856112d2565b905061152d60a08301846113f6565b979650505050505050565b6000604051905081810181811067ffffffffffffffff8211171561155b57600080fd5b8060405250919050565b600067ffffffffffffffff82111561157c57600080fd5b602082029050602081019050919050565b600067ffffffffffffffff8211156115a457600080fd5b601f19601f8301169050602081019050919050565b600067ffffffffffffffff8211156115d057600080fd5b601f19601f8301169050602081019050919050565b6000819050602082019050919050565b600081519050919050565b600081519050919050565b6000602082019050919050565b600082825260208201905092915050565b600082825260208201905092915050565b600082825260208201905092915050565b60008190506116598261171b565b919050565b6000819050919050565b600073ffffffffffffffffffffffffffffffffffffffff82169050919050565b6000819050919050565b600061169d826116a4565b9050919050565b60006116af82611668565b9050919050565b60006116c18261164b565b9050919050565b82818337600083830152505050565b60005b838110156116f55780820151818401526020810190506116da565b83811115611704576000848401525b50505050565b6000601f19601f8301169050919050565b6003811061172557fe5b50565b6003811061173557600080fd5b50565b6117418161165e565b811461174c57600080fd5b50565b61175881611688565b811461176357600080fd5b5056fea365627a7a7231582065ac6f6fd297ef69159d0cd9115ba7f0ed083062ad0d24d40a60ef6c94366b166c6578706572696d656e74616cf564736f6c634300050c0040",
  "source": "pragma experimental ABIEncoderV2;\npragma solidity ^0.5.12;\n\ncontract DeviceDefaultAttribute {\n  enum Criticality {LOW, MEDIUM, HIGH}\n\n  struct Attribute {\n    string name;\n    int256 minimunThreshold;\n    uint256 minimunViolationCount;\n    Criticality minimumCriticality;\n    int256 maximumThresold;\n    uint256 maximumViolationCount;\n    Criticality maximumCriticality;\n  }\n\n  function getAllAttributeCount() public view returns (uint);\n\n  function addDefaultAttribute(\n    string memory _modelName,\n    string memory _attributeName,\n    int256 _minimumThresold, uint256 _minimumViolationCount, Criticality _minimumCriticality,\n    int256 _maximumThresold, uint256 _maximumViolationCount, Criticality _maximumCriticality\n  ) public;\n\n  function getDefaulltAttributeIndicesByModelName(string memory _modelName) public view returns (Attribute[] memory);\n}\n\ncontract DeviceProfiles {\n\n  DeviceDefaultAttribute public called_address;\n\n  struct Device {\n    // Store device info (id, ip, model)\n    uint deviceId;\n    string deviceIp;\n    string deviceModel;\n\n    // Interval time for sampling data in minutes\n    uint samplingRateMinute;\n\n    // Store ipfs hash code of device's model software\n    string softwareIpfsHash;\n\n    // Store attributes count\n    uint attributeCount;\n\n    // Store & fetch Attributes\n    mapping(uint => DeviceDefaultAttribute.Attribute) attributes;\n\n    // Get ipfs hash code of each attribute monitoring data (by attribute name)\n    mapping(string => string) attributeNameDataIpfsHashMap;\n  }\n\n  // Store devices count\n  uint public devicesCount;\n\n  // Store & fetch devices\n  mapping(uint => Device) public devices;\n\n  // Test\n  uint public attrCount;\n\n  // Emit this event after adding devices\n  event DeviceAdded(\n    uint deivceId,\n    string deviceIp,\n    string deviceModel\n  );\n\n  constructor (address _addy) public {\n    called_address = DeviceDefaultAttribute(_addy);\n\n    // Remove these lines\n    addDevice(\"1.1.1.1\", \"model 1\", 1);\n    addAttributeToDeviceById(\n      1,\n      \"attribute name 1\",\n      200,\n      2,\n      DeviceDefaultAttribute.Criticality.LOW,\n      400,\n      2,\n      DeviceDefaultAttribute.Criticality.LOW\n    );\n    addAttributeToDeviceById(\n      1,\n      \"attribute name 2\",\n      200,\n      2,\n      DeviceDefaultAttribute.Criticality.LOW,\n      400,\n      2,\n      DeviceDefaultAttribute.Criticality.LOW\n    );\n  }\n\n  function callDeviceDefaultAttributeMethod() public view returns (DeviceDefaultAttribute.Attribute[] memory){\n    return called_address.getDefaulltAttributeIndicesByModelName(\"RaspberryPi\");\n  }\n\n  function addDevice(\n    string memory _ip,\n    string memory _model,\n    uint _samplingRateMinute\n  ) public {\n    devicesCount ++;\n    Device memory device = devices[devicesCount];\n    device.deviceId = devicesCount;\n    device.deviceIp = _ip;\n    device.deviceModel = _model;\n    device.samplingRateMinute = _samplingRateMinute;\n    devices[devicesCount] = device;\n    emit DeviceAdded(device.deviceId, device.deviceIp, device.deviceModel);\n  }\n\n  function addAttributeToDeviceById(\n    uint _deviceId,\n    string memory _name,\n    int256 _minimunThreshold,\n    uint256 _minimunViolationCount,\n    DeviceDefaultAttribute.Criticality _minimumCriticality,\n    int256 _maximumThresold,\n    uint256 _maximumViolationCount,\n    DeviceDefaultAttribute.Criticality _maximumCriticality\n  ) public returns (uint256){\n    Device storage device = devices[_deviceId];\n    uint counter = device.attributeCount;\n    device.attributeCount = counter + 1;\n    DeviceDefaultAttribute.Attribute memory attribute =\n    DeviceDefaultAttribute.Attribute(\n      _name,\n      _minimunThreshold,\n      _minimunViolationCount,\n      _minimumCriticality,\n      _maximumThresold,\n      _maximumViolationCount,\n      _maximumCriticality\n    );\n    device.attributes[device.attributeCount] = attribute;\n    devices[_deviceId] = device;\n    return device.attributeCount;\n  }\n\n  function getDeviceAttributes(uint _deviceId)\n  public\n  returns (\n    DeviceDefaultAttribute.Attribute[] memory\n  ){\n    Device storage device = devices[_deviceId];\n    uint size = device.attributeCount;\n    attrCount = size;\n    DeviceDefaultAttribute.Attribute[] memory attributes = new DeviceDefaultAttribute.Attribute[](size);\n    for (uint i = 1; i <= size; i++) {\n      attributes[i - 1] = device.attributes[i];\n    }\n    return attributes;\n  }\n}",
  "sourcePath": "/Users/shirin/Desktop/Thesis/Implementation/MSc-Thesis/Implementation/thesis-front/contracts/DeviceProfiles.sol",
  "compiler": {
    "name": "solc",
    "version": "0.5.12+commit.7709ece9.Emscripten.clang"
  },
  "schemaVersion": "3.0.15",
  "updatedAt": "2019-11-06T12:33:03.893Z",
  "devdoc": {
    "methods": {}
  },
  "userdoc": {
    "methods": {}
  }
}