{
  "contractName": "DeviceDefaultAttributes",
  "abi": [
    {
      "inputs": [],
      "payable": false,
      "stateMutability": "nonpayable",
      "type": "constructor"
    },
    {
      "constant": true,
      "inputs": [
        {
          "internalType": "bytes32",
          "name": "",
          "type": "bytes32"
        }
      ],
      "name": "defaulltAttributeIndicesByModelName",
      "outputs": [
        {
          "internalType": "string",
          "name": "",
          "type": "string"
        }
      ],
      "payable": false,
      "stateMutability": "view",
      "type": "function"
    },
    {
      "constant": true,
      "inputs": [
        {
          "internalType": "uint256",
          "name": "",
          "type": "uint256"
        }
      ],
      "name": "defaultAttributes",
      "outputs": [
        {
          "internalType": "string",
          "name": "name",
          "type": "string"
        },
        {
          "internalType": "int256",
          "name": "minimunThreshold",
          "type": "int256"
        },
        {
          "internalType": "uint256",
          "name": "minimunViolationCount",
          "type": "uint256"
        },
        {
          "internalType": "enum DeviceDefaultAttributes.Criticality",
          "name": "minimumCriticality",
          "type": "uint8"
        },
        {
          "internalType": "int256",
          "name": "maximumThresold",
          "type": "int256"
        },
        {
          "internalType": "uint256",
          "name": "maximumViolationCount",
          "type": "uint256"
        },
        {
          "internalType": "enum DeviceDefaultAttributes.Criticality",
          "name": "maximumCriticality",
          "type": "uint8"
        }
      ],
      "payable": false,
      "stateMutability": "view",
      "type": "function"
    },
    {
      "constant": true,
      "inputs": [],
      "name": "getAllAttributeCount",
      "outputs": [
        {
          "internalType": "uint256",
          "name": "",
          "type": "uint256"
        }
      ],
      "payable": false,
      "stateMutability": "view",
      "type": "function"
    },
    {
      "constant": false,
      "inputs": [
        {
          "internalType": "string",
          "name": "_modelName",
          "type": "string"
        },
        {
          "internalType": "string",
          "name": "_attributeName",
          "type": "string"
        },
        {
          "internalType": "int256",
          "name": "_minimumThresold",
          "type": "int256"
        },
        {
          "internalType": "uint256",
          "name": "_minimumViolationCount",
          "type": "uint256"
        },
        {
          "internalType": "enum DeviceDefaultAttributes.Criticality",
          "name": "_minimumCriticality",
          "type": "uint8"
        },
        {
          "internalType": "int256",
          "name": "_maximumThresold",
          "type": "int256"
        },
        {
          "internalType": "uint256",
          "name": "_maximumViolationCount",
          "type": "uint256"
        },
        {
          "internalType": "enum DeviceDefaultAttributes.Criticality",
          "name": "_maximumCriticality",
          "type": "uint8"
        }
      ],
      "name": "addDefaultAttribute",
      "outputs": [],
      "payable": false,
      "stateMutability": "nonpayable",
      "type": "function"
    },
    {
      "constant": true,
      "inputs": [
        {
          "internalType": "string",
          "name": "_modelName",
          "type": "string"
        }
      ],
      "name": "getDefaulltAttributeIndicesByModelName",
      "outputs": [
        {
          "internalType": "string",
          "name": "",
          "type": "string"
        }
      ],
      "payable": false,
      "stateMutability": "view",
      "type": "function"
    },
    {
      "constant": true,
      "inputs": [
        {
          "internalType": "string",
          "name": "source",
          "type": "string"
        }
      ],
      "name": "stringToBytes32",
      "outputs": [
        {
          "internalType": "bytes32",
          "name": "result",
          "type": "bytes32"
        }
      ],
      "payable": false,
      "stateMutability": "pure",
      "type": "function"
    }
  ],
  "bytecode": "0x60806040523480156200001157600080fd5b50620000996040518060400160405280600b81526020017f52617370626572727950690000000000000000000000000000000000000000008152506040518060400160405280600a81526020017f617474726962757465310000000000000000000000000000000000000000000081525060646001600060c86002806200034c60201b60201c565b620001226040518060400160405280600b81526020017f52617370626572727950690000000000000000000000000000000000000000008152506040518060400160405280600a81526020017f617474726962757465320000000000000000000000000000000000000000000081525060c86003600061012c600460026200034c60201b60201c565b620001ac6040518060400160405280600b81526020017f52617370626572727950690000000000000000000000000000000000000000008152506040518060400160405280600a81526020017f6174747269627574653300000000000000000000000000000000000000000000815250610190600560006101f4600660026200034c60201b60201c565b620002336040518060400160405280600d81526020017f556e6b6e6f776e204d6f64656c000000000000000000000000000000000000008152506040518060400160405280600a81526020017f617474726962757465310000000000000000000000000000000000000000000081525060646001600060c86002806200034c60201b60201c565b620002bc6040518060400160405280600d81526020017f556e6b6e6f776e204d6f64656c000000000000000000000000000000000000008152506040518060400160405280600a81526020017f617474726962757465320000000000000000000000000000000000000000000081525060c86003600061012c600460026200034c60201b60201c565b620003466040518060400160405280600d81526020017f556e6b6e6f776e204d6f64656c000000000000000000000000000000000000008152506040518060400160405280600a81526020017f6174747269627574653300000000000000000000000000000000000000000000815250610190600560006101f4600660026200034c60201b60201c565b62000b6b565b6002600081548092919060010191905055506040518060e001604052808881526020018781526020018681526020018560028111156200038857fe5b8152602001848152602001838152602001826002811115620003a657fe5b81525060008060025481526020019081526020016000206000820151816000019080519060200190620003db92919062000a35565b50602082015181600101556040820151816002015560608201518160030160006101000a81548160ff021916908360028111156200041557fe5b02179055506080820151816004015560a0820151816005015560c08201518160060160006101000a81548160ff021916908360028111156200045357fe5b02179055509050506200057460016000620004748b620005b760201b60201c565b81526020019081526020016000208054600181600116156101000203166002900480601f0160208091040260200160405190810160405280929190818152602001828054600181600116156101000203166002900480156200051a5780601f10620004ee576101008083540402835291602001916200051a565b820191906000526020600020905b815481529060010190602001808311620004fc57829003601f168201915b50505050506040518060400160405280600181526020017f3a0000000000000000000000000000000000000000000000000000000000000081525062000568600254620005e460201b60201c565b6200071c60201b60201c565b60016000620005898b620005b760201b60201c565b81526020019081526020016000209080519060200190620005ac92919062000abc565b505050505050505050565b60006060829050600081511415620005d6576000801b915050620005df565b60208301519150505b919050565b606060008214156200062e576040518060400160405280600181526020017f3000000000000000000000000000000000000000000000000000000000000000815250905062000717565b600082905060005b600082146200065b578080600101915050600a82816200065257fe5b04915062000636565b6060816040519080825280601f01601f191660200182016040528015620006915781602001600182028038833980820191505090505b50905060006001830390505b600086146200070f57600a8681620006b157fe5b0660300160f81b82828060019003935081518110620006cc57fe5b60200101907effffffffffffffffffffffffffffffffffffffffffffffffffffffffffffff1916908160001a905350600a86816200070657fe5b0495506200069d565b819450505050505b919050565b60606200075184848460405180602001604052806000815250604051806020016040528060008152506200075a60201b60201c565b90509392505050565b6060808690506060869050606086905060608690506060869050606081518351855187518951010101016040519080825280601f01601f191660200182016040528015620007b75781602001600182028038833980820191505090505b5090506060819050600080905060008090505b88518110156200083c57888181518110620007e157fe5b602001015160f81c60f81b838380600101945081518110620007ff57fe5b60200101907effffffffffffffffffffffffffffffffffffffffffffffffffffffffffffff1916908160001a9053508080600101915050620007ca565b5060008090505b8751811015620008b5578781815181106200085a57fe5b602001015160f81c60f81b8383806001019450815181106200087857fe5b60200101907effffffffffffffffffffffffffffffffffffffffffffffffffffffffffffff1916908160001a905350808060010191505062000843565b5060008090505b86518110156200092e57868181518110620008d357fe5b602001015160f81c60f81b838380600101945081518110620008f157fe5b60200101907effffffffffffffffffffffffffffffffffffffffffffffffffffffffffffff1916908160001a9053508080600101915050620008bc565b5060008090505b8551811015620009a7578581815181106200094c57fe5b602001015160f81c60f81b8383806001019450815181106200096a57fe5b60200101907effffffffffffffffffffffffffffffffffffffffffffffffffffffffffffff1916908160001a905350808060010191505062000935565b5060008090505b845181101562000a2057848181518110620009c557fe5b602001015160f81c60f81b838380600101945081518110620009e357fe5b60200101907effffffffffffffffffffffffffffffffffffffffffffffffffffffffffffff1916908160001a9053508080600101915050620009ae565b50819850505050505050505095945050505050565b828054600181600116156101000203166002900490600052602060002090601f016020900481019282601f1062000a7857805160ff191683800117855562000aa9565b8280016001018555821562000aa9579182015b8281111562000aa857825182559160200191906001019062000a8b565b5b50905062000ab8919062000b43565b5090565b828054600181600116156101000203166002900490600052602060002090601f016020900481019282601f1062000aff57805160ff191683800117855562000b30565b8280016001018555821562000b30579182015b8281111562000b2f57825182559160200191906001019062000b12565b5b50905062000b3f919062000b43565b5090565b62000b6891905b8082111562000b6457600081600090555060010162000b4a565b5090565b90565b6110098062000b7b6000396000f3fe608060405234801561001057600080fd5b50600436106100625760003560e01c80635824c896146100675780636a90815214610085578063bdc6a76014610172578063cfb5192814610307578063d6d20eba146103d6578063f4941b6d1461050a575b600080fd5b61006f6105b1565b6040518082815260200191505060405180910390f35b6100b16004803603602081101561009b57600080fd5b81019080803590602001909291905050506105bb565b60405180806020018881526020018781526020018660028111156100d157fe5b60ff1681526020018581526020018481526020018360028111156100f157fe5b60ff168152602001828103825289818151815260200191508051906020019080838360005b83811015610131578082015181840152602081019050610116565b50505050905090810190601f16801561015e5780820380516001836020036101000a031916815260200191505b509850505050505050505060405180910390f35b610305600480360361010081101561018957600080fd5b81019080803590602001906401000000008111156101a657600080fd5b8201836020820111156101b857600080fd5b803590602001918460018302840111640100000000831117156101da57600080fd5b91908080601f016020809104026020016040519081016040528093929190818152602001838380828437600081840152601f19601f8201169050808301925050505050505091929192908035906020019064010000000081111561023d57600080fd5b82018360208201111561024f57600080fd5b8035906020019184600183028401116401000000008311171561027157600080fd5b91908080601f016020809104026020016040519081016040528093929190818152602001838380828437600081840152601f19601f8201169050808301925050505050505091929192908035906020019092919080359060200190929190803560ff1690602001909291908035906020019092919080359060200190929190803560ff1690602001909291905050506106af565b005b6103c06004803603602081101561031d57600080fd5b810190808035906020019064010000000081111561033a57600080fd5b82018360208201111561034c57600080fd5b8035906020019184600183028401116401000000008311171561036e57600080fd5b91908080601f016020809104026020016040519081016040528093929190818152602001838380828437600081840152601f19601f8201169050808301925050505050505091929192905050506108ee565b6040518082815260200191505060405180910390f35b61048f600480360360208110156103ec57600080fd5b810190808035906020019064010000000081111561040957600080fd5b82018360208201111561041b57600080fd5b8035906020019184600183028401116401000000008311171561043d57600080fd5b91908080601f016020809104026020016040519081016040528093929190818152602001838380828437600081840152601f19601f820116905080830192505050505050509192919290505050610919565b6040518080602001828103825283818151815260200191508051906020019080838360005b838110156104cf5780820151818401526020810190506104b4565b50505050905090810190601f1680156104fc5780820380516001836020036101000a031916815260200191505b509250505060405180910390f35b6105366004803603602081101561052057600080fd5b81019080803590602001909291905050506109d6565b6040518080602001828103825283818151815260200191508051906020019080838360005b8381101561057657808201518184015260208101905061055b565b50505050905090810190601f1680156105a35780820380516001836020036101000a031916815260200191505b509250505060405180910390f35b6000600254905090565b6000602052806000526040600020600091509050806000018054600181600116156101000203166002900480601f0160208091040260200160405190810160405280929190818152602001828054600181600116156101000203166002900480156106675780601f1061063c57610100808354040283529160200191610667565b820191906000526020600020905b81548152906001019060200180831161064a57829003601f168201915b5050505050908060010154908060020154908060030160009054906101000a900460ff16908060040154908060050154908060060160009054906101000a900460ff16905087565b6002600081548092919060010191905055506040518060e001604052808881526020018781526020018681526020018560028111156106ea57fe5b815260200184815260200183815260200182600281111561070757fe5b8152506000806002548152602001908152602001600020600082015181600001908051906020019061073a929190610eaf565b50602082015181600101556040820151816002015560608201518160030160006101000a81548160ff0219169083600281111561077357fe5b02179055506080820151816004015560a0820151816005015560c08201518160060160006101000a81548160ff021916908360028111156107b057fe5b02179055509050506108b5600160006107c88b6108ee565b81526020019081526020016000208054600181600116156101000203166002900480601f01602080910402602001604051908101604052809291908181526020018280546001816001161561010002031660029004801561086a5780601f1061083f5761010080835404028352916020019161086a565b820191906000526020600020905b81548152906001019060200180831161084d57829003601f168201915b50505050506040518060400160405280600181526020017f3a000000000000000000000000000000000000000000000000000000000000008152506108b0600254610a86565b610bb3565b600160006108c28b6108ee565b815260200190815260200160002090805190602001906108e3929190610f2f565b505050505050505050565b6000606082905060008151141561090b576000801b915050610914565b60208301519150505b919050565b606060016000610928846108ee565b81526020019081526020016000208054600181600116156101000203166002900480601f0160208091040260200160405190810160405280929190818152602001828054600181600116156101000203166002900480156109ca5780601f1061099f576101008083540402835291602001916109ca565b820191906000526020600020905b8154815290600101906020018083116109ad57829003601f168201915b50505050509050919050565b60016020528060005260406000206000915090508054600181600116156101000203166002900480601f016020809104026020016040519081016040528092919081815260200182805460018160011615610100020316600290048015610a7e5780601f10610a5357610100808354040283529160200191610a7e565b820191906000526020600020905b815481529060010190602001808311610a6157829003601f168201915b505050505081565b60606000821415610ace576040518060400160405280600181526020017f30000000000000000000000000000000000000000000000000000000000000008152509050610bae565b600082905060005b60008214610af8578080600101915050600a8281610af057fe5b049150610ad6565b6060816040519080825280601f01601f191660200182016040528015610b2d5781602001600182028038833980820191505090505b50905060006001830390505b60008614610ba657600a8681610b4b57fe5b0660300160f81b82828060019003935081518110610b6557fe5b60200101907effffffffffffffffffffffffffffffffffffffffffffffffffffffffffffff1916908160001a905350600a8681610b9e57fe5b049550610b39565b819450505050505b919050565b6060610be08484846040518060200160405280600081525060405180602001604052806000815250610be9565b90509392505050565b6060808690506060869050606086905060608690506060869050606081518351855187518951010101016040519080825280601f01601f191660200182016040528015610c455781602001600182028038833980820191505090505b5090506060819050600080905060008090505b8851811015610cc657888181518110610c6d57fe5b602001015160f81c60f81b838380600101945081518110610c8a57fe5b60200101907effffffffffffffffffffffffffffffffffffffffffffffffffffffffffffff1916908160001a9053508080600101915050610c58565b5060008090505b8751811015610d3b57878181518110610ce257fe5b602001015160f81c60f81b838380600101945081518110610cff57fe5b60200101907effffffffffffffffffffffffffffffffffffffffffffffffffffffffffffff1916908160001a9053508080600101915050610ccd565b5060008090505b8651811015610db057868181518110610d5757fe5b602001015160f81c60f81b838380600101945081518110610d7457fe5b60200101907effffffffffffffffffffffffffffffffffffffffffffffffffffffffffffff1916908160001a9053508080600101915050610d42565b5060008090505b8551811015610e2557858181518110610dcc57fe5b602001015160f81c60f81b838380600101945081518110610de957fe5b60200101907effffffffffffffffffffffffffffffffffffffffffffffffffffffffffffff1916908160001a9053508080600101915050610db7565b5060008090505b8451811015610e9a57848181518110610e4157fe5b602001015160f81c60f81b838380600101945081518110610e5e57fe5b60200101907effffffffffffffffffffffffffffffffffffffffffffffffffffffffffffff1916908160001a9053508080600101915050610e2c565b50819850505050505050505095945050505050565b828054600181600116156101000203166002900490600052602060002090601f016020900481019282601f10610ef057805160ff1916838001178555610f1e565b82800160010185558215610f1e579182015b82811115610f1d578251825591602001919060010190610f02565b5b509050610f2b9190610faf565b5090565b828054600181600116156101000203166002900490600052602060002090601f016020900481019282601f10610f7057805160ff1916838001178555610f9e565b82800160010185558215610f9e579182015b82811115610f9d578251825591602001919060010190610f82565b5b509050610fab9190610faf565b5090565b610fd191905b80821115610fcd576000816000905550600101610fb5565b5090565b9056fea265627a7a72315820ac7ac66a355fd57063c17486cb75756b2892680440322e052f56fd71fdaba0a164736f6c634300050c0032",
  "source": "pragma solidity ^0.5.12;\n\ncontract DeviceDefaultAttributes {\n  enum Criticality {LOW, MEDIUM, HIGH}\n\n  struct Attribute {\n    // Attribute name\n    string name;\n\n    // Minimum thresuld data\n    int256 minimunThreshold;\n    uint256 minimunViolationCount;\n    Criticality minimumCriticality;\n\n    // Maximum thresuld data\n    int256 maximumThresold;\n    uint256 maximumViolationCount;\n    Criticality maximumCriticality;\n  }\n\n  // Store & fetch Attributes\n  mapping(uint => Attribute) public defaultAttributes;\n\n  // Get all default attributes which belong to a specific model\n  mapping(bytes32 => string) public defaulltAttributeIndicesByModelName;\n\n  // Store default attributes count\n  uint defaultAttributeCount;\n\n  constructor() public {\n    // Model 1\n    addDefaultAttribute(\n      \"RaspberryPi\", \"attribute1\",\n      100, 1, Criticality.LOW,\n      200, 2, Criticality.HIGH\n    );\n\n    addDefaultAttribute(\n      \"RaspberryPi\", \"attribute2\",\n      200, 3, Criticality.LOW,\n      300, 4, Criticality.HIGH\n    );\n    addDefaultAttribute(\n      \"RaspberryPi\", \"attribute3\",\n      400, 5, Criticality.LOW,\n      500, 6, Criticality.HIGH\n    );\n\n    // Model 2\n    addDefaultAttribute(\n      \"Unknown Model\", \"attribute1\",\n      100, 1, Criticality.LOW,\n      200, 2, Criticality.HIGH\n    );\n\n    addDefaultAttribute(\n      \"Unknown Model\", \"attribute2\",\n      200, 3, Criticality.LOW,\n      300, 4, Criticality.HIGH\n    );\n    addDefaultAttribute(\n      \"Unknown Model\", \"attribute3\",\n      400, 5, Criticality.LOW,\n      500, 6, Criticality.HIGH\n    );\n  }\n\n  function getAllAttributeCount() public view returns (uint) {\n    return defaultAttributeCount;\n  }\n\n  function addDefaultAttribute(\n    string memory _modelName,\n    string memory _attributeName,\n    int256 _minimumThresold, uint256 _minimumViolationCount, Criticality _minimumCriticality,\n    int256 _maximumThresold, uint256 _maximumViolationCount, Criticality _maximumCriticality\n  ) public {\n    defaultAttributeCount ++;\n\n    // Add attribute to default attributes list\n    defaultAttributes[defaultAttributeCount] = Attribute(\n      _attributeName,\n      _minimumThresold, _minimumViolationCount, _minimumCriticality,\n      _maximumThresold, _maximumViolationCount, _maximumCriticality\n    );\n\n    // Add attrbute index to its model\n    defaulltAttributeIndicesByModelName[stringToBytes32(_modelName)] = strConcat(\n      defaulltAttributeIndicesByModelName[stringToBytes32(_modelName)],\n      \":\",\n      uint2str(defaultAttributeCount)\n    );\n  }\n\n  function getDefaulltAttributeIndicesByModelName(string memory _modelName) public view returns (string memory) {\n    return defaulltAttributeIndicesByModelName[stringToBytes32(_modelName)];\n  }\n\n  function strConcat(string memory _a, string memory _b, string memory _c, string memory _d, string memory _e) internal pure returns (string memory){\n    bytes memory _ba = bytes(_a);\n    bytes memory _bb = bytes(_b);\n    bytes memory _bc = bytes(_c);\n    bytes memory _bd = bytes(_d);\n    bytes memory _be = bytes(_e);\n    string memory abcde = new string(_ba.length + _bb.length + _bc.length + _bd.length + _be.length);\n    bytes memory babcde = bytes(abcde);\n    uint k = 0;\n    for (uint i = 0; i < _ba.length; i++) babcde[k++] = _ba[i];\n    for (uint i = 0; i < _bb.length; i++) babcde[k++] = _bb[i];\n    for (uint i = 0; i < _bc.length; i++) babcde[k++] = _bc[i];\n    for (uint i = 0; i < _bd.length; i++) babcde[k++] = _bd[i];\n    for (uint i = 0; i < _be.length; i++) babcde[k++] = _be[i];\n    return string(babcde);\n  }\n\n  function strConcat(string memory _a, string memory _b, string memory _c, string memory _d) internal pure returns (string memory) {\n    return strConcat(_a, _b, _c, _d, \"\");\n  }\n\n  function strConcat(string memory _a, string memory _b, string memory _c) internal pure returns (string memory) {\n    return strConcat(_a, _b, _c, \"\", \"\");\n  }\n\n  function strConcat(string memory _a, string memory _b) internal pure returns (string memory) {\n    return strConcat(_a, _b, \"\", \"\", \"\");\n  }\n\n  function uint2str(uint i) internal pure returns (string memory){\n    if (i == 0) return \"0\";\n    uint j = i;\n    uint length;\n    while (j != 0) {\n      length++;\n      j /= 10;\n    }\n    bytes memory bstr = new bytes(length);\n    uint k = length - 1;\n    while (i != 0) {\n      bstr[k--] = byte(uint8(48 + i % 10));\n      i /= 10;\n    }\n    return string(bstr);\n  }\n\n  function stringToBytes32(string memory source) public pure returns (bytes32 result) {\n    bytes memory tempEmptyStringTest = bytes(source);\n    if (tempEmptyStringTest.length == 0) {\n      return 0x0;\n    }\n\n    assembly {\n      result := mload(add(source, 32))\n    }\n  }\n}",
  "sourcePath": "/Users/shirin/Desktop/Thesis/Implementation/MSc-Thesis/Implementation/thesis-front/contracts/DeviceDefaultAttributes.sol",
  "compiler": {
    "name": "solc",
    "version": "0.5.12+commit.7709ece9.Emscripten.clang"
  },
  "schemaVersion": "3.0.15",
  "updatedAt": "2019-10-19T17:18:01.953Z",
  "devdoc": {
    "methods": {}
  },
  "userdoc": {
    "methods": {}
  }
}