{
  "contractName": "DeviceProfiles",
  "abi": [
    {
      "inputs": [
        {
          "internalType": "address",
          "name": "_addy",
          "type": "address"
        }
      ],
      "payable": false,
      "stateMutability": "nonpayable",
      "type": "constructor"
    },
    {
      "constant": true,
      "inputs": [],
      "name": "called_address",
      "outputs": [
        {
          "internalType": "contract DeviceDefaultAttribute",
          "name": "",
          "type": "address"
        }
      ],
      "payable": false,
      "stateMutability": "view",
      "type": "function"
    },
    {
      "constant": true,
      "inputs": [
        {
          "internalType": "uint256",
          "name": "",
          "type": "uint256"
        }
      ],
      "name": "devices",
      "outputs": [
        {
          "internalType": "uint256",
          "name": "deviceId",
          "type": "uint256"
        },
        {
          "internalType": "string",
          "name": "deviceIp",
          "type": "string"
        },
        {
          "internalType": "string",
          "name": "deviceModel",
          "type": "string"
        },
        {
          "internalType": "uint256",
          "name": "samplingRateMinute",
          "type": "uint256"
        },
        {
          "internalType": "string",
          "name": "softwareIpfsHash",
          "type": "string"
        },
        {
          "internalType": "uint256",
          "name": "attributeCount",
          "type": "uint256"
        }
      ],
      "payable": false,
      "stateMutability": "view",
      "type": "function"
    },
    {
      "constant": true,
      "inputs": [],
      "name": "devicesCount",
      "outputs": [
        {
          "internalType": "uint256",
          "name": "",
          "type": "uint256"
        }
      ],
      "payable": false,
      "stateMutability": "view",
      "type": "function"
    },
    {
      "constant": true,
      "inputs": [],
      "name": "callDeviceDefaultAttributeMethod",
      "outputs": [
        {
          "internalType": "string",
          "name": "",
          "type": "string"
        }
      ],
      "payable": false,
      "stateMutability": "view",
      "type": "function"
    },
    {
      "constant": false,
      "inputs": [
        {
          "internalType": "string",
          "name": "_ip",
          "type": "string"
        },
        {
          "internalType": "string",
          "name": "_model",
          "type": "string"
        },
        {
          "internalType": "uint256",
          "name": "_samplingRateMinute",
          "type": "uint256"
        }
      ],
      "name": "addDevice",
      "outputs": [],
      "payable": false,
      "stateMutability": "nonpayable",
      "type": "function"
    },
    {
      "constant": false,
      "inputs": [
        {
          "internalType": "uint256",
          "name": "_deviceId",
          "type": "uint256"
        },
        {
          "internalType": "string",
          "name": "_name",
          "type": "string"
        },
        {
          "internalType": "int256",
          "name": "_minimunThreshold",
          "type": "int256"
        },
        {
          "internalType": "uint256",
          "name": "_minimunViolationCount",
          "type": "uint256"
        },
        {
          "internalType": "enum DeviceDefaultAttribute.Criticality",
          "name": "_minimumCriticality",
          "type": "uint8"
        },
        {
          "internalType": "int256",
          "name": "_maximumThresold",
          "type": "int256"
        },
        {
          "internalType": "uint256",
          "name": "_maximumViolationCount",
          "type": "uint256"
        },
        {
          "internalType": "enum DeviceDefaultAttribute.Criticality",
          "name": "_maximumCriticality",
          "type": "uint8"
        }
      ],
      "name": "addAttributeToDeviceById",
      "outputs": [
        {
          "internalType": "uint256",
          "name": "",
          "type": "uint256"
        }
      ],
      "payable": false,
      "stateMutability": "nonpayable",
      "type": "function"
    },
    {
      "constant": true,
      "inputs": [
        {
          "internalType": "uint256",
          "name": "_deviceId",
          "type": "uint256"
        }
      ],
      "name": "getDeviceAttributes",
      "outputs": [
        {
          "components": [
            {
              "internalType": "string",
              "name": "name",
              "type": "string"
            },
            {
              "internalType": "int256",
              "name": "minimunThreshold",
              "type": "int256"
            },
            {
              "internalType": "uint256",
              "name": "minimunViolationCount",
              "type": "uint256"
            },
            {
              "internalType": "enum DeviceDefaultAttribute.Criticality",
              "name": "minimumCriticality",
              "type": "uint8"
            },
            {
              "internalType": "int256",
              "name": "maximumThresold",
              "type": "int256"
            },
            {
              "internalType": "uint256",
              "name": "maximumViolationCount",
              "type": "uint256"
            },
            {
              "internalType": "enum DeviceDefaultAttribute.Criticality",
              "name": "maximumCriticality",
              "type": "uint8"
            }
          ],
          "internalType": "struct DeviceDefaultAttribute.Attribute[]",
          "name": "",
          "type": "tuple[]"
        }
      ],
      "payable": false,
      "stateMutability": "view",
      "type": "function"
    }
  ],
  "bytecode": "0x60806040523480156200001157600080fd5b5060405162001ea438038062001ea483398181016040526200003791908101906200089c565b806000806101000a81548173ffffffffffffffffffffffffffffffffffffffff021916908373ffffffffffffffffffffffffffffffffffffffff160217905550620000f56040518060400160405280600781526020017f312e312e312e31000000000000000000000000000000000000000000000000008152506040518060400160405280600781526020017f6d6f64656c2031000000000000000000000000000000000000000000000000008152506001620001a860201b60201c565b6200014a60016040518060400160405280601081526020017f617474726962757465206e616d6520310000000000000000000000000000000081525060c86002600061019060026000620004b860201b60201c565b50620001a060016040518060400160405280601081526020017f617474726962757465206e616d6520320000000000000000000000000000000081525060c86002600061019060026000620004b860201b60201c565b505062000916565b600160008154809291906001019190505550620001c4620006bd565b6002600060015481526020019081526020016000206040518060c001604052908160008201548152602001600182018054600181600116156101000203166002900480601f0160208091040260200160405190810160405280929190818152602001828054600181600116156101000203166002900480156200028b5780601f106200025f576101008083540402835291602001916200028b565b820191906000526020600020905b8154815290600101906020018083116200026d57829003601f168201915b50505050508152602001600282018054600181600116156101000203166002900480601f016020809104026020016040519081016040528092919081815260200182805460018160011615610100020316600290048015620003315780601f10620003055761010080835404028352916020019162000331565b820191906000526020600020905b8154815290600101906020018083116200031357829003601f168201915b5050505050815260200160038201548152602001600482018054600181600116156101000203166002900480601f016020809104026020016040519081016040528092919081815260200182805460018160011615610100020316600290048015620003e15780601f10620003b557610100808354040283529160200191620003e1565b820191906000526020600020905b815481529060010190602001808311620003c357829003601f168201915b50505050508152602001600582015481525050905060015481600001818152505083816020018190525082816040018190525081816060018181525050806002600060015481526020019081526020016000206000820151816000015560208201518160010190805190602001906200045c929190620006f3565b5060408201518160020190805190602001906200047b929190620006f3565b50606082015181600301556080820151816004019080519060200190620004a4929190620006f3565b5060a0820151816005015590505050505050565b600080600260008b81526020019081526020016000209050600081600501549050600181018260050181905550620004ef6200077a565b6040518060e001604052808c81526020018b81526020018a81526020018960028111156200051957fe5b81526020018881526020018781526020018660028111156200053757fe5b81525090508083600601600085600501548152602001908152602001600020600082015181600001908051906020019062000574929190620006f3565b50602082015181600101556040820151816002015560608201518160030160006101000a81548160ff02191690836002811115620005ae57fe5b02179055506080820151816004015560a0820151816005015560c08201518160060160006101000a81548160ff02191690836002811115620005ec57fe5b021790555090505082600260008e815260200190815260200160002060008201548160000155600182018160010190805460018160011615610100020316600290046200063b929190620007cf565b506002820181600201908054600181600116156101000203166002900462000665929190620007cf565b50600382015481600301556004820181600401908054600181600116156101000203166002900462000699929190620007cf565b50600582015481600501559050508260050154935050505098975050505050505050565b6040518060c001604052806000815260200160608152602001606081526020016000815260200160608152602001600081525090565b828054600181600116156101000203166002900490600052602060002090601f016020900481019282601f106200073657805160ff191683800117855562000767565b8280016001018555821562000767579182015b828111156200076657825182559160200191906001019062000749565b5b5090506200077691906200085d565b5090565b6040518060e0016040528060608152602001600081526020016000815260200160006002811115620007a857fe5b8152602001600081526020016000815260200160006002811115620007c957fe5b81525090565b828054600181600116156101000203166002900490600052602060002090601f016020900481019282601f106200080a57805485556200084a565b828001600101855582156200084a57600052602060002091601f016020900482015b82811115620008495782548255916001019190600101906200082c565b5b5090506200085991906200085d565b5090565b6200088291905b808211156200087e57600081600090555060010162000864565b5090565b90565b6000815190506200089681620008fc565b92915050565b600060208284031215620008af57600080fd5b6000620008bf8482850162000885565b91505092915050565b6000620008d582620008dc565b9050919050565b600073ffffffffffffffffffffffffffffffffffffffff82169050919050565b6200090781620008c8565b81146200091357600080fd5b50565b61157e80620009266000396000f3fe608060405234801561001057600080fd5b506004361061007d5760003560e01c806381700fd61161005b57806381700fd614610103578063a05edf5414610121578063ab40c6851461013f578063c820f0191461016f5761007d565b806310ff8e3114610082578063195bc254146100b7578063363621a5146100e7575b600080fd5b61009c60048036036100979190810190610ef8565b61018d565b6040516100ae969594939291906112e0565b60405180910390f35b6100d160048036036100cc9190810190610f21565b610391565b6040516100de91906112c5565b60405180910390f35b61010160048036036100fc9190810190610e79565b610588565b005b61010b610884565b6040516101189190611283565b60405180910390f35b610129610938565b60405161013691906112c5565b60405180910390f35b61015960048036036101549190810190610ef8565b61093e565b6040516101669190611246565b60405180910390f35b610177610b24565b6040516101849190611268565b60405180910390f35b6002602052806000526040600020600091509050806000015490806001018054600181600116156101000203166002900480601f01602080910402602001604051908101604052809291908181526020018280546001816001161561010002031660029004801561023f5780601f106102145761010080835404028352916020019161023f565b820191906000526020600020905b81548152906001019060200180831161022257829003601f168201915b505050505090806002018054600181600116156101000203166002900480601f0160208091040260200160405190810160405280929190818152602001828054600181600116156101000203166002900480156102dd5780601f106102b2576101008083540402835291602001916102dd565b820191906000526020600020905b8154815290600101906020018083116102c057829003601f168201915b505050505090806003015490806004018054600181600116156101000203166002900480601f0160208091040260200160405190810160405280929190818152602001828054600181600116156101000203166002900480156103815780601f1061035657610100808354040283529160200191610381565b820191906000526020600020905b81548152906001019060200180831161036457829003601f168201915b5050505050908060050154905086565b600080600260008b815260200190815260200160002090506000816005015490506001810182600501819055506103c6610b49565b6040518060e001604052808c81526020018b81526020018a81526020018960028111156103ef57fe5b815260200188815260200187815260200186600281111561040c57fe5b815250905080836006016000856005015481526020019081526020016000206000820151816000019080519060200190610447929190610b9c565b50602082015181600101556040820151816002015560608201518160030160006101000a81548160ff0219169083600281111561048057fe5b02179055506080820151816004015560a0820151816005015560c08201518160060160006101000a81548160ff021916908360028111156104bd57fe5b021790555090505082600260008e8152602001908152602001600020600082015481600001556001820181600101908054600181600116156101000203166002900461050a929190610c1c565b5060028201816002019080546001816001161561010002031660029004610532929190610c1c565b506003820154816003015560048201816004019080546001816001161561010002031660029004610564929190610c1c565b50600582015481600501559050508260050154935050505098975050505050505050565b6001600081548092919060010191905055506105a2610ca3565b6002600060015481526020019081526020016000206040518060c001604052908160008201548152602001600182018054600181600116156101000203166002900480601f0160208091040260200160405190810160405280929190818152602001828054600181600116156101000203166002900480156106655780601f1061063a57610100808354040283529160200191610665565b820191906000526020600020905b81548152906001019060200180831161064857829003601f168201915b50505050508152602001600282018054600181600116156101000203166002900480601f0160208091040260200160405190810160405280929190818152602001828054600181600116156101000203166002900480156107075780601f106106dc57610100808354040283529160200191610707565b820191906000526020600020905b8154815290600101906020018083116106ea57829003601f168201915b5050505050815260200160038201548152602001600482018054600181600116156101000203166002900480601f0160208091040260200160405190810160405280929190818152602001828054600181600116156101000203166002900480156107b35780601f10610788576101008083540402835291602001916107b3565b820191906000526020600020905b81548152906001019060200180831161079657829003601f168201915b505050505081526020016005820154815250509050600154816000018181525050838160200181905250828160400181905250818160600181815250508060026000600154815260200190815260200160002060008201518160000155602082015181600101908051906020019061082c929190610b9c565b506040820151816002019080519060200190610849929190610b9c565b50606082015181600301556080820151816004019080519060200190610870929190610b9c565b5060a0820151816005015590505050505050565b60606000809054906101000a900473ffffffffffffffffffffffffffffffffffffffff1673ffffffffffffffffffffffffffffffffffffffff1663d6d20eba6040518163ffffffff1660e01b81526004016108de906112a5565b60006040518083038186803b1580156108f657600080fd5b505afa15801561090a573d6000803e3d6000fd5b505050506040513d6000823e3d601f19601f820116820180604052506109339190810190610e38565b905090565b60015481565b6060600060026000848152602001908152602001600020905060008160050154905060608160405190808252806020026020018201604052801561099c57816020015b610989610cd9565b8152602001906001900390816109815790505b5090506000600190505b828111610b18578360060160008281526020019081526020016000206040518060e0016040529081600082018054600181600116156101000203166002900480601f016020809104026020016040519081016040528092919081815260200182805460018160011615610100020316600290048015610a665780601f10610a3b57610100808354040283529160200191610a66565b820191906000526020600020905b815481529060010190602001808311610a4957829003601f168201915b5050505050815260200160018201548152602001600282015481526020016003820160009054906101000a900460ff166002811115610aa157fe5b6002811115610aac57fe5b815260200160048201548152602001600582015481526020016006820160009054906101000a900460ff166002811115610ae257fe5b6002811115610aed57fe5b81525050826001830381518110610b0057fe5b602002602001018190525080806001019150506109a6565b50809350505050919050565b6000809054906101000a900473ffffffffffffffffffffffffffffffffffffffff1681565b6040518060e0016040528060608152602001600081526020016000815260200160006002811115610b7657fe5b8152602001600081526020016000815260200160006002811115610b9657fe5b81525090565b828054600181600116156101000203166002900490600052602060002090601f016020900481019282601f10610bdd57805160ff1916838001178555610c0b565b82800160010185558215610c0b579182015b82811115610c0a578251825591602001919060010190610bef565b5b509050610c189190610d2c565b5090565b828054600181600116156101000203166002900490600052602060002090601f016020900481019282601f10610c555780548555610c92565b82800160010185558215610c9257600052602060002091601f016020900482015b82811115610c91578254825591600101919060010190610c76565b5b509050610c9f9190610d2c565b5090565b6040518060c001604052806000815260200160608152602001606081526020016000815260200160608152602001600081525090565b6040518060e0016040528060608152602001600081526020016000815260200160006002811115610d0657fe5b8152602001600081526020016000815260200160006002811115610d2657fe5b81525090565b610d4e91905b80821115610d4a576000816000905550600101610d32565b5090565b90565b600081359050610d60816114fd565b92915050565b600081359050610d758161150d565b92915050565b600082601f830112610d8c57600080fd5b8135610d9f610d9a82611383565b611356565b91508082526020830160208301858383011115610dbb57600080fd5b610dc683828461149d565b50505092915050565b600082601f830112610de057600080fd5b8151610df3610dee82611383565b611356565b91508082526020830160208301858383011115610e0f57600080fd5b610e1a8382846114ac565b50505092915050565b600081359050610e3281611524565b92915050565b600060208284031215610e4a57600080fd5b600082015167ffffffffffffffff811115610e6457600080fd5b610e7084828501610dcf565b91505092915050565b600080600060608486031215610e8e57600080fd5b600084013567ffffffffffffffff811115610ea857600080fd5b610eb486828701610d7b565b935050602084013567ffffffffffffffff811115610ed157600080fd5b610edd86828701610d7b565b9250506040610eee86828701610e23565b9150509250925092565b600060208284031215610f0a57600080fd5b6000610f1884828501610e23565b91505092915050565b600080600080600080600080610100898b031215610f3e57600080fd5b6000610f4c8b828c01610e23565b985050602089013567ffffffffffffffff811115610f6957600080fd5b610f758b828c01610d7b565b9750506040610f868b828c01610d66565b9650506060610f978b828c01610e23565b9550506080610fa88b828c01610d51565b94505060a0610fb98b828c01610d66565b93505060c0610fca8b828c01610e23565b92505060e0610fdb8b828c01610d51565b9150509295985092959890939650565b6000610ff7838361118c565b905092915050565b600061100a826113bf565b61101481856113ed565b935083602082028501611026856113af565b8060005b8581101561106257848403895281516110438582610feb565b945061104e836113e0565b925060208a0199505060018101905061102a565b50829750879550505050505092915050565b61107d81611467565b82525050565b61108c8161148b565b82525050565b61109b81611433565b82525050565b60006110ac826113d5565b6110b6818561140f565b93506110c68185602086016114ac565b6110cf816114df565b840191505092915050565b60006110e5826113ca565b6110ef81856113fe565b93506110ff8185602086016114ac565b611108816114df565b840191505092915050565b600061111e826113ca565b611128818561140f565b93506111388185602086016114ac565b611141816114df565b840191505092915050565b6000611159600b8361140f565b91507f52617370626572727950690000000000000000000000000000000000000000006000830152602082019050919050565b600060e08301600083015184820360008601526111a982826110da565b91505060208301516111be6020860182611092565b5060408301516111d16040860182611228565b5060608301516111e46060860182611083565b5060808301516111f76080860182611092565b5060a083015161120a60a0860182611228565b5060c083015161121d60c0860182611083565b508091505092915050565b6112318161145d565b82525050565b6112408161145d565b82525050565b600060208201905081810360008301526112608184610fff565b905092915050565b600060208201905061127d6000830184611074565b92915050565b6000602082019050818103600083015261129d81846110a1565b905092915050565b600060208201905081810360008301526112be8161114c565b9050919050565b60006020820190506112da6000830184611237565b92915050565b600060c0820190506112f56000830189611237565b81810360208301526113078188611113565b9050818103604083015261131b8187611113565b905061132a6060830186611237565b818103608083015261133c8185611113565b905061134b60a0830184611237565b979650505050505050565b6000604051905081810181811067ffffffffffffffff8211171561137957600080fd5b8060405250919050565b600067ffffffffffffffff82111561139a57600080fd5b601f19601f8301169050602081019050919050565b6000819050602082019050919050565b600081519050919050565b600081519050919050565b600081519050919050565b6000602082019050919050565b600082825260208201905092915050565b600082825260208201905092915050565b600082825260208201905092915050565b600081905061142e826114f0565b919050565b6000819050919050565b600073ffffffffffffffffffffffffffffffffffffffff82169050919050565b6000819050919050565b600061147282611479565b9050919050565b60006114848261143d565b9050919050565b600061149682611420565b9050919050565b82818337600083830152505050565b60005b838110156114ca5780820151818401526020810190506114af565b838111156114d9576000848401525b50505050565b6000601f19601f8301169050919050565b600381106114fa57fe5b50565b6003811061150a57600080fd5b50565b61151681611433565b811461152157600080fd5b50565b61152d8161145d565b811461153857600080fd5b5056fea365627a7a72315820f7b3a5609b122f0ee054161b3a5acaaa8e14fe160176efda68335a8575c4f0586c6578706572696d656e74616cf564736f6c634300050c0040",
  "source": "pragma experimental ABIEncoderV2;\npragma solidity ^0.5.12;\n\ncontract DeviceDefaultAttribute{\n  enum Criticality {LOW, MEDIUM, HIGH}\n\n  struct Attribute {\n    string name;\n    int256 minimunThreshold;\n    uint256 minimunViolationCount;\n    Criticality minimumCriticality;\n    int256 maximumThresold;\n    uint256 maximumViolationCount;\n    Criticality maximumCriticality;\n  }\n\n  function getAllAttributeCount() public view returns (uint);\n\n  function addDefaultAttribute(\n    string memory _modelName,\n    string memory _attributeName,\n    int256 _minimumThresold, uint256 _minimumViolationCount, Criticality _minimumCriticality,\n    int256 _maximumThresold, uint256 _maximumViolationCount, Criticality _maximumCriticality\n  ) public;\n\n  function getDefaulltAttributeIndicesByModelName(string memory _modelName) public view returns (string memory);\n}\n\ncontract DeviceProfiles {\n\n  DeviceDefaultAttribute public called_address;\n\n  struct Device {\n    // Store device info (id, ip, model)\n    uint deviceId;\n    string deviceIp;\n    string deviceModel;\n\n    // Interval time for sampling data in minutes\n    uint samplingRateMinute;\n\n    // Store ipfs hash code of device's model software\n    string softwareIpfsHash;\n\n    // Store attributes count\n    uint attributeCount;\n\n    // Store & fetch Attributes\n    mapping(uint => DeviceDefaultAttribute.Attribute) attributes;\n\n    // Get ipfs hash code of each attribute monitoring data (by attribute name)\n    mapping(string => string) attributeNameDataIpfsHashMap;\n  }\n\n  // Store devices count\n  uint public devicesCount;\n\n  // Store & fetch devices\n  mapping (uint => Device) public devices;\n\n  constructor (address _addy) public {\n    called_address = DeviceDefaultAttribute(_addy);\n\n    // Remove these lines\n    addDevice(\"1.1.1.1\", \"model 1\", 1);\n    addAttributeToDeviceById(\n      1,\n      \"attribute name 1\",\n      200,\n      2,\n      DeviceDefaultAttribute.Criticality.LOW,\n      400,\n      2,\n      DeviceDefaultAttribute.Criticality.LOW\n    );\n    addAttributeToDeviceById(\n      1,\n      \"attribute name 2\",\n      200,\n      2,\n      DeviceDefaultAttribute.Criticality.LOW,\n      400,\n      2,\n      DeviceDefaultAttribute.Criticality.LOW\n    );\n  }\n\n  function callDeviceDefaultAttributeMethod() public view returns(string memory){\n    return called_address.getDefaulltAttributeIndicesByModelName(\"RaspberryPi\");\n  }\n\n  function addDevice(\n    string memory _ip,\n    string memory _model,\n    uint _samplingRateMinute\n  ) public {\n    devicesCount ++;\n    Device memory device = devices[devicesCount];\n    device.deviceId = devicesCount;\n    device.deviceIp = _ip;\n    device.deviceModel = _model;\n    device.samplingRateMinute = _samplingRateMinute;\n    devices[devicesCount] = device;\n  }\n\n  function addAttributeToDeviceById(\n    uint _deviceId,\n    string memory _name,\n    int256 _minimunThreshold,\n    uint256 _minimunViolationCount,\n    DeviceDefaultAttribute.Criticality _minimumCriticality,\n    int256 _maximumThresold,\n    uint256 _maximumViolationCount,\n    DeviceDefaultAttribute.Criticality _maximumCriticality\n  ) public returns (uint256){\n    Device storage device = devices[_deviceId];\n    uint counter = device.attributeCount;\n    device.attributeCount = counter + 1;\n    DeviceDefaultAttribute.Attribute memory attribute =\n    DeviceDefaultAttribute.Attribute(\n      _name,\n      _minimunThreshold,\n      _minimunViolationCount,\n      _minimumCriticality,\n      _maximumThresold,\n      _maximumViolationCount,\n      _maximumCriticality\n    );\n    device.attributes[device.attributeCount] = attribute;\n    devices[_deviceId] = device;\n    return device.attributeCount;\n  }\n\n  function getDeviceAttributes (uint _deviceId)\n  public view\n  returns (\n    DeviceDefaultAttribute.Attribute[] memory\n  ){\n    Device storage device = devices[_deviceId];\n    uint size = device.attributeCount;\n    DeviceDefaultAttribute.Attribute[] memory attributes = new DeviceDefaultAttribute.Attribute[](size);\n    for (uint i = 1; i <= size; i++) {\n      attributes[i - 1] = device.attributes[i];\n    }\n    return attributes;\n  }\n}",
  "sourcePath": "/Users/shirin/Desktop/Thesis/Implementation/MSc-Thesis/Implementation/thesis-front/contracts/DeviceProfiles.sol",
  "compiler": {
    "name": "solc",
    "version": "0.5.12+commit.7709ece9.Emscripten.clang"
  },
  "schemaVersion": "3.0.15",
  "updatedAt": "2019-10-19T17:45:01.503Z",
  "devdoc": {
    "methods": {}
  },
  "userdoc": {
    "methods": {}
  }
}