{
  "contractName": "Users",
  "abi": [
    {
      "inputs": [],
      "payable": false,
      "stateMutability": "nonpayable",
      "type": "constructor"
    },
    {
      "constant": true,
      "inputs": [
        {
          "internalType": "uint256",
          "name": "",
          "type": "uint256"
        }
      ],
      "name": "devices",
      "outputs": [
        {
          "internalType": "uint256",
          "name": "index",
          "type": "uint256"
        },
        {
          "internalType": "string",
          "name": "id",
          "type": "string"
        },
        {
          "internalType": "string",
          "name": "deviceName",
          "type": "string"
        },
        {
          "internalType": "string",
          "name": "userId",
          "type": "string"
        }
      ],
      "payable": false,
      "stateMutability": "view",
      "type": "function"
    },
    {
      "constant": true,
      "inputs": [],
      "name": "devicesCount",
      "outputs": [
        {
          "internalType": "uint256",
          "name": "",
          "type": "uint256"
        }
      ],
      "payable": false,
      "stateMutability": "view",
      "type": "function"
    },
    {
      "constant": true,
      "inputs": [
        {
          "internalType": "bytes32",
          "name": "",
          "type": "bytes32"
        }
      ],
      "name": "devicesIndicesByUserId",
      "outputs": [
        {
          "internalType": "string",
          "name": "",
          "type": "string"
        }
      ],
      "payable": false,
      "stateMutability": "view",
      "type": "function"
    },
    {
      "constant": true,
      "inputs": [
        {
          "internalType": "uint256",
          "name": "",
          "type": "uint256"
        }
      ],
      "name": "userIdByDeviceIndex",
      "outputs": [
        {
          "internalType": "string",
          "name": "",
          "type": "string"
        }
      ],
      "payable": false,
      "stateMutability": "view",
      "type": "function"
    },
    {
      "constant": true,
      "inputs": [],
      "name": "getDevicesCount",
      "outputs": [
        {
          "internalType": "uint256",
          "name": "",
          "type": "uint256"
        }
      ],
      "payable": false,
      "stateMutability": "view",
      "type": "function"
    },
    {
      "constant": false,
      "inputs": [
        {
          "internalType": "string",
          "name": "_id",
          "type": "string"
        },
        {
          "internalType": "string",
          "name": "_deviceName",
          "type": "string"
        },
        {
          "internalType": "string",
          "name": "_userId",
          "type": "string"
        }
      ],
      "name": "addDevice",
      "outputs": [],
      "payable": false,
      "stateMutability": "nonpayable",
      "type": "function"
    },
    {
      "constant": true,
      "inputs": [
        {
          "internalType": "string",
          "name": "_userId",
          "type": "string"
        }
      ],
      "name": "getDeviceIndicesByUserId",
      "outputs": [
        {
          "internalType": "string",
          "name": "",
          "type": "string"
        }
      ],
      "payable": false,
      "stateMutability": "view",
      "type": "function"
    },
    {
      "constant": true,
      "inputs": [
        {
          "internalType": "string",
          "name": "source",
          "type": "string"
        }
      ],
      "name": "stringToBytes32",
      "outputs": [
        {
          "internalType": "bytes32",
          "name": "result",
          "type": "bytes32"
        }
      ],
      "payable": false,
      "stateMutability": "pure",
      "type": "function"
    }
  ],
  "bytecode": "0x608060405234801561001057600080fd5b50611364806100206000396000f3fe608060405234801561001057600080fd5b50600436106100885760003560e01c80638c8aeb191161005b5780638c8aeb19146104c1578063a05edf5414610568578063a5649b4d14610586578063cfb51928146106ba57610088565b806310ff8e311461008d5780633449fc60146102135780636c3a0355146103fc5780637c8fb03b1461041a575b600080fd5b6100b9600480360360208110156100a357600080fd5b8101908080359060200190929190505050610789565b60405180858152602001806020018060200180602001848103845287818151815260200191508051906020019080838360005b838110156101075780820151818401526020810190506100ec565b50505050905090810190601f1680156101345780820380516001836020036101000a031916815260200191505b50848103835286818151815260200191508051906020019080838360005b8381101561016d578082015181840152602081019050610152565b50505050905090810190601f16801561019a5780820380516001836020036101000a031916815260200191505b50848103825285818151815260200191508051906020019080838360005b838110156101d35780820151818401526020810190506101b8565b50505050905090810190601f1680156102005780820380516001836020036101000a031916815260200191505b5097505050505050505060405180910390f35b6103fa6004803603606081101561022957600080fd5b810190808035906020019064010000000081111561024657600080fd5b82018360208201111561025857600080fd5b8035906020019184600183028401116401000000008311171561027a57600080fd5b91908080601f016020809104026020016040519081016040528093929190818152602001838380828437600081840152601f19601f820116905080830192505050505050509192919290803590602001906401000000008111156102dd57600080fd5b8201836020820111156102ef57600080fd5b8035906020019184600183028401116401000000008311171561031157600080fd5b91908080601f016020809104026020016040519081016040528093929190818152602001838380828437600081840152601f19601f8201169050808301925050505050505091929192908035906020019064010000000081111561037457600080fd5b82018360208201111561038657600080fd5b803590602001918460018302840111640100000000831117156103a857600080fd5b91908080601f016020809104026020016040519081016040528093929190818152602001838380828437600081840152601f19601f820116905080830192505050505050509192919290505050610981565b005b610404610b89565b6040518082815260200191505060405180910390f35b6104466004803603602081101561043057600080fd5b8101908080359060200190929190505050610b93565b6040518080602001828103825283818151815260200191508051906020019080838360005b8381101561048657808201518184015260208101905061046b565b50505050905090810190601f1680156104b35780820380516001836020036101000a031916815260200191505b509250505060405180910390f35b6104ed600480360360208110156104d757600080fd5b8101908080359060200190929190505050610c43565b6040518080602001828103825283818151815260200191508051906020019080838360005b8381101561052d578082015181840152602081019050610512565b50505050905090810190601f16801561055a5780820380516001836020036101000a031916815260200191505b509250505060405180910390f35b610570610cf3565b6040518082815260200191505060405180910390f35b61063f6004803603602081101561059c57600080fd5b81019080803590602001906401000000008111156105b957600080fd5b8201836020820111156105cb57600080fd5b803590602001918460018302840111640100000000831117156105ed57600080fd5b91908080601f016020809104026020016040519081016040528093929190818152602001838380828437600081840152601f19601f820116905080830192505050505050509192919290505050610cf9565b6040518080602001828103825283818151815260200191508051906020019080838360005b8381101561067f578082015181840152602081019050610664565b50505050905090810190601f1680156106ac5780820380516001836020036101000a031916815260200191505b509250505060405180910390f35b610773600480360360208110156106d057600080fd5b81019080803590602001906401000000008111156106ed57600080fd5b8201836020820111156106ff57600080fd5b8035906020019184600183028401116401000000008311171561072157600080fd5b91908080601f016020809104026020016040519081016040528093929190818152602001838380828437600081840152601f19601f820116905080830192505050505050509192919290505050610db6565b6040518082815260200191505060405180910390f35b6000602052806000526040600020600091509050806000015490806001018054600181600116156101000203166002900480601f01602080910402602001604051908101604052809291908181526020018280546001816001161561010002031660029004801561083b5780601f106108105761010080835404028352916020019161083b565b820191906000526020600020905b81548152906001019060200180831161081e57829003601f168201915b505050505090806002018054600181600116156101000203166002900480601f0160208091040260200160405190810160405280929190818152602001828054600181600116156101000203166002900480156108d95780601f106108ae576101008083540402835291602001916108d9565b820191906000526020600020905b8154815290600101906020018083116108bc57829003601f168201915b505050505090806003018054600181600116156101000203166002900480601f0160208091040260200160405190810160405280929190818152602001828054600181600116156101000203166002900480156109775780601f1061094c57610100808354040283529160200191610977565b820191906000526020600020905b81548152906001019060200180831161095a57829003601f168201915b5050505050905084565b600360008154809291906001019190505550604051806080016040528060035481526020018481526020018381526020018281525060008060035481526020019081526020016000206000820151816000015560208201518160010190805190602001906109f092919061120a565b506040820151816002019080519060200190610a0d92919061120a565b506060820151816003019080519060200190610a2a92919061120a565b50905050806001600060035481526020019081526020016000209080519060200190610a5792919061128a565b50610b5560026000610a6884610db6565b81526020019081526020016000208054600181600116156101000203166002900480601f016020809104026020016040519081016040528092919081815260200182805460018160011615610100020316600290048015610b0a5780601f10610adf57610100808354040283529160200191610b0a565b820191906000526020600020905b815481529060010190602001808311610aed57829003601f168201915b50505050506040518060400160405280600181526020017f3a00000000000000000000000000000000000000000000000000000000000000815250610b50600354610de1565b610f0e565b60026000610b6284610db6565b81526020019081526020016000209080519060200190610b8392919061128a565b50505050565b6000600354905090565b60026020528060005260406000206000915090508054600181600116156101000203166002900480601f016020809104026020016040519081016040528092919081815260200182805460018160011615610100020316600290048015610c3b5780601f10610c1057610100808354040283529160200191610c3b565b820191906000526020600020905b815481529060010190602001808311610c1e57829003601f168201915b505050505081565b60016020528060005260406000206000915090508054600181600116156101000203166002900480601f016020809104026020016040519081016040528092919081815260200182805460018160011615610100020316600290048015610ceb5780601f10610cc057610100808354040283529160200191610ceb565b820191906000526020600020905b815481529060010190602001808311610cce57829003601f168201915b505050505081565b60035481565b606060026000610d0884610db6565b81526020019081526020016000208054600181600116156101000203166002900480601f016020809104026020016040519081016040528092919081815260200182805460018160011615610100020316600290048015610daa5780601f10610d7f57610100808354040283529160200191610daa565b820191906000526020600020905b815481529060010190602001808311610d8d57829003601f168201915b50505050509050919050565b60006060829050600081511415610dd3576000801b915050610ddc565b60208301519150505b919050565b60606000821415610e29576040518060400160405280600181526020017f30000000000000000000000000000000000000000000000000000000000000008152509050610f09565b600082905060005b60008214610e53578080600101915050600a8281610e4b57fe5b049150610e31565b6060816040519080825280601f01601f191660200182016040528015610e885781602001600182028038833980820191505090505b50905060006001830390505b60008614610f0157600a8681610ea657fe5b0660300160f81b82828060019003935081518110610ec057fe5b60200101907effffffffffffffffffffffffffffffffffffffffffffffffffffffffffffff1916908160001a905350600a8681610ef957fe5b049550610e94565b819450505050505b919050565b6060610f3b8484846040518060200160405280600081525060405180602001604052806000815250610f44565b90509392505050565b6060808690506060869050606086905060608690506060869050606081518351855187518951010101016040519080825280601f01601f191660200182016040528015610fa05781602001600182028038833980820191505090505b5090506060819050600080905060008090505b885181101561102157888181518110610fc857fe5b602001015160f81c60f81b838380600101945081518110610fe557fe5b60200101907effffffffffffffffffffffffffffffffffffffffffffffffffffffffffffff1916908160001a9053508080600101915050610fb3565b5060008090505b87518110156110965787818151811061103d57fe5b602001015160f81c60f81b83838060010194508151811061105a57fe5b60200101907effffffffffffffffffffffffffffffffffffffffffffffffffffffffffffff1916908160001a9053508080600101915050611028565b5060008090505b865181101561110b578681815181106110b257fe5b602001015160f81c60f81b8383806001019450815181106110cf57fe5b60200101907effffffffffffffffffffffffffffffffffffffffffffffffffffffffffffff1916908160001a905350808060010191505061109d565b5060008090505b85518110156111805785818151811061112757fe5b602001015160f81c60f81b83838060010194508151811061114457fe5b60200101907effffffffffffffffffffffffffffffffffffffffffffffffffffffffffffff1916908160001a9053508080600101915050611112565b5060008090505b84518110156111f55784818151811061119c57fe5b602001015160f81c60f81b8383806001019450815181106111b957fe5b60200101907effffffffffffffffffffffffffffffffffffffffffffffffffffffffffffff1916908160001a9053508080600101915050611187565b50819850505050505050505095945050505050565b828054600181600116156101000203166002900490600052602060002090601f016020900481019282601f1061124b57805160ff1916838001178555611279565b82800160010185558215611279579182015b8281111561127857825182559160200191906001019061125d565b5b509050611286919061130a565b5090565b828054600181600116156101000203166002900490600052602060002090601f016020900481019282601f106112cb57805160ff19168380011785556112f9565b828001600101855582156112f9579182015b828111156112f85782518255916020019190600101906112dd565b5b509050611306919061130a565b5090565b61132c91905b80821115611328576000816000905550600101611310565b5090565b9056fea265627a7a72315820357b2b712a0f85db0f8b02377e4170a3a45fd5c84cfda48163baf69293dfc06064736f6c634300050c0032",
  "source": "pragma solidity ^0.5.12;\n\ncontract Users {\n\n  // Model devices - View mode\n  struct Device {\n    uint index;\n    string id;\n    string deviceName;\n    string userId;\n  }\n\n  // Store & fetch devices\n  mapping(uint => Device) public devices;\n\n  // Get user id of each device by device id\n  mapping(uint => string) public userIdByDeviceIndex;\n\n  // Get all devices which belong to a specific userId\n  mapping(bytes32 => string) public devicesIndicesByUserId;\n\n  // Store devices count\n  uint public devicesCount;\n\n  function getDevicesCount() public view returns (uint) {\n    return devicesCount;\n  }\n\n  // Constructor\n  constructor() public {}\n\n  // Add device\n  function addDevice(string memory _id, string memory _deviceName, string memory _userId) public {\n    devicesCount ++;\n    devices[devicesCount] = Device(devicesCount, _id, _deviceName, _userId);\n    userIdByDeviceIndex[devicesCount] = _userId;\n    devicesIndicesByUserId[stringToBytes32(_userId)] = strConcat(devicesIndicesByUserId[stringToBytes32(_userId)], \":\", uint2str(devicesCount));\n  }\n\n  function getDeviceIndicesByUserId(string memory _userId) public view returns (string memory) {\n    return devicesIndicesByUserId[stringToBytes32(_userId)];\n  }\n\n  function strConcat(string memory _a, string memory _b, string memory _c, string memory _d, string memory _e) internal pure returns (string memory){\n    bytes memory _ba = bytes(_a);\n    bytes memory _bb = bytes(_b);\n    bytes memory _bc = bytes(_c);\n    bytes memory _bd = bytes(_d);\n    bytes memory _be = bytes(_e);\n    string memory abcde = new string(_ba.length + _bb.length + _bc.length + _bd.length + _be.length);\n    bytes memory babcde = bytes(abcde);\n    uint k = 0;\n    for (uint i = 0; i < _ba.length; i++) babcde[k++] = _ba[i];\n    for (uint i = 0; i < _bb.length; i++) babcde[k++] = _bb[i];\n    for (uint i = 0; i < _bc.length; i++) babcde[k++] = _bc[i];\n    for (uint i = 0; i < _bd.length; i++) babcde[k++] = _bd[i];\n    for (uint i = 0; i < _be.length; i++) babcde[k++] = _be[i];\n    return string(babcde);\n  }\n\n  function strConcat(string memory _a, string memory _b, string memory _c, string memory _d) internal pure returns (string memory) {\n    return strConcat(_a, _b, _c, _d, \"\");\n  }\n\n  function strConcat(string memory _a, string memory _b, string memory _c) internal pure returns (string memory) {\n    return strConcat(_a, _b, _c, \"\", \"\");\n  }\n\n  function strConcat(string memory _a, string memory _b) internal pure returns (string memory) {\n    return strConcat(_a, _b, \"\", \"\", \"\");\n  }\n\n  function uint2str(uint i) internal pure returns (string memory){\n    if (i == 0) return \"0\";\n    uint j = i;\n    uint length;\n    while (j != 0) {\n      length++;\n      j /= 10;\n    }\n    bytes memory bstr = new bytes(length);\n    uint k = length - 1;\n    while (i != 0) {\n      bstr[k--] = byte(uint8(48 + i % 10));\n      i /= 10;\n    }\n    return string(bstr);\n  }\n\n  function stringToBytes32(string memory source) public pure returns (bytes32 result) {\n    bytes memory tempEmptyStringTest = bytes(source);\n    if (tempEmptyStringTest.length == 0) {\n      return 0x0;\n    }\n\n    assembly {\n      result := mload(add(source, 32))\n    }\n  }\n}",
  "sourcePath": "/Users/shirin/Desktop/Thesis/Implementation/MSc-Thesis/Implementation/thesis-front/contracts/Users.sol",
  "compiler": {
    "name": "solc",
    "version": "0.5.12+commit.7709ece9.Emscripten.clang"
  },
  "schemaVersion": "3.0.15",
  "updatedAt": "2019-10-19T22:27:46.448Z",
  "devdoc": {
    "methods": {}
  },
  "userdoc": {
    "methods": {}
  }
}