{
  "contractName": "Users",
  "abi": [
    {
      "constant": true,
      "inputs": [
        {
          "name": "",
          "type": "uint256"
        }
      ],
      "name": "devices",
      "outputs": [
        {
          "name": "index",
          "type": "uint256"
        },
        {
          "name": "id",
          "type": "string"
        },
        {
          "name": "deviceName",
          "type": "string"
        },
        {
          "name": "userId",
          "type": "string"
        }
      ],
      "payable": false,
      "stateMutability": "view",
      "type": "function"
    },
    {
      "constant": true,
      "inputs": [
        {
          "name": "",
          "type": "bytes32"
        }
      ],
      "name": "devicesIndicesByUserId",
      "outputs": [
        {
          "name": "",
          "type": "string"
        }
      ],
      "payable": false,
      "stateMutability": "view",
      "type": "function"
    },
    {
      "constant": true,
      "inputs": [
        {
          "name": "",
          "type": "uint256"
        }
      ],
      "name": "userIdByDeviceIndex",
      "outputs": [
        {
          "name": "",
          "type": "string"
        }
      ],
      "payable": false,
      "stateMutability": "view",
      "type": "function"
    },
    {
      "constant": true,
      "inputs": [],
      "name": "devicesCount",
      "outputs": [
        {
          "name": "",
          "type": "uint256"
        }
      ],
      "payable": false,
      "stateMutability": "view",
      "type": "function"
    },
    {
      "constant": true,
      "inputs": [],
      "name": "getDevicesCount",
      "outputs": [
        {
          "name": "",
          "type": "uint256"
        }
      ],
      "payable": false,
      "stateMutability": "view",
      "type": "function"
    },
    {
      "constant": false,
      "inputs": [],
      "name": "constructor",
      "outputs": [],
      "payable": false,
      "stateMutability": "nonpayable",
      "type": "function"
    },
    {
      "constant": false,
      "inputs": [
        {
          "name": "_id",
          "type": "string"
        },
        {
          "name": "_deviceName",
          "type": "string"
        },
        {
          "name": "_userId",
          "type": "string"
        }
      ],
      "name": "addDevice",
      "outputs": [],
      "payable": false,
      "stateMutability": "nonpayable",
      "type": "function"
    },
    {
      "constant": true,
      "inputs": [
        {
          "name": "_userId",
          "type": "string"
        }
      ],
      "name": "getDeviceIndicesByUserId",
      "outputs": [
        {
          "name": "",
          "type": "string"
        }
      ],
      "payable": false,
      "stateMutability": "view",
      "type": "function"
    },
    {
      "constant": false,
      "inputs": [
        {
          "name": "source",
          "type": "string"
        }
      ],
      "name": "stringToBytes32",
      "outputs": [
        {
          "name": "result",
          "type": "bytes32"
        }
      ],
      "payable": false,
      "stateMutability": "nonpayable",
      "type": "function"
    }
  ],
  "bytecode": "0x608060405234801561001057600080fd5b506113a4806100206000396000f300608060405260043610610099576000357c0100000000000000000000000000000000000000000000000000000000900463ffffffff16806310ff8e311461009e5780633449fc60146102235780636c3a0355146103185780637c8fb03b146103435780638c8aeb19146103ed57806390fa17bb14610493578063a05edf54146104aa578063a5649b4d146104d5578063cfb51928146105b7575b600080fd5b3480156100aa57600080fd5b506100c96004803603810190808035906020019092919050505061063c565b60405180858152602001806020018060200180602001848103845287818151815260200191508051906020019080838360005b838110156101175780820151818401526020810190506100fc565b50505050905090810190601f1680156101445780820380516001836020036101000a031916815260200191505b50848103835286818151815260200191508051906020019080838360005b8381101561017d578082015181840152602081019050610162565b50505050905090810190601f1680156101aa5780820380516001836020036101000a031916815260200191505b50848103825285818151815260200191508051906020019080838360005b838110156101e35780820151818401526020810190506101c8565b50505050905090810190601f1680156102105780820380516001836020036101000a031916815260200191505b5097505050505050505060405180910390f35b34801561022f57600080fd5b50610316600480360381019080803590602001908201803590602001908080601f0160208091040260200160405190810160405280939291908181526020018383808284378201915050505050509192919290803590602001908201803590602001908080601f0160208091040260200160405190810160405280939291908181526020018383808284378201915050505050509192919290803590602001908201803590602001908080601f0160208091040260200160405190810160405280939291908181526020018383808284378201915050505050509192919290505050610834565b005b34801561032457600080fd5b5061032d610a4d565b6040518082815260200191505060405180910390f35b34801561034f57600080fd5b506103726004803603810190808035600019169060200190929190505050610a57565b6040518080602001828103825283818151815260200191508051906020019080838360005b838110156103b2578082015181840152602081019050610397565b50505050905090810190601f1680156103df5780820380516001836020036101000a031916815260200191505b509250505060405180910390f35b3480156103f957600080fd5b5061041860048036038101908080359060200190929190505050610b07565b6040518080602001828103825283818151815260200191508051906020019080838360005b8381101561045857808201518184015260208101905061043d565b50505050905090810190601f1680156104855780820380516001836020036101000a031916815260200191505b509250505060405180910390f35b34801561049f57600080fd5b506104a8610bb7565b005b3480156104b657600080fd5b506104bf610bb9565b6040518082815260200191505060405180910390f35b3480156104e157600080fd5b5061053c600480360381019080803590602001908201803590602001908080601f0160208091040260200160405190810160405280939291908181526020018383808284378201915050505050509192919290505050610bbf565b6040518080602001828103825283818151815260200191508051906020019080838360005b8381101561057c578082015181840152602081019050610561565b50505050905090810190601f1680156105a95780820380516001836020036101000a031916815260200191505b509250505060405180910390f35b3480156105c357600080fd5b5061061e600480360381019080803590602001908201803590602001908080601f0160208091040260200160405190810160405280939291908181526020018383808284378201915050505050509192919290505050610c84565b60405180826000191660001916815260200191505060405180910390f35b6000602052806000526040600020600091509050806000015490806001018054600181600116156101000203166002900480601f0160208091040260200160405190810160405280929190818152602001828054600181600116156101000203166002900480156106ee5780601f106106c3576101008083540402835291602001916106ee565b820191906000526020600020905b8154815290600101906020018083116106d157829003601f168201915b505050505090806002018054600181600116156101000203166002900480601f01602080910402602001604051908101604052809291908181526020018280546001816001161561010002031660029004801561078c5780601f106107615761010080835404028352916020019161078c565b820191906000526020600020905b81548152906001019060200180831161076f57829003601f168201915b505050505090806003018054600181600116156101000203166002900480601f01602080910402602001604051908101604052809291908181526020018280546001816001161561010002031660029004801561082a5780601f106107ff5761010080835404028352916020019161082a565b820191906000526020600020905b81548152906001019060200180831161080d57829003601f168201915b5050505050905084565b60036000815480929190600101919050555060806040519081016040528060035481526020018481526020018381526020018281525060008060035481526020019081526020016000206000820151816000015560208201518160010190805190602001906108a4929190611253565b5060408201518160020190805190602001906108c1929190611253565b5060608201518160030190805190602001906108de929190611253565b5090505080600160006003548152602001908152602001600020908051906020019061090b9291906112d3565b50610a116002600061091c84610c84565b600019166000191681526020019081526020016000208054600181600116156101000203166002900480601f0160208091040260200160405190810160405280929190818152602001828054600181600116156101000203166002900480156109c65780601f1061099b576101008083540402835291602001916109c6565b820191906000526020600020905b8154815290600101906020018083116109a957829003601f168201915b50505050506040805190810160405280600181526020017f3a00000000000000000000000000000000000000000000000000000000000000815250610a0c600354610caf565b610e06565b60026000610a1e84610c84565b600019166000191681526020019081526020016000209080519060200190610a479291906112d3565b50505050565b6000600354905090565b60026020528060005260406000206000915090508054600181600116156101000203166002900480601f016020809104026020016040519081016040528092919081815260200182805460018160011615610100020316600290048015610aff5780601f10610ad457610100808354040283529160200191610aff565b820191906000526020600020905b815481529060010190602001808311610ae257829003601f168201915b505050505081565b60016020528060005260406000206000915090508054600181600116156101000203166002900480601f016020809104026020016040519081016040528092919081815260200182805460018160011615610100020316600290048015610baf5780601f10610b8457610100808354040283529160200191610baf565b820191906000526020600020905b815481529060010190602001808311610b9257829003601f168201915b505050505081565b565b60035481565b606060026000610bce84610c84565b600019166000191681526020019081526020016000208054600181600116156101000203166002900480601f016020809104026020016040519081016040528092919081815260200182805460018160011615610100020316600290048015610c785780601f10610c4d57610100808354040283529160200191610c78565b820191906000526020600020905b815481529060010190602001808311610c5b57829003601f168201915b50505050509050919050565b60006060829050600081511415610ca15760006001029150610ca9565b602083015191505b50919050565b60606000806060600080861415610cfd576040805190810160405280600181526020017f30000000000000000000000000000000000000000000000000000000000000008152509450610dfd565b8593505b600084141515610d27578280600101935050600a84811515610d1f57fe5b049350610d01565b826040519080825280601f01601f191660200182016040528015610d5a5781602001602082028038833980820191505090505b5091506001830390505b600086141515610df957600a86811515610d7a57fe5b066030017f010000000000000000000000000000000000000000000000000000000000000002828280600190039350815181101515610db557fe5b9060200101907effffffffffffffffffffffffffffffffffffffffffffffffffffffffffffff1916908160001a905350600a86811515610df157fe5b049550610d64565b8194505b50505050919050565b6060610e3584848460206040519081016040528060008152506020604051908101604052806000815250610e3e565b90509392505050565b6060806060806060806060806000808e98508d97508c96508b95508a94508451865188518a518c51010101016040519080825280601f01601f191660200182016040528015610e9c5781602001602082028038833980820191505090505b50935083925060009150600090505b8851811015610f5e578881815181101515610ec257fe5b9060200101517f010000000000000000000000000000000000000000000000000000000000000090047f0100000000000000000000000000000000000000000000000000000000000000028383806001019450815181101515610f2157fe5b9060200101907effffffffffffffffffffffffffffffffffffffffffffffffffffffffffffff1916908160001a9053508080600101915050610eab565b600090505b8751811015611016578781815181101515610f7a57fe5b9060200101517f010000000000000000000000000000000000000000000000000000000000000090047f0100000000000000000000000000000000000000000000000000000000000000028383806001019450815181101515610fd957fe5b9060200101907effffffffffffffffffffffffffffffffffffffffffffffffffffffffffffff1916908160001a9053508080600101915050610f63565b600090505b86518110156110ce57868181518110151561103257fe5b9060200101517f010000000000000000000000000000000000000000000000000000000000000090047f010000000000000000000000000000000000000000000000000000000000000002838380600101945081518110151561109157fe5b9060200101907effffffffffffffffffffffffffffffffffffffffffffffffffffffffffffff1916908160001a905350808060010191505061101b565b600090505b85518110156111865785818151811015156110ea57fe5b9060200101517f010000000000000000000000000000000000000000000000000000000000000090047f010000000000000000000000000000000000000000000000000000000000000002838380600101945081518110151561114957fe5b9060200101907effffffffffffffffffffffffffffffffffffffffffffffffffffffffffffff1916908160001a90535080806001019150506110d3565b600090505b845181101561123e5784818151811015156111a257fe5b9060200101517f010000000000000000000000000000000000000000000000000000000000000090047f010000000000000000000000000000000000000000000000000000000000000002838380600101945081518110151561120157fe5b9060200101907effffffffffffffffffffffffffffffffffffffffffffffffffffffffffffff1916908160001a905350808060010191505061118b565b82995050505050505050505095945050505050565b828054600181600116156101000203166002900490600052602060002090601f016020900481019282601f1061129457805160ff19168380011785556112c2565b828001600101855582156112c2579182015b828111156112c15782518255916020019190600101906112a6565b5b5090506112cf9190611353565b5090565b828054600181600116156101000203166002900490600052602060002090601f016020900481019282601f1061131457805160ff1916838001178555611342565b82800160010185558215611342579182015b82811115611341578251825591602001919060010190611326565b5b50905061134f9190611353565b5090565b61137591905b80821115611371576000816000905550600101611359565b5090565b905600a165627a7a723058209c418a62e3bcf7b5cb704992b3a462ceb70b3e705e5c8713674b366370cde40c0029",
  "source": "pragma solidity 0.4.24;\n\ncontract Users {\n\n  // Model devices - View mode\n  struct Device {\n    uint index;\n    string id;\n    string deviceName;\n    string userId;\n  }\n\n  // Store & fetch devices\n  mapping(uint => Device) public devices;\n\n  // Get user id of each device by device id\n  mapping(uint => string) public userIdByDeviceIndex;\n\n  // Get all devices which belong to a specific userId\n  mapping(bytes32 => string) public devicesIndicesByUserId;\n\n  // Store devices count\n  uint public devicesCount;\n\n  function getDevicesCount() public view returns (uint) {\n    return devicesCount;\n  }\n\n  // Constructor\n  function constructor() {}\n\n  // Add device\n  function addDevice(string _id, string _deviceName, string _userId) public {\n    devicesCount ++;\n    devices[devicesCount] = Device(devicesCount, _id, _deviceName, _userId);\n    userIdByDeviceIndex[devicesCount] = _userId;\n    devicesIndicesByUserId[stringToBytes32(_userId)] = strConcat(devicesIndicesByUserId[stringToBytes32(_userId)], \":\", uint2str(devicesCount));\n  }\n\n  function getDeviceIndicesByUserId(string _userId) public view returns (string) {\n    return devicesIndicesByUserId[stringToBytes32(_userId)];\n  }\n\n  function strConcat(string _a, string _b, string _c, string _d, string _e) internal returns (string){\n    bytes memory _ba = bytes(_a);\n    bytes memory _bb = bytes(_b);\n    bytes memory _bc = bytes(_c);\n    bytes memory _bd = bytes(_d);\n    bytes memory _be = bytes(_e);\n    string memory abcde = new string(_ba.length + _bb.length + _bc.length + _bd.length + _be.length);\n    bytes memory babcde = bytes(abcde);\n    uint k = 0;\n    for (uint i = 0; i < _ba.length; i++) babcde[k++] = _ba[i];\n    for (i = 0; i < _bb.length; i++) babcde[k++] = _bb[i];\n    for (i = 0; i < _bc.length; i++) babcde[k++] = _bc[i];\n    for (i = 0; i < _bd.length; i++) babcde[k++] = _bd[i];\n    for (i = 0; i < _be.length; i++) babcde[k++] = _be[i];\n    return string(babcde);\n  }\n\n  function strConcat(string _a, string _b, string _c, string _d) internal returns (string) {\n    return strConcat(_a, _b, _c, _d, \"\");\n  }\n\n  function strConcat(string _a, string _b, string _c) internal returns (string) {\n    return strConcat(_a, _b, _c, \"\", \"\");\n  }\n\n  function strConcat(string _a, string _b) internal returns (string) {\n    return strConcat(_a, _b, \"\", \"\", \"\");\n  }\n\n  function uint2str(uint i) internal pure returns (string){\n    if (i == 0) return \"0\";\n    uint j = i;\n    uint length;\n    while (j != 0) {\n      length++;\n      j /= 10;\n    }\n    bytes memory bstr = new bytes(length);\n    uint k = length - 1;\n    while (i != 0) {\n      bstr[k--] = byte(48 + i % 10);\n      i /= 10;\n    }\n    return string(bstr);\n  }\n\n  function stringToBytes32(string memory source) returns (bytes32 result) {\n    bytes memory tempEmptyStringTest = bytes(source);\n    if (tempEmptyStringTest.length == 0) {\n      return 0x0;\n    }\n\n    assembly {\n      result := mload(add(source, 32))\n    }\n  }\n}",
  "sourcePath": "/Users/shirin/Desktop/Thesis/Implementation/MSc-Thesis/thesis-front/contracts/Users.sol",
  "compiler": {
    "name": "solc",
    "version": "0.4.24+commit.e67f0147.Emscripten.clang"
  },
  "schemaVersion": "3.0.15",
  "updatedAt": "2019-09-14T03:09:00.568Z",
  "devdoc": {
    "methods": {}
  },
  "userdoc": {
    "methods": {}
  }
}