{
  "contractName": "DeviceDefaultAttributes",
  "abi": [
    {
      "inputs": [],
      "payable": false,
      "stateMutability": "nonpayable",
      "type": "constructor"
    },
    {
      "constant": true,
      "inputs": [
        {
          "internalType": "bytes32",
          "name": "",
          "type": "bytes32"
        },
        {
          "internalType": "uint256",
          "name": "",
          "type": "uint256"
        }
      ],
      "name": "defaulltAttributeIndicesByModelName",
      "outputs": [
        {
          "internalType": "string",
          "name": "name",
          "type": "string"
        },
        {
          "internalType": "int256",
          "name": "minimunThreshold",
          "type": "int256"
        },
        {
          "internalType": "uint256",
          "name": "minimunViolationCount",
          "type": "uint256"
        },
        {
          "internalType": "enum DeviceDefaultAttributes.Criticality",
          "name": "minimumCriticality",
          "type": "uint8"
        },
        {
          "internalType": "int256",
          "name": "maximumThresold",
          "type": "int256"
        },
        {
          "internalType": "uint256",
          "name": "maximumViolationCount",
          "type": "uint256"
        },
        {
          "internalType": "enum DeviceDefaultAttributes.Criticality",
          "name": "maximumCriticality",
          "type": "uint8"
        }
      ],
      "payable": false,
      "stateMutability": "view",
      "type": "function"
    },
    {
      "constant": true,
      "inputs": [
        {
          "internalType": "uint256",
          "name": "",
          "type": "uint256"
        }
      ],
      "name": "defaultAttributes",
      "outputs": [
        {
          "internalType": "string",
          "name": "name",
          "type": "string"
        },
        {
          "internalType": "int256",
          "name": "minimunThreshold",
          "type": "int256"
        },
        {
          "internalType": "uint256",
          "name": "minimunViolationCount",
          "type": "uint256"
        },
        {
          "internalType": "enum DeviceDefaultAttributes.Criticality",
          "name": "minimumCriticality",
          "type": "uint8"
        },
        {
          "internalType": "int256",
          "name": "maximumThresold",
          "type": "int256"
        },
        {
          "internalType": "uint256",
          "name": "maximumViolationCount",
          "type": "uint256"
        },
        {
          "internalType": "enum DeviceDefaultAttributes.Criticality",
          "name": "maximumCriticality",
          "type": "uint8"
        }
      ],
      "payable": false,
      "stateMutability": "view",
      "type": "function"
    },
    {
      "constant": true,
      "inputs": [],
      "name": "getAllAttributeCount",
      "outputs": [
        {
          "internalType": "uint256",
          "name": "",
          "type": "uint256"
        }
      ],
      "payable": false,
      "stateMutability": "view",
      "type": "function"
    },
    {
      "constant": false,
      "inputs": [
        {
          "internalType": "string",
          "name": "_modelName",
          "type": "string"
        },
        {
          "internalType": "string",
          "name": "_attributeName",
          "type": "string"
        },
        {
          "internalType": "int256",
          "name": "_minimumThresold",
          "type": "int256"
        },
        {
          "internalType": "uint256",
          "name": "_minimumViolationCount",
          "type": "uint256"
        },
        {
          "internalType": "enum DeviceDefaultAttributes.Criticality",
          "name": "_minimumCriticality",
          "type": "uint8"
        },
        {
          "internalType": "int256",
          "name": "_maximumThresold",
          "type": "int256"
        },
        {
          "internalType": "uint256",
          "name": "_maximumViolationCount",
          "type": "uint256"
        },
        {
          "internalType": "enum DeviceDefaultAttributes.Criticality",
          "name": "_maximumCriticality",
          "type": "uint8"
        }
      ],
      "name": "addDefaultAttribute",
      "outputs": [],
      "payable": false,
      "stateMutability": "nonpayable",
      "type": "function"
    },
    {
      "constant": true,
      "inputs": [
        {
          "internalType": "string",
          "name": "_modelName",
          "type": "string"
        }
      ],
      "name": "getDefaulltAttributeIndicesByModelName",
      "outputs": [
        {
          "components": [
            {
              "internalType": "string",
              "name": "name",
              "type": "string"
            },
            {
              "internalType": "int256",
              "name": "minimunThreshold",
              "type": "int256"
            },
            {
              "internalType": "uint256",
              "name": "minimunViolationCount",
              "type": "uint256"
            },
            {
              "internalType": "enum DeviceDefaultAttributes.Criticality",
              "name": "minimumCriticality",
              "type": "uint8"
            },
            {
              "internalType": "int256",
              "name": "maximumThresold",
              "type": "int256"
            },
            {
              "internalType": "uint256",
              "name": "maximumViolationCount",
              "type": "uint256"
            },
            {
              "internalType": "enum DeviceDefaultAttributes.Criticality",
              "name": "maximumCriticality",
              "type": "uint8"
            }
          ],
          "internalType": "struct DeviceDefaultAttributes.Attribute[]",
          "name": "",
          "type": "tuple[]"
        }
      ],
      "payable": false,
      "stateMutability": "view",
      "type": "function"
    },
    {
      "constant": true,
      "inputs": [
        {
          "internalType": "string",
          "name": "source",
          "type": "string"
        }
      ],
      "name": "stringToBytes32",
      "outputs": [
        {
          "internalType": "bytes32",
          "name": "result",
          "type": "bytes32"
        }
      ],
      "payable": false,
      "stateMutability": "pure",
      "type": "function"
    }
  ],
  "bytecode": "0x60806040523480156200001157600080fd5b50620000996040518060400160405280600b81526020017f52617370626572727950690000000000000000000000000000000000000000008152506040518060400160405280600a81526020017f617474726962757465310000000000000000000000000000000000000000000081525060646001600060c86002806200034c60201b60201c565b620001226040518060400160405280600b81526020017f52617370626572727950690000000000000000000000000000000000000000008152506040518060400160405280600a81526020017f617474726962757465320000000000000000000000000000000000000000000081525060c86003600061012c600460026200034c60201b60201c565b620001ac6040518060400160405280600b81526020017f52617370626572727950690000000000000000000000000000000000000000008152506040518060400160405280600a81526020017f6174747269627574653300000000000000000000000000000000000000000000815250610190600560006101f4600660026200034c60201b60201c565b620002336040518060400160405280600d81526020017f556e6b6e6f776e204d6f64656c000000000000000000000000000000000000008152506040518060400160405280600a81526020017f617474726962757465310000000000000000000000000000000000000000000081525060646001600060c86002806200034c60201b60201c565b620002bc6040518060400160405280600d81526020017f556e6b6e6f776e204d6f64656c000000000000000000000000000000000000008152506040518060400160405280600a81526020017f617474726962757465320000000000000000000000000000000000000000000081525060c86003600061012c600460026200034c60201b60201c565b620003466040518060400160405280600d81526020017f556e6b6e6f776e204d6f64656c000000000000000000000000000000000000008152506040518060400160405280600a81526020017f6174747269627574653300000000000000000000000000000000000000000000815250610190600560006101f4600660026200034c60201b60201c565b620006db565b6002600081548092919060010191905055506040518060e001604052808881526020018781526020018681526020018560028111156200038857fe5b8152602001848152602001838152602001826002811115620003a657fe5b81525060008060025481526020019081526020016000206000820151816000019080519060200190620003db929190620005d7565b50602082015181600101556040820151816002015560608201518160030160006101000a81548160ff021916908360028111156200041557fe5b02179055506080820151816004015560a0820151816005015560c08201518160060160006101000a81548160ff021916908360028111156200045357fe5b0217905550905050620004656200065e565b6040518060e001604052808981526020018881526020018781526020018660028111156200048f57fe5b8152602001858152602001848152602001836002811115620004ad57fe5b815250905060016000620004c78b620005aa60201b60201c565b8152602001908152602001600020819080600181540180825580915050906001820390600052602060002090600702016000909192909190915060008201518160000190805190602001906200051f929190620005d7565b50602082015181600101556040820151816002015560608201518160030160006101000a81548160ff021916908360028111156200055957fe5b02179055506080820151816004015560a0820151816005015560c08201518160060160006101000a81548160ff021916908360028111156200059757fe5b0217905550505050505050505050505050565b60006060829050600081511415620005c9576000801b915050620005d2565b60208301519150505b919050565b828054600181600116156101000203166002900490600052602060002090601f016020900481019282601f106200061a57805160ff19168380011785556200064b565b828001600101855582156200064b579182015b828111156200064a5782518255916020019190600101906200062d565b5b5090506200065a9190620006b3565b5090565b6040518060e00160405280606081526020016000815260200160008152602001600060028111156200068c57fe5b8152602001600081526020016000815260200160006002811115620006ad57fe5b81525090565b620006d891905b80821115620006d4576000816000905550600101620006ba565b5090565b90565b610f7a80620006eb6000396000f3fe608060405234801561001057600080fd5b50600436106100625760003560e01c80633429063e146100675780635824c8961461009d5780636a908152146100bb578063bdc6a760146100f1578063cfb519281461010d578063d6d20eba1461013d575b600080fd5b610081600480360361007c919081019061092a565b61016d565b6040516100949796959493929190610cef565b60405180910390f35b6100a561027b565b6040516100b29190610d65565b60405180910390f35b6100d560048036036100d09190810190610a89565b610285565b6040516100e89796959493929190610cef565b60405180910390f35b61010b600480360361010691908101906109a7565b610379565b005b61012760048036036101229190810190610966565b6105c1565b6040516101349190610cd4565b60405180910390f35b61015760048036036101529190810190610966565b6105ec565b6040516101649190610cb2565b60405180910390f35b6001602052816000526040600020818154811061018657fe5b906000526020600020906007020160009150915050806000018054600181600116156101000203166002900480601f0160208091040260200160405190810160405280929190818152602001828054600181600116156101000203166002900480156102335780601f1061020857610100808354040283529160200191610233565b820191906000526020600020905b81548152906001019060200180831161021657829003601f168201915b5050505050908060010154908060020154908060030160009054906101000a900460ff16908060040154908060050154908060060160009054906101000a900460ff16905087565b6000600254905090565b6000602052806000526040600020600091509050806000018054600181600116156101000203166002900480601f0160208091040260200160405190810160405280929190818152602001828054600181600116156101000203166002900480156103315780601f1061030657610100808354040283529160200191610331565b820191906000526020600020905b81548152906001019060200180831161031457829003601f168201915b5050505050908060010154908060020154908060030160009054906101000a900460ff16908060040154908060050154908060060160009054906101000a900460ff16905087565b6002600081548092919060010191905055506040518060e001604052808881526020018781526020018681526020018560028111156103b457fe5b81526020018481526020018381526020018260028111156103d157fe5b8152506000806002548152602001908152602001600020600082015181600001908051906020019061040492919061078a565b50602082015181600101556040820151816002015560608201518160030160006101000a81548160ff0219169083600281111561043d57fe5b02179055506080820151816004015560a0820151816005015560c08201518160060160006101000a81548160ff0219169083600281111561047a57fe5b021790555090505061048a61080a565b6040518060e001604052808981526020018881526020018781526020018660028111156104b357fe5b81526020018581526020018481526020018360028111156104d057fe5b8152509050600160006104e28b6105c1565b81526020019081526020016000208190806001815401808255809150509060018203906000526020600020906007020160009091929091909150600082015181600001908051906020019061053892919061078a565b50602082015181600101556040820151816002015560608201518160030160006101000a81548160ff0219169083600281111561057157fe5b02179055506080820151816004015560a0820151816005015560c08201518160060160006101000a81548160ff021916908360028111156105ae57fe5b0217905550505050505050505050505050565b600060608290506000815114156105de576000801b9150506105e7565b60208301519150505b919050565b6060600160006105fb846105c1565b8152602001908152602001600020805480602002602001604051908101604052809291908181526020016000905b8282101561077f57838290600052602060002090600702016040518060e0016040529081600082018054600181600116156101000203166002900480601f0160208091040260200160405190810160405280929190818152602001828054600181600116156101000203166002900480156106e55780601f106106ba576101008083540402835291602001916106e5565b820191906000526020600020905b8154815290600101906020018083116106c857829003601f168201915b5050505050815260200160018201548152602001600282015481526020016003820160009054906101000a900460ff16600281111561072057fe5b600281111561072b57fe5b815260200160048201548152602001600582015481526020016006820160009054906101000a900460ff16600281111561076157fe5b600281111561076c57fe5b8152505081526020019060010190610629565b505050509050919050565b828054600181600116156101000203166002900490600052602060002090601f016020900481019282601f106107cb57805160ff19168380011785556107f9565b828001600101855582156107f9579182015b828111156107f85782518255916020019190600101906107dd565b5b509050610806919061085d565b5090565b6040518060e001604052806060815260200160008152602001600081526020016000600281111561083757fe5b815260200160008152602001600081526020016000600281111561085757fe5b81525090565b61087f91905b8082111561087b576000816000905550600101610863565b5090565b90565b60008135905061089181610ee2565b92915050565b6000813590506108a681610ef9565b92915050565b6000813590506108bb81610f09565b92915050565b600082601f8301126108d257600080fd5b81356108e56108e082610dad565b610d80565b9150808252602083016020830185838301111561090157600080fd5b61090c838284610e82565b50505092915050565b60008135905061092481610f20565b92915050565b6000806040838503121561093d57600080fd5b600061094b85828601610882565b925050602061095c85828601610915565b9150509250929050565b60006020828403121561097857600080fd5b600082013567ffffffffffffffff81111561099257600080fd5b61099e848285016108c1565b91505092915050565b600080600080600080600080610100898b0312156109c457600080fd5b600089013567ffffffffffffffff8111156109de57600080fd5b6109ea8b828c016108c1565b985050602089013567ffffffffffffffff811115610a0757600080fd5b610a138b828c016108c1565b9750506040610a248b828c016108ac565b9650506060610a358b828c01610915565b9550506080610a468b828c01610897565b94505060a0610a578b828c016108ac565b93505060c0610a688b828c01610915565b92505060e0610a798b828c01610897565b9150509295985092959890939650565b600060208284031215610a9b57600080fd5b6000610aa984828501610915565b91505092915050565b6000610abe8383610bf8565b905092915050565b6000610ad182610de9565b610adb8185610e0c565b935083602082028501610aed85610dd9565b8060005b85811015610b295784840389528151610b0a8582610ab2565b9450610b1583610dff565b925060208a01995050600181019050610af1565b50829750879550505050505092915050565b610b4481610e3f565b82525050565b610b5381610e70565b82525050565b610b6281610e70565b82525050565b610b7181610e5c565b82525050565b610b8081610e5c565b82525050565b6000610b9182610df4565b610b9b8185610e1d565b9350610bab818560208601610e91565b610bb481610ec4565b840191505092915050565b6000610bca82610df4565b610bd48185610e2e565b9350610be4818560208601610e91565b610bed81610ec4565b840191505092915050565b600060e0830160008301518482036000860152610c158282610b86565b9150506020830151610c2a6020860182610b68565b506040830151610c3d6040860182610c94565b506060830151610c506060860182610b4a565b506080830151610c636080860182610b68565b5060a0830151610c7660a0860182610c94565b5060c0830151610c8960c0860182610b4a565b508091505092915050565b610c9d81610e66565b82525050565b610cac81610e66565b82525050565b60006020820190508181036000830152610ccc8184610ac6565b905092915050565b6000602082019050610ce96000830184610b3b565b92915050565b600060e0820190508181036000830152610d09818a610bbf565b9050610d186020830189610b77565b610d256040830188610ca3565b610d326060830187610b59565b610d3f6080830186610b77565b610d4c60a0830185610ca3565b610d5960c0830184610b59565b98975050505050505050565b6000602082019050610d7a6000830184610ca3565b92915050565b6000604051905081810181811067ffffffffffffffff82111715610da357600080fd5b8060405250919050565b600067ffffffffffffffff821115610dc457600080fd5b601f19601f8301169050602081019050919050565b6000819050602082019050919050565b600081519050919050565b600081519050919050565b6000602082019050919050565b600082825260208201905092915050565b600082825260208201905092915050565b600082825260208201905092915050565b6000819050919050565b6000819050610e5782610ed5565b919050565b6000819050919050565b6000819050919050565b6000610e7b82610e49565b9050919050565b82818337600083830152505050565b60005b83811015610eaf578082015181840152602081019050610e94565b83811115610ebe576000848401525b50505050565b6000601f19601f8301169050919050565b60038110610edf57fe5b50565b610eeb81610e3f565b8114610ef657600080fd5b50565b60038110610f0657600080fd5b50565b610f1281610e5c565b8114610f1d57600080fd5b50565b610f2981610e66565b8114610f3457600080fd5b5056fea365627a7a72315820f079f0568c519aa6b3d7ba1532e20d58bc1436ad86ba2981d01b1139ed187f866c6578706572696d656e74616cf564736f6c634300050c0040",
  "source": "pragma experimental ABIEncoderV2;\npragma solidity ^0.5.12;\n\ncontract DeviceDefaultAttributes {\n  enum Criticality {LOW, MEDIUM, HIGH}\n\n  struct Attribute {\n    // Attribute name\n    string name;\n\n    // Minimum thresuld data\n    int256 minimunThreshold;\n    uint256 minimunViolationCount;\n    Criticality minimumCriticality;\n\n    // Maximum thresuld data\n    int256 maximumThresold;\n    uint256 maximumViolationCount;\n    Criticality maximumCriticality;\n  }\n\n  // Store & fetch Attributes\n  mapping(uint => Attribute) public defaultAttributes;\n\n  // Get all default attributes which belong to a specific model\n  mapping(bytes32 => Attribute[]) public defaulltAttributeIndicesByModelName;\n\n  // Store default attributes count\n  uint defaultAttributeCount;\n\n  constructor() public {\n    // Model 1\n    addDefaultAttribute(\n      \"RaspberryPi\", \"attribute1\",\n      100, 1, Criticality.LOW,\n      200, 2, Criticality.HIGH\n    );\n\n    addDefaultAttribute(\n      \"RaspberryPi\", \"attribute2\",\n      200, 3, Criticality.LOW,\n      300, 4, Criticality.HIGH\n    );\n    addDefaultAttribute(\n      \"RaspberryPi\", \"attribute3\",\n      400, 5, Criticality.LOW,\n      500, 6, Criticality.HIGH\n    );\n\n    // Model 2\n    addDefaultAttribute(\n      \"Unknown Model\", \"attribute1\",\n      100, 1, Criticality.LOW,\n      200, 2, Criticality.HIGH\n    );\n\n    addDefaultAttribute(\n      \"Unknown Model\", \"attribute2\",\n      200, 3, Criticality.LOW,\n      300, 4, Criticality.HIGH\n    );\n    addDefaultAttribute(\n      \"Unknown Model\", \"attribute3\",\n      400, 5, Criticality.LOW,\n      500, 6, Criticality.HIGH\n    );\n  }\n\n  function getAllAttributeCount() public view returns (uint) {\n    return defaultAttributeCount;\n  }\n\n  function addDefaultAttribute(\n    string memory _modelName,\n    string memory _attributeName,\n    int256 _minimumThresold, uint256 _minimumViolationCount, Criticality _minimumCriticality,\n    int256 _maximumThresold, uint256 _maximumViolationCount, Criticality _maximumCriticality\n  ) public {\n    defaultAttributeCount ++;\n\n    // Add attribute to default attributes list\n    defaultAttributes[defaultAttributeCount] = Attribute(\n      _attributeName,\n      _minimumThresold, _minimumViolationCount, _minimumCriticality,\n      _maximumThresold, _maximumViolationCount, _maximumCriticality\n    );\n\n    // Create Attribute\n    Attribute memory attribute = Attribute(\n      _attributeName,\n      _minimumThresold, _minimumViolationCount, _minimumCriticality,\n      _maximumThresold, _maximumViolationCount, _maximumCriticality\n    );\n\n    // Add attrbute index to its model\n    defaulltAttributeIndicesByModelName[stringToBytes32(_modelName)].push(attribute);\n  }\n\n  function getDefaulltAttributeIndicesByModelName(string memory _modelName) public view returns (Attribute[] memory) {\n    return defaulltAttributeIndicesByModelName[stringToBytes32(_modelName)];\n  }\n\n  function strConcat(string memory _a, string memory _b, string memory _c, string memory _d, string memory _e) internal pure returns (string memory){\n    bytes memory _ba = bytes(_a);\n    bytes memory _bb = bytes(_b);\n    bytes memory _bc = bytes(_c);\n    bytes memory _bd = bytes(_d);\n    bytes memory _be = bytes(_e);\n    string memory abcde = new string(_ba.length + _bb.length + _bc.length + _bd.length + _be.length);\n    bytes memory babcde = bytes(abcde);\n    uint k = 0;\n    for (uint i = 0; i < _ba.length; i++) babcde[k++] = _ba[i];\n    for (uint i = 0; i < _bb.length; i++) babcde[k++] = _bb[i];\n    for (uint i = 0; i < _bc.length; i++) babcde[k++] = _bc[i];\n    for (uint i = 0; i < _bd.length; i++) babcde[k++] = _bd[i];\n    for (uint i = 0; i < _be.length; i++) babcde[k++] = _be[i];\n    return string(babcde);\n  }\n\n  function strConcat(string memory _a, string memory _b, string memory _c, string memory _d) internal pure returns (string memory) {\n    return strConcat(_a, _b, _c, _d, \"\");\n  }\n\n  function strConcat(string memory _a, string memory _b, string memory _c) internal pure returns (string memory) {\n    return strConcat(_a, _b, _c, \"\", \"\");\n  }\n\n  function strConcat(string memory _a, string memory _b) internal pure returns (string memory) {\n    return strConcat(_a, _b, \"\", \"\", \"\");\n  }\n\n  function uint2str(uint i) internal pure returns (string memory){\n    if (i == 0) return \"0\";\n    uint j = i;\n    uint length;\n    while (j != 0) {\n      length++;\n      j /= 10;\n    }\n    bytes memory bstr = new bytes(length);\n    uint k = length - 1;\n    while (i != 0) {\n      bstr[k--] = byte(uint8(48 + i % 10));\n      i /= 10;\n    }\n    return string(bstr);\n  }\n\n  function stringToBytes32(string memory source) public pure returns (bytes32 result) {\n    bytes memory tempEmptyStringTest = bytes(source);\n    if (tempEmptyStringTest.length == 0) {\n      return 0x0;\n    }\n\n    assembly {\n      result := mload(add(source, 32))\n    }\n  }\n}",
  "sourcePath": "/Users/shirin/Desktop/Thesis/Implementation/MSc-Thesis/Implementation/thesis-smartContract/contracts/DeviceDefaultAttributes.sol",
  "compiler": {
    "name": "solc",
    "version": "0.5.12+commit.7709ece9.Emscripten.clang"
  },
  "schemaVersion": "3.0.15",
  "updatedAt": "2019-11-06T22:27:43.364Z",
  "devdoc": {
    "methods": {}
  },
  "userdoc": {
    "methods": {}
  }
}