{
  "contractName": "DeviceProfiles",
  "abi": [
    {
      "inputs": [
        {
          "internalType": "address",
          "name": "_addy",
          "type": "address"
        }
      ],
      "payable": false,
      "stateMutability": "nonpayable",
      "type": "constructor"
    },
    {
      "anonymous": false,
      "inputs": [
        {
          "indexed": false,
          "internalType": "uint256",
          "name": "deivceId",
          "type": "uint256"
        },
        {
          "indexed": false,
          "internalType": "string",
          "name": "deviceIp",
          "type": "string"
        },
        {
          "indexed": false,
          "internalType": "string",
          "name": "deviceModel",
          "type": "string"
        }
      ],
      "name": "DeviceAdded",
      "type": "event"
    },
    {
      "constant": true,
      "inputs": [],
      "name": "attrCount",
      "outputs": [
        {
          "internalType": "uint256",
          "name": "",
          "type": "uint256"
        }
      ],
      "payable": false,
      "stateMutability": "view",
      "type": "function"
    },
    {
      "constant": true,
      "inputs": [],
      "name": "called_address",
      "outputs": [
        {
          "internalType": "contract DeviceDefaultAttribute",
          "name": "",
          "type": "address"
        }
      ],
      "payable": false,
      "stateMutability": "view",
      "type": "function"
    },
    {
      "constant": true,
      "inputs": [
        {
          "internalType": "uint256",
          "name": "",
          "type": "uint256"
        }
      ],
      "name": "devices",
      "outputs": [
        {
          "internalType": "uint256",
          "name": "deviceId",
          "type": "uint256"
        },
        {
          "internalType": "string",
          "name": "deviceIp",
          "type": "string"
        },
        {
          "internalType": "string",
          "name": "deviceModel",
          "type": "string"
        },
        {
          "internalType": "uint256",
          "name": "samplingRateMinute",
          "type": "uint256"
        },
        {
          "internalType": "string",
          "name": "softwareIpfsHash",
          "type": "string"
        },
        {
          "internalType": "uint256",
          "name": "attributeCount",
          "type": "uint256"
        }
      ],
      "payable": false,
      "stateMutability": "view",
      "type": "function"
    },
    {
      "constant": true,
      "inputs": [],
      "name": "devicesCount",
      "outputs": [
        {
          "internalType": "uint256",
          "name": "",
          "type": "uint256"
        }
      ],
      "payable": false,
      "stateMutability": "view",
      "type": "function"
    },
    {
      "constant": true,
      "inputs": [],
      "name": "callDeviceDefaultAttributeMethod",
      "outputs": [
        {
          "components": [
            {
              "internalType": "string",
              "name": "name",
              "type": "string"
            },
            {
              "internalType": "int256",
              "name": "minimunThreshold",
              "type": "int256"
            },
            {
              "internalType": "uint256",
              "name": "minimunViolationCount",
              "type": "uint256"
            },
            {
              "internalType": "enum DeviceDefaultAttribute.Criticality",
              "name": "minimumCriticality",
              "type": "uint8"
            },
            {
              "internalType": "int256",
              "name": "maximumThresold",
              "type": "int256"
            },
            {
              "internalType": "uint256",
              "name": "maximumViolationCount",
              "type": "uint256"
            },
            {
              "internalType": "enum DeviceDefaultAttribute.Criticality",
              "name": "maximumCriticality",
              "type": "uint8"
            }
          ],
          "internalType": "struct DeviceDefaultAttribute.Attribute[]",
          "name": "",
          "type": "tuple[]"
        }
      ],
      "payable": false,
      "stateMutability": "view",
      "type": "function"
    },
    {
      "constant": false,
      "inputs": [
        {
          "internalType": "string",
          "name": "_ip",
          "type": "string"
        },
        {
          "internalType": "string",
          "name": "_model",
          "type": "string"
        },
        {
          "internalType": "uint256",
          "name": "_samplingRateMinute",
          "type": "uint256"
        }
      ],
      "name": "addDevice",
      "outputs": [],
      "payable": false,
      "stateMutability": "nonpayable",
      "type": "function"
    },
    {
      "constant": false,
      "inputs": [
        {
          "internalType": "uint256",
          "name": "_deviceId",
          "type": "uint256"
        },
        {
          "internalType": "string",
          "name": "_name",
          "type": "string"
        },
        {
          "internalType": "int256",
          "name": "_minimunThreshold",
          "type": "int256"
        },
        {
          "internalType": "uint256",
          "name": "_minimunViolationCount",
          "type": "uint256"
        },
        {
          "internalType": "enum DeviceDefaultAttribute.Criticality",
          "name": "_minimumCriticality",
          "type": "uint8"
        },
        {
          "internalType": "int256",
          "name": "_maximumThresold",
          "type": "int256"
        },
        {
          "internalType": "uint256",
          "name": "_maximumViolationCount",
          "type": "uint256"
        },
        {
          "internalType": "enum DeviceDefaultAttribute.Criticality",
          "name": "_maximumCriticality",
          "type": "uint8"
        }
      ],
      "name": "addAttributeToDeviceById",
      "outputs": [
        {
          "internalType": "uint256",
          "name": "",
          "type": "uint256"
        }
      ],
      "payable": false,
      "stateMutability": "nonpayable",
      "type": "function"
    },
    {
      "constant": false,
      "inputs": [
        {
          "internalType": "uint256",
          "name": "_deviceId",
          "type": "uint256"
        },
        {
          "internalType": "string",
          "name": "_data",
          "type": "string"
        },
        {
          "internalType": "string",
          "name": "_startRange",
          "type": "string"
        },
        {
          "internalType": "string",
          "name": "_endRange",
          "type": "string"
        }
      ],
      "name": "addMonitoringDataByDeviceId",
      "outputs": [
        {
          "internalType": "string[]",
          "name": "",
          "type": "string[]"
        }
      ],
      "payable": false,
      "stateMutability": "nonpayable",
      "type": "function"
    },
    {
      "constant": true,
      "inputs": [
        {
          "internalType": "uint256",
          "name": "_deviceId",
          "type": "uint256"
        }
      ],
      "name": "getMonitoringDataByDeviceId",
      "outputs": [
        {
          "internalType": "string[]",
          "name": "",
          "type": "string[]"
        }
      ],
      "payable": false,
      "stateMutability": "view",
      "type": "function"
    },
    {
      "constant": false,
      "inputs": [
        {
          "internalType": "uint256",
          "name": "_deviceId",
          "type": "uint256"
        }
      ],
      "name": "getDeviceAttributes",
      "outputs": [
        {
          "components": [
            {
              "internalType": "string",
              "name": "name",
              "type": "string"
            },
            {
              "internalType": "int256",
              "name": "minimunThreshold",
              "type": "int256"
            },
            {
              "internalType": "uint256",
              "name": "minimunViolationCount",
              "type": "uint256"
            },
            {
              "internalType": "enum DeviceDefaultAttribute.Criticality",
              "name": "minimumCriticality",
              "type": "uint8"
            },
            {
              "internalType": "int256",
              "name": "maximumThresold",
              "type": "int256"
            },
            {
              "internalType": "uint256",
              "name": "maximumViolationCount",
              "type": "uint256"
            },
            {
              "internalType": "enum DeviceDefaultAttribute.Criticality",
              "name": "maximumCriticality",
              "type": "uint8"
            }
          ],
          "internalType": "struct DeviceDefaultAttribute.Attribute[]",
          "name": "",
          "type": "tuple[]"
        }
      ],
      "payable": false,
      "stateMutability": "nonpayable",
      "type": "function"
    }
  ],
  "bytecode": "0x60806040523480156200001157600080fd5b506040516200311238038062003112833981810160405262000037919081019062000dcd565b806000806101000a81548173ffffffffffffffffffffffffffffffffffffffff021916908373ffffffffffffffffffffffffffffffffffffffff160217905550620000f56040518060400160405280600781526020017f312e312e312e31000000000000000000000000000000000000000000000000008152506040518060400160405280600781526020017f6d6f64656c2031000000000000000000000000000000000000000000000000008152506001620001a860201b60201c565b6200014a60016040518060400160405280601081526020017f617474726962757465206e616d6520310000000000000000000000000000000081525060c860026000610190600260006200082d60201b60201c565b50620001a060016040518060400160405280601081526020017f617474726962757465206e616d6520320000000000000000000000000000000081525060c860026000610190600260006200082d60201b60201c565b505062000f51565b600160008154809291906001019190505550620001c462000a7d565b6002600060015481526020019081526020016000206040518061012001604052908160008201548152602001600182018054600181600116156101000203166002900480601f0160208091040260200160405190810160405280929190818152602001828054600181600116156101000203166002900480156200028c5780601f1062000260576101008083540402835291602001916200028c565b820191906000526020600020905b8154815290600101906020018083116200026e57829003601f168201915b50505050508152602001600282018054600181600116156101000203166002900480601f016020809104026020016040519081016040528092919081815260200182805460018160011615610100020316600290048015620003325780601f10620003065761010080835404028352916020019162000332565b820191906000526020600020905b8154815290600101906020018083116200031457829003601f168201915b5050505050815260200160038201548152602001600482018054600181600116156101000203166002900480601f016020809104026020016040519081016040528092919081815260200182805460018160011615610100020316600290048015620003e25780601f10620003b657610100808354040283529160200191620003e2565b820191906000526020600020905b815481529060010190602001808311620003c457829003601f168201915b505050505081526020016005820154815260200160078201805480602002602001604051908101604052809291908181526020016000905b82821015620004dc578382906000526020600020018054600181600116156101000203166002900480601f016020809104026020016040519081016040528092919081815260200182805460018160011615610100020316600290048015620004c75780601f106200049b57610100808354040283529160200191620004c7565b820191906000526020600020905b815481529060010190602001808311620004a957829003601f168201915b5050505050815260200190600101906200041a565b50505050815260200160088201805480602002602001604051908101604052809291908181526020016000905b82821015620005cb578382906000526020600020018054600181600116156101000203166002900480601f016020809104026020016040519081016040528092919081815260200182805460018160011615610100020316600290048015620005b65780601f106200058a57610100808354040283529160200191620005b6565b820191906000526020600020905b8154815290600101906020018083116200059857829003601f168201915b50505050508152602001906001019062000509565b50505050815260200160098201805480602002602001604051908101604052809291908181526020016000905b82821015620006ba578382906000526020600020018054600181600116156101000203166002900480601f016020809104026020016040519081016040528092919081815260200182805460018160011615610100020316600290048015620006a55780601f106200067957610100808354040283529160200191620006a5565b820191906000526020600020905b8154815290600101906020018083116200068757829003601f168201915b505050505081526020019060010190620005f8565b5050505081525050905060015481600001818152505083816020018190525082816040018190525081816060018181525050806002600060015481526020019081526020016000206000820151816000015560208201518160010190805190602001906200072a92919062000ac9565b5060408201518160020190805190602001906200074992919062000ac9565b506060820151816003015560808201518160040190805190602001906200077292919062000ac9565b5060a0820151816005015560c08201518160070190805190602001906200079b92919062000b50565b5060e0820151816008019080519060200190620007ba92919062000b50565b50610100820151816009019080519060200190620007da92919062000b50565b509050507fb89dae6f79ce740c8f64a816f7060781c54c0c5ad24df7fc163a842d30daa4978160000151826020015183604001516040516200081f9392919062000e4b565b60405180910390a150505050565b600080600260008b815260200190815260200160002090506000816005015490506001810182600501819055506200086462000bb7565b6040518060e001604052808c81526020018b81526020018a81526020018960028111156200088e57fe5b8152602001888152602001878152602001866002811115620008ac57fe5b815250905080836006016000856005015481526020019081526020016000206000820151816000019080519060200190620008e992919062000ac9565b50602082015181600101556040820151816002015560608201518160030160006101000a81548160ff021916908360028111156200092357fe5b02179055506080820151816004015560a0820151816005015560c08201518160060160006101000a81548160ff021916908360028111156200096157fe5b021790555090505082600260008e81526020019081526020016000206000820154816000015560018201816001019080546001816001161561010002031660029004620009b092919062000c0c565b5060028201816002019080546001816001161561010002031660029004620009da92919062000c0c565b50600382015481600301556004820181600401908054600181600116156101000203166002900462000a0e92919062000c0c565b5060058201548160050155600782018160070190805462000a3192919062000c9a565b50600882018160080190805462000a4a92919062000c9a565b50600982018160090190805462000a6392919062000c9a565b509050508260050154935050505098975050505050505050565b6040518061012001604052806000815260200160608152602001606081526020016000815260200160608152602001600081526020016060815260200160608152602001606081525090565b828054600181600116156101000203166002900490600052602060002090601f016020900481019282601f1062000b0c57805160ff191683800117855562000b3d565b8280016001018555821562000b3d579182015b8281111562000b3c57825182559160200191906001019062000b1f565b5b50905062000b4c919062000d11565b5090565b82805482825590600052602060002090810192821562000ba4579160200282015b8281111562000ba357825182908051906020019062000b9292919062000ac9565b509160200191906001019062000b71565b5b50905062000bb3919062000d39565b5090565b6040518060e001604052806060815260200160008152602001600081526020016000600281111562000be557fe5b815260200160008152602001600081526020016000600281111562000c0657fe5b81525090565b828054600181600116156101000203166002900490600052602060002090601f016020900481019282601f1062000c47578054855562000c87565b8280016001018555821562000c8757600052602060002091601f016020900482015b8281111562000c8657825482559160010191906001019062000c69565b5b50905062000c96919062000d11565b5090565b82805482825590600052602060002090810192821562000cfe5760005260206000209182015b8281111562000cfd578282908054600181600116156101000203166002900462000cec92919062000c0c565b509160010191906001019062000cc0565b5b50905062000d0d919062000d39565b5090565b62000d3691905b8082111562000d3257600081600090555060010162000d18565b5090565b90565b62000d6791905b8082111562000d63576000818162000d59919062000d6a565b5060010162000d40565b5090565b90565b50805460018160011615610100020316600290046000825580601f1062000d92575062000db3565b601f01602090049060005260206000209081019062000db2919062000d11565b5b50565b60008151905062000dc78162000f37565b92915050565b60006020828403121562000de057600080fd5b600062000df08482850162000db6565b91505092915050565b600062000e068262000e96565b62000e12818562000ea1565b935062000e2481856020860162000ef0565b62000e2f8162000f26565b840191505092915050565b62000e458162000ee6565b82525050565b600060608201905062000e62600083018662000e3a565b818103602083015262000e76818562000df9565b9050818103604083015262000e8c818462000df9565b9050949350505050565b600081519050919050565b600082825260208201905092915050565b600062000ebf8262000ec6565b9050919050565b600073ffffffffffffffffffffffffffffffffffffffff82169050919050565b6000819050919050565b60005b8381101562000f1057808201518184015260208101905062000ef3565b8381111562000f20576000848401525b50505050565b6000601f19601f8301169050919050565b62000f428162000eb2565b811462000f4e57600080fd5b50565b6121b18062000f616000396000f3fe608060405234801561001057600080fd5b506004361061009e5760003560e01c8063a05edf5411610066578063a05edf5414610172578063ab40c68514610190578063add49d04146101c0578063c820f019146101de578063fe3645e9146101fc5761009e565b806310ff8e31146100a3578063195bc254146100d8578063363621a514610108578063543ae4701461012457806381700fd614610154575b600080fd5b6100bd60048036036100b89190810190611969565b61022c565b6040516100cf96959493929190611e91565b60405180910390f35b6100f260048036036100ed9190810190611992565b610430565b6040516100ff9190611e31565b60405180910390f35b610122600480360361011d91908101906118ea565b61066c565b005b61013e60048036036101399190810190611a5c565b610cc3565b60405161014b9190611db2565b60405180910390f35b61015c610e8e565b6040516101699190611dd4565b60405180910390f35b61017a610f42565b6040516101879190611e31565b60405180910390f35b6101aa60048036036101a59190810190611969565b610f48565b6040516101b79190611dd4565b60405180910390f35b6101c8611135565b6040516101d59190611e31565b60405180910390f35b6101e661113b565b6040516101f39190611df6565b60405180910390f35b61021660048036036102119190810190611969565b611160565b6040516102239190611db2565b60405180910390f35b6002602052806000526040600020600091509050806000015490806001018054600181600116156101000203166002900480601f0160208091040260200160405190810160405280929190818152602001828054600181600116156101000203166002900480156102de5780601f106102b3576101008083540402835291602001916102de565b820191906000526020600020905b8154815290600101906020018083116102c157829003601f168201915b505050505090806002018054600181600116156101000203166002900480601f01602080910402602001604051908101604052809291908181526020018280546001816001161561010002031660029004801561037c5780601f106103515761010080835404028352916020019161037c565b820191906000526020600020905b81548152906001019060200180831161035f57829003601f168201915b505050505090806003015490806004018054600181600116156101000203166002900480601f0160208091040260200160405190810160405280929190818152602001828054600181600116156101000203166002900480156104205780601f106103f557610100808354040283529160200191610420565b820191906000526020600020905b81548152906001019060200180831161040357829003601f168201915b5050505050908060050154905086565b600080600260008b81526020019081526020016000209050600081600501549050600181018260050181905550610465611265565b6040518060e001604052808c81526020018b81526020018a815260200189600281111561048e57fe5b81526020018881526020018781526020018660028111156104ab57fe5b8152509050808360060160008560050154815260200190815260200160002060008201518160000190805190602001906104e69291906112b8565b50602082015181600101556040820151816002015560608201518160030160006101000a81548160ff0219169083600281111561051f57fe5b02179055506080820151816004015560a0820151816005015560c08201518160060160006101000a81548160ff0219169083600281111561055c57fe5b021790555090505082600260008e815260200190815260200160002060008201548160000155600182018160010190805460018160011615610100020316600290046105a9929190611338565b50600282018160020190805460018160011615610100020316600290046105d1929190611338565b506003820154816003015560048201816004019080546001816001161561010002031660029004610603929190611338565b506005820154816005015560078201816007019080546106249291906113bf565b50600882018160080190805461063b9291906113bf565b5060098201816009019080546106529291906113bf565b509050508260050154935050505098975050505050505050565b60016000815480929190600101919050555061068661142f565b6002600060015481526020019081526020016000206040518061012001604052908160008201548152602001600182018054600181600116156101000203166002900480601f01602080910402602001604051908101604052809291908181526020018280546001816001161561010002031660029004801561074a5780601f1061071f5761010080835404028352916020019161074a565b820191906000526020600020905b81548152906001019060200180831161072d57829003601f168201915b50505050508152602001600282018054600181600116156101000203166002900480601f0160208091040260200160405190810160405280929190818152602001828054600181600116156101000203166002900480156107ec5780601f106107c1576101008083540402835291602001916107ec565b820191906000526020600020905b8154815290600101906020018083116107cf57829003601f168201915b5050505050815260200160038201548152602001600482018054600181600116156101000203166002900480601f0160208091040260200160405190810160405280929190818152602001828054600181600116156101000203166002900480156108985780601f1061086d57610100808354040283529160200191610898565b820191906000526020600020905b81548152906001019060200180831161087b57829003601f168201915b505050505081526020016005820154815260200160078201805480602002602001604051908101604052809291908181526020016000905b8282101561098c578382906000526020600020018054600181600116156101000203166002900480601f0160208091040260200160405190810160405280929190818152602001828054600181600116156101000203166002900480156109785780601f1061094d57610100808354040283529160200191610978565b820191906000526020600020905b81548152906001019060200180831161095b57829003601f168201915b5050505050815260200190600101906108d0565b50505050815260200160088201805480602002602001604051908101604052809291908181526020016000905b82821015610a75578382906000526020600020018054600181600116156101000203166002900480601f016020809104026020016040519081016040528092919081815260200182805460018160011615610100020316600290048015610a615780601f10610a3657610100808354040283529160200191610a61565b820191906000526020600020905b815481529060010190602001808311610a4457829003601f168201915b5050505050815260200190600101906109b9565b50505050815260200160098201805480602002602001604051908101604052809291908181526020016000905b82821015610b5e578382906000526020600020018054600181600116156101000203166002900480601f016020809104026020016040519081016040528092919081815260200182805460018160011615610100020316600290048015610b4a5780601f10610b1f57610100808354040283529160200191610b4a565b820191906000526020600020905b815481529060010190602001808311610b2d57829003601f168201915b505050505081526020019060010190610aa2565b505050508152505090506001548160000181815250508381602001819052508281604001819052508181606001818152505080600260006001548152602001908152602001600020600082015181600001556020820151816001019080519060200190610bcc9291906112b8565b506040820151816002019080519060200190610be99291906112b8565b50606082015181600301556080820151816004019080519060200190610c109291906112b8565b5060a0820151816005015560c0820151816007019080519060200190610c3792919061147b565b5060e0820151816008019080519060200190610c5492919061147b565b50610100820151816009019080519060200190610c7292919061147b565b509050507fb89dae6f79ce740c8f64a816f7060781c54c0c5ad24df7fc163a842d30daa497816000015182602001518360400151604051610cb593929190611e4c565b60405180910390a150505050565b6060600060026000878152602001908152602001600020905080600901859080600181540180825580915050906001820390600052602060002001600090919290919091509080519060200190610d1b9291906114db565b505080600701849080600181540180825580915050906001820390600052602060002001600090919290919091509080519060200190610d5c9291906114db565b505080600801839080600181540180825580915050906001820390600052602060002001600090919290919091509080519060200190610d9d9291906114db565b505080600901805480602002602001604051908101604052809291908181526020016000905b82821015610e7f578382906000526020600020018054600181600116156101000203166002900480601f016020809104026020016040519081016040528092919081815260200182805460018160011615610100020316600290048015610e6b5780601f10610e4057610100808354040283529160200191610e6b565b820191906000526020600020905b815481529060010190602001808311610e4e57829003601f168201915b505050505081526020019060010190610dc3565b50505050915050949350505050565b60606000809054906101000a900473ffffffffffffffffffffffffffffffffffffffff1673ffffffffffffffffffffffffffffffffffffffff1663d6d20eba6040518163ffffffff1660e01b8152600401610ee890611e11565b60006040518083038186803b158015610f0057600080fd5b505afa158015610f14573d6000803e3d6000fd5b505050506040513d6000823e3d601f19601f82011682018060405250610f3d91908101906118a9565b905090565b60015481565b6060600060026000848152602001908152602001600020905060008160050154905080600381905550606081604051908082528060200260200182016040528015610fad57816020015b610f9a61155b565b815260200190600190039081610f925790505b5090506000600190505b828111611129578360060160008281526020019081526020016000206040518060e0016040529081600082018054600181600116156101000203166002900480601f0160208091040260200160405190810160405280929190818152602001828054600181600116156101000203166002900480156110775780601f1061104c57610100808354040283529160200191611077565b820191906000526020600020905b81548152906001019060200180831161105a57829003601f168201915b5050505050815260200160018201548152602001600282015481526020016003820160009054906101000a900460ff1660028111156110b257fe5b60028111156110bd57fe5b815260200160048201548152602001600582015481526020016006820160009054906101000a900460ff1660028111156110f357fe5b60028111156110fe57fe5b8152505082600183038151811061111157fe5b60200260200101819052508080600101915050610fb7565b50809350505050919050565b60035481565b6000809054906101000a900473ffffffffffffffffffffffffffffffffffffffff1681565b6060600060026000848152602001908152602001600020905080600901805480602002602001604051908101604052809291908181526020016000905b82821015611259578382906000526020600020018054600181600116156101000203166002900480601f0160208091040260200160405190810160405280929190818152602001828054600181600116156101000203166002900480156112455780601f1061121a57610100808354040283529160200191611245565b820191906000526020600020905b81548152906001019060200180831161122857829003601f168201915b50505050508152602001906001019061119d565b50505050915050919050565b6040518060e001604052806060815260200160008152602001600081526020016000600281111561129257fe5b81526020016000815260200160008152602001600060028111156112b257fe5b81525090565b828054600181600116156101000203166002900490600052602060002090601f016020900481019282601f106112f957805160ff1916838001178555611327565b82800160010185558215611327579182015b8281111561132657825182559160200191906001019061130b565b5b50905061133491906115ae565b5090565b828054600181600116156101000203166002900490600052602060002090601f016020900481019282601f1061137157805485556113ae565b828001600101855582156113ae57600052602060002091601f016020900482015b828111156113ad578254825591600101919060010190611392565b5b5090506113bb91906115ae565b5090565b82805482825590600052602060002090810192821561141e5760005260206000209182015b8281111561141d578282908054600181600116156101000203166002900461140d929190611338565b50916001019190600101906113e4565b5b50905061142b91906115d3565b5090565b6040518061012001604052806000815260200160608152602001606081526020016000815260200160608152602001600081526020016060815260200160608152602001606081525090565b8280548282559060005260206000209081019282156114ca579160200282015b828111156114c95782518290805190602001906114b99291906112b8565b509160200191906001019061149b565b5b5090506114d791906115d3565b5090565b828054600181600116156101000203166002900490600052602060002090601f016020900481019282601f1061151c57805160ff191683800117855561154a565b8280016001018555821561154a579182015b8281111561154957825182559160200191906001019061152e565b5b50905061155791906115ae565b5090565b6040518060e001604052806060815260200160008152602001600081526020016000600281111561158857fe5b81526020016000815260200160008152602001600060028111156115a857fe5b81525090565b6115d091905b808211156115cc5760008160009055506001016115b4565b5090565b90565b6115fc91905b808211156115f857600081816115ef91906115ff565b506001016115d9565b5090565b90565b50805460018160011615610100020316600290046000825580601f106116255750611644565b601f01602090049060005260206000209081019061164391906115ae565b5b50565b600082601f83011261165857600080fd5b815161166b61166682611f34565b611f07565b9150818183526020840193506020810190508360005b838110156116b1578151860161169788826117b7565b845260208401935060208301925050600181019050611681565b5050505092915050565b6000813590506116ca81612130565b92915050565b6000815190506116df81612130565b92915050565b6000813590506116f481612140565b92915050565b60008151905061170981612140565b92915050565b600082601f83011261172057600080fd5b815161173361172e82611f5c565b611f07565b9150808252602083016020830185838301111561174f57600080fd5b61175a8382846120df565b50505092915050565b600082601f83011261177457600080fd5b813561178761178282611f88565b611f07565b915080825260208301602083018583830111156117a357600080fd5b6117ae8382846120d0565b50505092915050565b600060e082840312156117c957600080fd5b6117d360e0611f07565b9050600082015167ffffffffffffffff8111156117ef57600080fd5b6117fb8482850161170f565b600083015250602061180f848285016116fa565b602083015250604061182384828501611894565b6040830152506060611837848285016116d0565b606083015250608061184b848285016116fa565b60808301525060a061185f84828501611894565b60a08301525060c0611873848285016116d0565b60c08301525092915050565b60008135905061188e81612157565b92915050565b6000815190506118a381612157565b92915050565b6000602082840312156118bb57600080fd5b600082015167ffffffffffffffff8111156118d557600080fd5b6118e184828501611647565b91505092915050565b6000806000606084860312156118ff57600080fd5b600084013567ffffffffffffffff81111561191957600080fd5b61192586828701611763565b935050602084013567ffffffffffffffff81111561194257600080fd5b61194e86828701611763565b925050604061195f8682870161187f565b9150509250925092565b60006020828403121561197b57600080fd5b60006119898482850161187f565b91505092915050565b600080600080600080600080610100898b0312156119af57600080fd5b60006119bd8b828c0161187f565b985050602089013567ffffffffffffffff8111156119da57600080fd5b6119e68b828c01611763565b97505060406119f78b828c016116e5565b9650506060611a088b828c0161187f565b9550506080611a198b828c016116bb565b94505060a0611a2a8b828c016116e5565b93505060c0611a3b8b828c0161187f565b92505060e0611a4c8b828c016116bb565b9150509295985092959890939650565b60008060008060808587031215611a7257600080fd5b6000611a808782880161187f565b945050602085013567ffffffffffffffff811115611a9d57600080fd5b611aa987828801611763565b935050604085013567ffffffffffffffff811115611ac657600080fd5b611ad287828801611763565b925050606085013567ffffffffffffffff811115611aef57600080fd5b611afb87828801611763565b91505092959194509250565b6000611b138383611c46565b905092915050565b6000611b278383611cf8565b905092915050565b6000611b3a82611fd4565b611b44818561200f565b935083602082028501611b5685611fb4565b8060005b85811015611b925784840389528151611b738582611b07565b9450611b7e83611ff5565b925060208a01995050600181019050611b5a565b50829750879550505050505092915050565b6000611baf82611fdf565b611bb98185612020565b935083602082028501611bcb85611fc4565b8060005b85811015611c075784840389528151611be88582611b1b565b9450611bf383612002565b925060208a01995050600181019050611bcf565b50829750879550505050505092915050565b611c228161209a565b82525050565b611c31816120be565b82525050565b611c4081612066565b82525050565b6000611c5182611fea565b611c5b8185612031565b9350611c6b8185602086016120df565b611c7481612112565b840191505092915050565b6000611c8a82611fea565b611c948185612042565b9350611ca48185602086016120df565b611cad81612112565b840191505092915050565b6000611cc5600b83612042565b91507f52617370626572727950690000000000000000000000000000000000000000006000830152602082019050919050565b600060e0830160008301518482036000860152611d158282611c46565b9150506020830151611d2a6020860182611c37565b506040830151611d3d6040860182611d94565b506060830151611d506060860182611c28565b506080830151611d636080860182611c37565b5060a0830151611d7660a0860182611d94565b5060c0830151611d8960c0860182611c28565b508091505092915050565b611d9d81612090565b82525050565b611dac81612090565b82525050565b60006020820190508181036000830152611dcc8184611b2f565b905092915050565b60006020820190508181036000830152611dee8184611ba4565b905092915050565b6000602082019050611e0b6000830184611c19565b92915050565b60006020820190508181036000830152611e2a81611cb8565b9050919050565b6000602082019050611e466000830184611da3565b92915050565b6000606082019050611e616000830186611da3565b8181036020830152611e738185611c7f565b90508181036040830152611e878184611c7f565b9050949350505050565b600060c082019050611ea66000830189611da3565b8181036020830152611eb88188611c7f565b90508181036040830152611ecc8187611c7f565b9050611edb6060830186611da3565b8181036080830152611eed8185611c7f565b9050611efc60a0830184611da3565b979650505050505050565b6000604051905081810181811067ffffffffffffffff82111715611f2a57600080fd5b8060405250919050565b600067ffffffffffffffff821115611f4b57600080fd5b602082029050602081019050919050565b600067ffffffffffffffff821115611f7357600080fd5b601f19601f8301169050602081019050919050565b600067ffffffffffffffff821115611f9f57600080fd5b601f19601f8301169050602081019050919050565b6000819050602082019050919050565b6000819050602082019050919050565b600081519050919050565b600081519050919050565b600081519050919050565b6000602082019050919050565b6000602082019050919050565b600082825260208201905092915050565b600082825260208201905092915050565b600082825260208201905092915050565b600082825260208201905092915050565b600081905061206182612123565b919050565b6000819050919050565b600073ffffffffffffffffffffffffffffffffffffffff82169050919050565b6000819050919050565b60006120a5826120ac565b9050919050565b60006120b782612070565b9050919050565b60006120c982612053565b9050919050565b82818337600083830152505050565b60005b838110156120fd5780820151818401526020810190506120e2565b8381111561210c576000848401525b50505050565b6000601f19601f8301169050919050565b6003811061212d57fe5b50565b6003811061213d57600080fd5b50565b61214981612066565b811461215457600080fd5b50565b61216081612090565b811461216b57600080fd5b5056fea365627a7a723158206dce99f0c066b646d8eb3ec2fd9643606e7f25a0a5f6cccab109fca3583407b36c6578706572696d656e74616cf564736f6c634300050c0040",
  "source": "pragma experimental ABIEncoderV2;\npragma solidity ^0.5.12;\n\ncontract DeviceDefaultAttribute {\n  enum Criticality {LOW, MEDIUM, HIGH}\n\n  struct Attribute {\n    string name;\n    int256 minimunThreshold;\n    uint256 minimunViolationCount;\n    Criticality minimumCriticality;\n    int256 maximumThresold;\n    uint256 maximumViolationCount;\n    Criticality maximumCriticality;\n  }\n\n  function getAllAttributeCount() public view returns (uint);\n\n  function addDefaultAttribute(\n    string memory _modelName,\n    string memory _attributeName,\n    int256 _minimumThresold, uint256 _minimumViolationCount, Criticality _minimumCriticality,\n    int256 _maximumThresold, uint256 _maximumViolationCount, Criticality _maximumCriticality\n  ) public;\n\n  function getDefaulltAttributeIndicesByModelName(string memory _modelName) public view returns (Attribute[] memory);\n}\n\ncontract DeviceProfiles {\n\n  DeviceDefaultAttribute public called_address;\n\n  struct Device {\n    // Store device info (id, ip, model)\n    uint deviceId;\n    string deviceIp;\n    string deviceModel;\n\n    // Interval time for sampling data in minutes\n    uint samplingRateMinute;\n\n    // Store ipfs hash code of device's model software\n    string softwareIpfsHash;\n\n    // Store attributes count\n    uint attributeCount;\n\n    // Store & fetch Attributes\n    mapping(uint => DeviceDefaultAttribute.Attribute) attributes;\n\n    // Get ipfs hash code of each attribute monitoring data (by attribute name)\n    string[] monitoringDataStartTimeHashMap;\n    string[] monitoringDataEndTimeHashMap;\n    string[] monitoringDataIpfsHashMap;\n  }\n\n  // Store devices count\n  uint public devicesCount;\n\n  // Store & fetch devices\n  mapping(uint => Device) public devices;\n\n  // Test\n  uint public attrCount;\n\n  // Emit this event after adding devices\n  event DeviceAdded(\n    uint deivceId,\n    string deviceIp,\n    string deviceModel\n  );\n\n  constructor (address _addy) public {\n    called_address = DeviceDefaultAttribute(_addy);\n\n    // Remove these lines\n    addDevice(\"1.1.1.1\", \"model 1\", 1);\n    addAttributeToDeviceById(\n      1,\n      \"attribute name 1\",\n      200,\n      2,\n      DeviceDefaultAttribute.Criticality.LOW,\n      400,\n      2,\n      DeviceDefaultAttribute.Criticality.LOW\n    );\n    addAttributeToDeviceById(\n      1,\n      \"attribute name 2\",\n      200,\n      2,\n      DeviceDefaultAttribute.Criticality.LOW,\n      400,\n      2,\n      DeviceDefaultAttribute.Criticality.LOW\n    );\n  }\n\n  function callDeviceDefaultAttributeMethod() public view returns (DeviceDefaultAttribute.Attribute[] memory){\n    return called_address.getDefaulltAttributeIndicesByModelName(\"RaspberryPi\");\n  }\n\n  function addDevice(\n    string memory _ip,\n    string memory _model,\n    uint _samplingRateMinute\n  ) public {\n    devicesCount ++;\n    Device memory device = devices[devicesCount];\n    device.deviceId = devicesCount;\n    device.deviceIp = _ip;\n    device.deviceModel = _model;\n    device.samplingRateMinute = _samplingRateMinute;\n    devices[devicesCount] = device;\n    emit DeviceAdded(device.deviceId, device.deviceIp, device.deviceModel);\n  }\n\n  function addAttributeToDeviceById(\n    uint _deviceId,\n    string memory _name,\n    int256 _minimunThreshold,\n    uint256 _minimunViolationCount,\n    DeviceDefaultAttribute.Criticality _minimumCriticality,\n    int256 _maximumThresold,\n    uint256 _maximumViolationCount,\n    DeviceDefaultAttribute.Criticality _maximumCriticality\n  ) public returns (uint256){\n    Device storage device = devices[_deviceId];\n    uint counter = device.attributeCount;\n    device.attributeCount = counter + 1;\n    DeviceDefaultAttribute.Attribute memory attribute =\n    DeviceDefaultAttribute.Attribute(\n      _name,\n      _minimunThreshold,\n      _minimunViolationCount,\n      _minimumCriticality,\n      _maximumThresold,\n      _maximumViolationCount,\n      _maximumCriticality\n    );\n    device.attributes[device.attributeCount] = attribute;\n    devices[_deviceId] = device;\n    return device.attributeCount;\n  }\n\n  function addMonitoringDataByDeviceId(\n    uint _deviceId,\n    string memory _data,\n    string memory _startRange,\n    string memory _endRange\n  ) public\n  returns (\n    string[] memory\n  ){\n    Device storage device = devices[_deviceId];\n    device.monitoringDataIpfsHashMap.push(_data);\n    device.monitoringDataStartTimeHashMap.push(_startRange);\n    device.monitoringDataEndTimeHashMap.push(_endRange);\n    return device.monitoringDataIpfsHashMap;\n  }\n\n  function getMonitoringDataByDeviceId(\n    uint _deviceId\n  ) public view\n  returns (\n    string[] memory\n  ){\n    Device storage device = devices[_deviceId];\n    return device.monitoringDataIpfsHashMap;\n  }\n\n  function getDeviceAttributes(uint _deviceId)\n  public\n  returns (\n    DeviceDefaultAttribute.Attribute[] memory\n  ){\n    Device storage device = devices[_deviceId];\n    uint size = device.attributeCount;\n    attrCount = size;\n    DeviceDefaultAttribute.Attribute[] memory attributes = new DeviceDefaultAttribute.Attribute[](size);\n    for (uint i = 1; i <= size; i++) {\n      attributes[i - 1] = device.attributes[i];\n    }\n    return attributes;\n  }\n}",
  "sourcePath": "/Users/shirin/Desktop/Thesis/Implementation/MSc-Thesis/Implementation/thesis-smartContract/contracts/DeviceProfiles.sol",
  "compiler": {
    "name": "solc",
    "version": "0.5.12+commit.7709ece9.Emscripten.clang"
  },
  "schemaVersion": "3.0.15",
  "updatedAt": "2019-11-06T23:59:21.761Z",
  "devdoc": {
    "methods": {}
  },
  "userdoc": {
    "methods": {}
  }
}