{
  "contractName": "Users",
  "abi": [
    {
      "constant": true,
      "inputs": [
        {
          "name": "",
          "type": "string"
        }
      ],
      "name": "usernamesToDeviceCounts",
      "outputs": [
        {
          "name": "",
          "type": "uint256"
        }
      ],
      "payable": false,
      "stateMutability": "view",
      "type": "function"
    },
    {
      "constant": true,
      "inputs": [],
      "name": "usersCount",
      "outputs": [
        {
          "name": "",
          "type": "uint256"
        }
      ],
      "payable": false,
      "stateMutability": "view",
      "type": "function"
    },
    {
      "constant": true,
      "inputs": [
        {
          "name": "",
          "type": "string"
        }
      ],
      "name": "usernamesToDeviceIds",
      "outputs": [
        {
          "name": "",
          "type": "string"
        }
      ],
      "payable": false,
      "stateMutability": "view",
      "type": "function"
    },
    {
      "inputs": [],
      "payable": false,
      "stateMutability": "nonpayable",
      "type": "constructor"
    },
    {
      "constant": false,
      "inputs": [
        {
          "name": "_deviceId",
          "type": "string"
        },
        {
          "name": "_username",
          "type": "string"
        }
      ],
      "name": "addDeviceToUsername",
      "outputs": [],
      "payable": false,
      "stateMutability": "nonpayable",
      "type": "function"
    }
  ],
  "bytecode": "0x608060405234801561001057600080fd5b506106f1806100206000396000f3fe608060405234801561001057600080fd5b506004361061004c5760003560e01c8063454ea438146100515780636ba13a8214610120578063c06383121461013e578063e78eb8d914610272575b600080fd5b61010a6004803603602081101561006757600080fd5b810190808035906020019064010000000081111561008457600080fd5b82018360208201111561009657600080fd5b803590602001918460018302840111640100000000831117156100b857600080fd5b91908080601f016020809104026020016040519081016040528093929190818152602001838380828437600081840152601f19601f8201169050808301925050505050505091929192905050506103c4565b6040518082815260200191505060405180910390f35b6101286103f2565b6040518082815260200191505060405180910390f35b6101f76004803603602081101561015457600080fd5b810190808035906020019064010000000081111561017157600080fd5b82018360208201111561018357600080fd5b803590602001918460018302840111640100000000831117156101a557600080fd5b91908080601f016020809104026020016040519081016040528093929190818152602001838380828437600081840152601f19601f8201169050808301925050505050505091929192905050506103f8565b6040518080602001828103825283818151815260200191508051906020019080838360005b8381101561023757808201518184015260208101905061021c565b50505050905090810190601f1680156102645780820380516001836020036101000a031916815260200191505b509250505060405180910390f35b6103c26004803603604081101561028857600080fd5b81019080803590602001906401000000008111156102a557600080fd5b8201836020820111156102b757600080fd5b803590602001918460018302840111640100000000831117156102d957600080fd5b91908080601f016020809104026020016040519081016040528093929190818152602001838380828437600081840152601f19601f8201169050808301925050505050505091929192908035906020019064010000000081111561033c57600080fd5b82018360208201111561034e57600080fd5b8035906020019184600183028401116401000000008311171561037057600080fd5b91908080601f016020809104026020016040519081016040528093929190818152602001838380828437600081840152601f19601f8201169050808301925050505050505091929192905050506104be565b005b6002818051602081018201805184825260208301602085012081835280955050505050506000915090505481565b60015481565b6000818051602081018201805184825260208301602085012081835280955050505050506000915090508054600181600116156101000203166002900480601f0160208091040260200160405190810160405280929190818152602001828054600181600116156101000203166002900480156104b65780601f1061048b576101008083540402835291602001916104b6565b820191906000526020600020905b81548152906001019060200180831161049957829003601f168201915b505050505081565b60006002826040518082805190602001908083835b602083106104f657805182526020820191506020810190506020830392506104d3565b6001836020036101000a0380198251168184511680821785525050505050509050019150509081526020016040518091039020549050600181016002836040518082805190602001908083835b602083106105665780518252602082019150602081019050602083039250610543565b6001836020036101000a038019825116818451168082178552505050505050905001915050908152602001604051809103902081905550826000836040518082805190602001908083835b602083106105d457805182526020820191506020810190506020830392506105b1565b6001836020036101000a0380198251168184511680821785525050505050509050019150509081526020016040518091039020908051906020019061061a929190610620565b50505050565b828054600181600116156101000203166002900490600052602060002090601f016020900481019282601f1061066157805160ff191683800117855561068f565b8280016001018555821561068f579182015b8281111561068e578251825591602001919060010190610673565b5b50905061069c91906106a0565b5090565b6106c291905b808211156106be5760008160009055506001016106a6565b5090565b9056fea165627a7a72305820ba597ca3784076a2bbcc66d14158fbc6977f8dc64dab76a2083c5374d6672d000029",
  "source": "pragma solidity ^0.5.0;\n\ncontract Users {\n  // Store devices\n  // Create mapping between users and devices\n\n  // Add device to mapping\n  mapping(string => string) public usernamesToDeviceIds;\n\n  // Store users count\n  uint public usersCount;\n\n  // Store device counts per user\n  mapping(string => uint) public usernamesToDeviceCounts;\n\n  // Get devices by user id\n\n  constructor() public {}\n\n  function addDeviceToUsername(string memory _deviceId, string memory _username) public {\n    uint prevDeviceCount = usernamesToDeviceCounts[_username];\n    usernamesToDeviceCounts[_username] = prevDeviceCount + 1;\n    usernamesToDeviceIds[_username] = _deviceId;\n  }\n}",
  "sourcePath": "/Users/shirin/Desktop/Thesis/Implementation/MSc-Thesis/thesis-front/contracts/Users.sol",
  "compiler": {
    "name": "solc",
    "version": "0.5.8+commit.23d335f2.Emscripten.clang"
  },
  "schemaVersion": "3.0.15",
  "updatedAt": "2019-09-12T17:15:29.681Z",
  "devdoc": {
    "methods": {}
  },
  "userdoc": {
    "methods": {}
  }
}