{
  "contractName": "DeviceProfiles",
  "abi": [
    {
      "inputs": [
        {
          "internalType": "address",
          "name": "_addy",
          "type": "address"
        }
      ],
      "payable": false,
      "stateMutability": "nonpayable",
      "type": "constructor"
    },
    {
      "constant": true,
      "inputs": [],
      "name": "attrCount",
      "outputs": [
        {
          "internalType": "uint256",
          "name": "",
          "type": "uint256"
        }
      ],
      "payable": false,
      "stateMutability": "view",
      "type": "function"
    },
    {
      "constant": true,
      "inputs": [],
      "name": "called_address",
      "outputs": [
        {
          "internalType": "contract DeviceDefaultAttribute",
          "name": "",
          "type": "address"
        }
      ],
      "payable": false,
      "stateMutability": "view",
      "type": "function"
    },
    {
      "constant": true,
      "inputs": [
        {
          "internalType": "uint256",
          "name": "",
          "type": "uint256"
        }
      ],
      "name": "devices",
      "outputs": [
        {
          "internalType": "uint256",
          "name": "deviceId",
          "type": "uint256"
        },
        {
          "internalType": "string",
          "name": "deviceIp",
          "type": "string"
        },
        {
          "internalType": "string",
          "name": "deviceModel",
          "type": "string"
        },
        {
          "internalType": "uint256",
          "name": "samplingRateMinute",
          "type": "uint256"
        },
        {
          "internalType": "string",
          "name": "softwareIpfsHash",
          "type": "string"
        },
        {
          "internalType": "uint256",
          "name": "attributeCount",
          "type": "uint256"
        }
      ],
      "payable": false,
      "stateMutability": "view",
      "type": "function"
    },
    {
      "constant": true,
      "inputs": [],
      "name": "devicesCount",
      "outputs": [
        {
          "internalType": "uint256",
          "name": "",
          "type": "uint256"
        }
      ],
      "payable": false,
      "stateMutability": "view",
      "type": "function"
    },
    {
      "constant": true,
      "inputs": [],
      "name": "callDeviceDefaultAttributeMethod",
      "outputs": [
        {
          "components": [
            {
              "internalType": "string",
              "name": "name",
              "type": "string"
            },
            {
              "internalType": "int256",
              "name": "minimunThreshold",
              "type": "int256"
            },
            {
              "internalType": "uint256",
              "name": "minimunViolationCount",
              "type": "uint256"
            },
            {
              "internalType": "enum DeviceDefaultAttribute.Criticality",
              "name": "minimumCriticality",
              "type": "uint8"
            },
            {
              "internalType": "int256",
              "name": "maximumThresold",
              "type": "int256"
            },
            {
              "internalType": "uint256",
              "name": "maximumViolationCount",
              "type": "uint256"
            },
            {
              "internalType": "enum DeviceDefaultAttribute.Criticality",
              "name": "maximumCriticality",
              "type": "uint8"
            }
          ],
          "internalType": "struct DeviceDefaultAttribute.Attribute[]",
          "name": "",
          "type": "tuple[]"
        }
      ],
      "payable": false,
      "stateMutability": "view",
      "type": "function"
    },
    {
      "constant": false,
      "inputs": [
        {
          "internalType": "string",
          "name": "_ip",
          "type": "string"
        },
        {
          "internalType": "string",
          "name": "_model",
          "type": "string"
        },
        {
          "internalType": "uint256",
          "name": "_samplingRateMinute",
          "type": "uint256"
        }
      ],
      "name": "addDevice",
      "outputs": [],
      "payable": false,
      "stateMutability": "nonpayable",
      "type": "function"
    },
    {
      "constant": false,
      "inputs": [
        {
          "internalType": "uint256",
          "name": "_deviceId",
          "type": "uint256"
        },
        {
          "internalType": "string",
          "name": "_name",
          "type": "string"
        },
        {
          "internalType": "int256",
          "name": "_minimunThreshold",
          "type": "int256"
        },
        {
          "internalType": "uint256",
          "name": "_minimunViolationCount",
          "type": "uint256"
        },
        {
          "internalType": "enum DeviceDefaultAttribute.Criticality",
          "name": "_minimumCriticality",
          "type": "uint8"
        },
        {
          "internalType": "int256",
          "name": "_maximumThresold",
          "type": "int256"
        },
        {
          "internalType": "uint256",
          "name": "_maximumViolationCount",
          "type": "uint256"
        },
        {
          "internalType": "enum DeviceDefaultAttribute.Criticality",
          "name": "_maximumCriticality",
          "type": "uint8"
        }
      ],
      "name": "addAttributeToDeviceById",
      "outputs": [
        {
          "internalType": "uint256",
          "name": "",
          "type": "uint256"
        }
      ],
      "payable": false,
      "stateMutability": "nonpayable",
      "type": "function"
    },
    {
      "constant": false,
      "inputs": [
        {
          "internalType": "uint256",
          "name": "_deviceId",
          "type": "uint256"
        }
      ],
      "name": "getDeviceAttributes",
      "outputs": [
        {
          "components": [
            {
              "internalType": "string",
              "name": "name",
              "type": "string"
            },
            {
              "internalType": "int256",
              "name": "minimunThreshold",
              "type": "int256"
            },
            {
              "internalType": "uint256",
              "name": "minimunViolationCount",
              "type": "uint256"
            },
            {
              "internalType": "enum DeviceDefaultAttribute.Criticality",
              "name": "minimumCriticality",
              "type": "uint8"
            },
            {
              "internalType": "int256",
              "name": "maximumThresold",
              "type": "int256"
            },
            {
              "internalType": "uint256",
              "name": "maximumViolationCount",
              "type": "uint256"
            },
            {
              "internalType": "enum DeviceDefaultAttribute.Criticality",
              "name": "maximumCriticality",
              "type": "uint8"
            }
          ],
          "internalType": "struct DeviceDefaultAttribute.Attribute[]",
          "name": "",
          "type": "tuple[]"
        }
      ],
      "payable": false,
      "stateMutability": "nonpayable",
      "type": "function"
    }
  ],
  "bytecode": "0x60806040523480156200001157600080fd5b50604051620020433803806200204383398181016040526200003791908101906200089c565b806000806101000a81548173ffffffffffffffffffffffffffffffffffffffff021916908373ffffffffffffffffffffffffffffffffffffffff160217905550620000f56040518060400160405280600781526020017f312e312e312e31000000000000000000000000000000000000000000000000008152506040518060400160405280600781526020017f6d6f64656c2031000000000000000000000000000000000000000000000000008152506001620001a860201b60201c565b6200014a60016040518060400160405280601081526020017f617474726962757465206e616d6520310000000000000000000000000000000081525060c86002600061019060026000620004b860201b60201c565b50620001a060016040518060400160405280601081526020017f617474726962757465206e616d6520320000000000000000000000000000000081525060c86002600061019060026000620004b860201b60201c565b505062000916565b600160008154809291906001019190505550620001c4620006bd565b6002600060015481526020019081526020016000206040518060c001604052908160008201548152602001600182018054600181600116156101000203166002900480601f0160208091040260200160405190810160405280929190818152602001828054600181600116156101000203166002900480156200028b5780601f106200025f576101008083540402835291602001916200028b565b820191906000526020600020905b8154815290600101906020018083116200026d57829003601f168201915b50505050508152602001600282018054600181600116156101000203166002900480601f016020809104026020016040519081016040528092919081815260200182805460018160011615610100020316600290048015620003315780601f10620003055761010080835404028352916020019162000331565b820191906000526020600020905b8154815290600101906020018083116200031357829003601f168201915b5050505050815260200160038201548152602001600482018054600181600116156101000203166002900480601f016020809104026020016040519081016040528092919081815260200182805460018160011615610100020316600290048015620003e15780601f10620003b557610100808354040283529160200191620003e1565b820191906000526020600020905b815481529060010190602001808311620003c357829003601f168201915b50505050508152602001600582015481525050905060015481600001818152505083816020018190525082816040018190525081816060018181525050806002600060015481526020019081526020016000206000820151816000015560208201518160010190805190602001906200045c929190620006f3565b5060408201518160020190805190602001906200047b929190620006f3565b50606082015181600301556080820151816004019080519060200190620004a4929190620006f3565b5060a0820151816005015590505050505050565b600080600260008b81526020019081526020016000209050600081600501549050600181018260050181905550620004ef6200077a565b6040518060e001604052808c81526020018b81526020018a81526020018960028111156200051957fe5b81526020018881526020018781526020018660028111156200053757fe5b81525090508083600601600085600501548152602001908152602001600020600082015181600001908051906020019062000574929190620006f3565b50602082015181600101556040820151816002015560608201518160030160006101000a81548160ff02191690836002811115620005ae57fe5b02179055506080820151816004015560a0820151816005015560c08201518160060160006101000a81548160ff02191690836002811115620005ec57fe5b021790555090505082600260008e815260200190815260200160002060008201548160000155600182018160010190805460018160011615610100020316600290046200063b929190620007cf565b506002820181600201908054600181600116156101000203166002900462000665929190620007cf565b50600382015481600301556004820181600401908054600181600116156101000203166002900462000699929190620007cf565b50600582015481600501559050508260050154935050505098975050505050505050565b6040518060c001604052806000815260200160608152602001606081526020016000815260200160608152602001600081525090565b828054600181600116156101000203166002900490600052602060002090601f016020900481019282601f106200073657805160ff191683800117855562000767565b8280016001018555821562000767579182015b828111156200076657825182559160200191906001019062000749565b5b5090506200077691906200085d565b5090565b6040518060e0016040528060608152602001600081526020016000815260200160006002811115620007a857fe5b8152602001600081526020016000815260200160006002811115620007c957fe5b81525090565b828054600181600116156101000203166002900490600052602060002090601f016020900481019282601f106200080a57805485556200084a565b828001600101855582156200084a57600052602060002091601f016020900482015b82811115620008495782548255916001019190600101906200082c565b5b5090506200085991906200085d565b5090565b6200088291905b808211156200087e57600081600090555060010162000864565b5090565b90565b6000815190506200089681620008fc565b92915050565b600060208284031215620008af57600080fd5b6000620008bf8482850162000885565b91505092915050565b6000620008d582620008dc565b9050919050565b600073ffffffffffffffffffffffffffffffffffffffff82169050919050565b6200090781620008c8565b81146200091357600080fd5b50565b61171d80620009266000396000f3fe608060405234801561001057600080fd5b50600436106100885760003560e01c8063a05edf541161005b578063a05edf541461012c578063ab40c6851461014a578063add49d041461017a578063c820f0191461019857610088565b806310ff8e311461008d578063195bc254146100c2578063363621a5146100f257806381700fd61461010e575b600080fd5b6100a760048036036100a291908101906110a9565b6101b6565b6040516100b996959493929190611436565b60405180910390f35b6100dc60048036036100d791908101906110d2565b6103ba565b6040516100e9919061141b565b60405180910390f35b61010c6004803603610107919081019061102a565b6105b1565b005b6101166108ad565b60405161012391906113be565b60405180910390f35b610134610961565b604051610141919061141b565b60405180910390f35b610164600480360361015f91908101906110a9565b610967565b60405161017191906113be565b60405180910390f35b610182610b54565b60405161018f919061141b565b60405180910390f35b6101a0610b5a565b6040516101ad91906113e0565b60405180910390f35b6002602052806000526040600020600091509050806000015490806001018054600181600116156101000203166002900480601f0160208091040260200160405190810160405280929190818152602001828054600181600116156101000203166002900480156102685780601f1061023d57610100808354040283529160200191610268565b820191906000526020600020905b81548152906001019060200180831161024b57829003601f168201915b505050505090806002018054600181600116156101000203166002900480601f0160208091040260200160405190810160405280929190818152602001828054600181600116156101000203166002900480156103065780601f106102db57610100808354040283529160200191610306565b820191906000526020600020905b8154815290600101906020018083116102e957829003601f168201915b505050505090806003015490806004018054600181600116156101000203166002900480601f0160208091040260200160405190810160405280929190818152602001828054600181600116156101000203166002900480156103aa5780601f1061037f576101008083540402835291602001916103aa565b820191906000526020600020905b81548152906001019060200180831161038d57829003601f168201915b5050505050908060050154905086565b600080600260008b815260200190815260200160002090506000816005015490506001810182600501819055506103ef610b7f565b6040518060e001604052808c81526020018b81526020018a815260200189600281111561041857fe5b815260200188815260200187815260200186600281111561043557fe5b815250905080836006016000856005015481526020019081526020016000206000820151816000019080519060200190610470929190610bd2565b50602082015181600101556040820151816002015560608201518160030160006101000a81548160ff021916908360028111156104a957fe5b02179055506080820151816004015560a0820151816005015560c08201518160060160006101000a81548160ff021916908360028111156104e657fe5b021790555090505082600260008e81526020019081526020016000206000820154816000015560018201816001019080546001816001161561010002031660029004610533929190610c52565b506002820181600201908054600181600116156101000203166002900461055b929190610c52565b50600382015481600301556004820181600401908054600181600116156101000203166002900461058d929190610c52565b50600582015481600501559050508260050154935050505098975050505050505050565b6001600081548092919060010191905055506105cb610cd9565b6002600060015481526020019081526020016000206040518060c001604052908160008201548152602001600182018054600181600116156101000203166002900480601f01602080910402602001604051908101604052809291908181526020018280546001816001161561010002031660029004801561068e5780601f106106635761010080835404028352916020019161068e565b820191906000526020600020905b81548152906001019060200180831161067157829003601f168201915b50505050508152602001600282018054600181600116156101000203166002900480601f0160208091040260200160405190810160405280929190818152602001828054600181600116156101000203166002900480156107305780601f1061070557610100808354040283529160200191610730565b820191906000526020600020905b81548152906001019060200180831161071357829003601f168201915b5050505050815260200160038201548152602001600482018054600181600116156101000203166002900480601f0160208091040260200160405190810160405280929190818152602001828054600181600116156101000203166002900480156107dc5780601f106107b1576101008083540402835291602001916107dc565b820191906000526020600020905b8154815290600101906020018083116107bf57829003601f168201915b5050505050815260200160058201548152505090506001548160000181815250508381602001819052508281604001819052508181606001818152505080600260006001548152602001908152602001600020600082015181600001556020820151816001019080519060200190610855929190610bd2565b506040820151816002019080519060200190610872929190610bd2565b50606082015181600301556080820151816004019080519060200190610899929190610bd2565b5060a0820151816005015590505050505050565b60606000809054906101000a900473ffffffffffffffffffffffffffffffffffffffff1673ffffffffffffffffffffffffffffffffffffffff1663d6d20eba6040518163ffffffff1660e01b8152600401610907906113fb565b60006040518083038186803b15801561091f57600080fd5b505afa158015610933573d6000803e3d6000fd5b505050506040513d6000823e3d601f19601f8201168201806040525061095c9190810190610fe9565b905090565b60015481565b60606000600260008481526020019081526020016000209050600081600501549050806003819055506060816040519080825280602002602001820160405280156109cc57816020015b6109b9610d0f565b8152602001906001900390816109b15790505b5090506000600190505b828111610b48578360060160008281526020019081526020016000206040518060e0016040529081600082018054600181600116156101000203166002900480601f016020809104026020016040519081016040528092919081815260200182805460018160011615610100020316600290048015610a965780601f10610a6b57610100808354040283529160200191610a96565b820191906000526020600020905b815481529060010190602001808311610a7957829003601f168201915b5050505050815260200160018201548152602001600282015481526020016003820160009054906101000a900460ff166002811115610ad157fe5b6002811115610adc57fe5b815260200160048201548152602001600582015481526020016006820160009054906101000a900460ff166002811115610b1257fe5b6002811115610b1d57fe5b81525050826001830381518110610b3057fe5b602002602001018190525080806001019150506109d6565b50809350505050919050565b60035481565b6000809054906101000a900473ffffffffffffffffffffffffffffffffffffffff1681565b6040518060e0016040528060608152602001600081526020016000815260200160006002811115610bac57fe5b8152602001600081526020016000815260200160006002811115610bcc57fe5b81525090565b828054600181600116156101000203166002900490600052602060002090601f016020900481019282601f10610c1357805160ff1916838001178555610c41565b82800160010185558215610c41579182015b82811115610c40578251825591602001919060010190610c25565b5b509050610c4e9190610d62565b5090565b828054600181600116156101000203166002900490600052602060002090601f016020900481019282601f10610c8b5780548555610cc8565b82800160010185558215610cc857600052602060002091601f016020900482015b82811115610cc7578254825591600101919060010190610cac565b5b509050610cd59190610d62565b5090565b6040518060c001604052806000815260200160608152602001606081526020016000815260200160608152602001600081525090565b6040518060e0016040528060608152602001600081526020016000815260200160006002811115610d3c57fe5b8152602001600081526020016000815260200160006002811115610d5c57fe5b81525090565b610d8491905b80821115610d80576000816000905550600101610d68565b5090565b90565b600082601f830112610d9857600080fd5b8151610dab610da6826114d9565b6114ac565b9150818183526020840193506020810190508360005b83811015610df15781518601610dd78882610ef7565b845260208401935060208301925050600181019050610dc1565b5050505092915050565b600081359050610e0a8161169c565b92915050565b600081519050610e1f8161169c565b92915050565b600081359050610e34816116ac565b92915050565b600081519050610e49816116ac565b92915050565b600082601f830112610e6057600080fd5b8151610e73610e6e82611501565b6114ac565b91508082526020830160208301858383011115610e8f57600080fd5b610e9a83828461164b565b50505092915050565b600082601f830112610eb457600080fd5b8135610ec7610ec28261152d565b6114ac565b91508082526020830160208301858383011115610ee357600080fd5b610eee83828461163c565b50505092915050565b600060e08284031215610f0957600080fd5b610f1360e06114ac565b9050600082015167ffffffffffffffff811115610f2f57600080fd5b610f3b84828501610e4f565b6000830152506020610f4f84828501610e3a565b6020830152506040610f6384828501610fd4565b6040830152506060610f7784828501610e10565b6060830152506080610f8b84828501610e3a565b60808301525060a0610f9f84828501610fd4565b60a08301525060c0610fb384828501610e10565b60c08301525092915050565b600081359050610fce816116c3565b92915050565b600081519050610fe3816116c3565b92915050565b600060208284031215610ffb57600080fd5b600082015167ffffffffffffffff81111561101557600080fd5b61102184828501610d87565b91505092915050565b60008060006060848603121561103f57600080fd5b600084013567ffffffffffffffff81111561105957600080fd5b61106586828701610ea3565b935050602084013567ffffffffffffffff81111561108257600080fd5b61108e86828701610ea3565b925050604061109f86828701610fbf565b9150509250925092565b6000602082840312156110bb57600080fd5b60006110c984828501610fbf565b91505092915050565b600080600080600080600080610100898b0312156110ef57600080fd5b60006110fd8b828c01610fbf565b985050602089013567ffffffffffffffff81111561111a57600080fd5b6111268b828c01610ea3565b97505060406111378b828c01610e25565b96505060606111488b828c01610fbf565b95505060806111598b828c01610dfb565b94505060a061116a8b828c01610e25565b93505060c061117b8b828c01610fbf565b92505060e061118c8b828c01610dfb565b9150509295985092959890939650565b60006111a88383611304565b905092915050565b60006111bb82611569565b6111c5818561158c565b9350836020820285016111d785611559565b8060005b8581101561121357848403895281516111f4858261119c565b94506111ff8361157f565b925060208a019950506001810190506111db565b50829750879550505050505092915050565b61122e81611606565b82525050565b61123d8161162a565b82525050565b61124c816115d2565b82525050565b600061125d82611574565b611267818561159d565b935061127781856020860161164b565b6112808161167e565b840191505092915050565b600061129682611574565b6112a081856115ae565b93506112b081856020860161164b565b6112b98161167e565b840191505092915050565b60006112d1600b836115ae565b91507f52617370626572727950690000000000000000000000000000000000000000006000830152602082019050919050565b600060e08301600083015184820360008601526113218282611252565b91505060208301516113366020860182611243565b50604083015161134960408601826113a0565b50606083015161135c6060860182611234565b50608083015161136f6080860182611243565b5060a083015161138260a08601826113a0565b5060c083015161139560c0860182611234565b508091505092915050565b6113a9816115fc565b82525050565b6113b8816115fc565b82525050565b600060208201905081810360008301526113d881846111b0565b905092915050565b60006020820190506113f56000830184611225565b92915050565b60006020820190508181036000830152611414816112c4565b9050919050565b600060208201905061143060008301846113af565b92915050565b600060c08201905061144b60008301896113af565b818103602083015261145d818861128b565b90508181036040830152611471818761128b565b905061148060608301866113af565b8181036080830152611492818561128b565b90506114a160a08301846113af565b979650505050505050565b6000604051905081810181811067ffffffffffffffff821117156114cf57600080fd5b8060405250919050565b600067ffffffffffffffff8211156114f057600080fd5b602082029050602081019050919050565b600067ffffffffffffffff82111561151857600080fd5b601f19601f8301169050602081019050919050565b600067ffffffffffffffff82111561154457600080fd5b601f19601f8301169050602081019050919050565b6000819050602082019050919050565b600081519050919050565b600081519050919050565b6000602082019050919050565b600082825260208201905092915050565b600082825260208201905092915050565b600082825260208201905092915050565b60008190506115cd8261168f565b919050565b6000819050919050565b600073ffffffffffffffffffffffffffffffffffffffff82169050919050565b6000819050919050565b600061161182611618565b9050919050565b6000611623826115dc565b9050919050565b6000611635826115bf565b9050919050565b82818337600083830152505050565b60005b8381101561166957808201518184015260208101905061164e565b83811115611678576000848401525b50505050565b6000601f19601f8301169050919050565b6003811061169957fe5b50565b600381106116a957600080fd5b50565b6116b5816115d2565b81146116c057600080fd5b50565b6116cc816115fc565b81146116d757600080fd5b5056fea365627a7a723158201ff416aaf48879f06494e5ac4a77cc0f61aeeb4db92b767c4a4683e4e77e4a816c6578706572696d656e74616cf564736f6c634300050c0040",
  "source": "pragma experimental ABIEncoderV2;\npragma solidity ^0.5.12;\n\ncontract DeviceDefaultAttribute{\n  enum Criticality {LOW, MEDIUM, HIGH}\n\n  struct Attribute {\n    string name;\n    int256 minimunThreshold;\n    uint256 minimunViolationCount;\n    Criticality minimumCriticality;\n    int256 maximumThresold;\n    uint256 maximumViolationCount;\n    Criticality maximumCriticality;\n  }\n\n  function getAllAttributeCount() public view returns (uint);\n\n  function addDefaultAttribute(\n    string memory _modelName,\n    string memory _attributeName,\n    int256 _minimumThresold, uint256 _minimumViolationCount, Criticality _minimumCriticality,\n    int256 _maximumThresold, uint256 _maximumViolationCount, Criticality _maximumCriticality\n  ) public;\n\n  function getDefaulltAttributeIndicesByModelName(string memory _modelName) public view returns (Attribute[] memory);\n}\n\ncontract DeviceProfiles {\n\n  DeviceDefaultAttribute public called_address;\n\n  struct Device {\n    // Store device info (id, ip, model)\n    uint deviceId;\n    string deviceIp;\n    string deviceModel;\n\n    // Interval time for sampling data in minutes\n    uint samplingRateMinute;\n\n    // Store ipfs hash code of device's model software\n    string softwareIpfsHash;\n\n    // Store attributes count\n    uint attributeCount;\n\n    // Store & fetch Attributes\n    mapping(uint => DeviceDefaultAttribute.Attribute) attributes;\n\n    // Get ipfs hash code of each attribute monitoring data (by attribute name)\n    mapping(string => string) attributeNameDataIpfsHashMap;\n  }\n\n  // Store devices count\n  uint public devicesCount;\n\n  // Store & fetch devices\n  mapping (uint => Device) public devices;\n\n  // Test\n  uint public attrCount;\n\n  constructor (address _addy) public {\n    called_address = DeviceDefaultAttribute(_addy);\n\n    // Remove these lines\n    addDevice(\"1.1.1.1\", \"model 1\", 1);\n    addAttributeToDeviceById(\n      1,\n      \"attribute name 1\",\n      200,\n      2,\n      DeviceDefaultAttribute.Criticality.LOW,\n      400,\n      2,\n      DeviceDefaultAttribute.Criticality.LOW\n    );\n    addAttributeToDeviceById(\n      1,\n      \"attribute name 2\",\n      200,\n      2,\n      DeviceDefaultAttribute.Criticality.LOW,\n      400,\n      2,\n      DeviceDefaultAttribute.Criticality.LOW\n    );\n  }\n\n  function callDeviceDefaultAttributeMethod() public view returns (DeviceDefaultAttribute.Attribute[] memory){\n    return called_address.getDefaulltAttributeIndicesByModelName(\"RaspberryPi\");\n  }\n\n  function addDevice(\n    string memory _ip,\n    string memory _model,\n    uint _samplingRateMinute\n  ) public {\n    devicesCount ++;\n    Device memory device = devices[devicesCount];\n    device.deviceId = devicesCount;\n    device.deviceIp = _ip;\n    device.deviceModel = _model;\n    device.samplingRateMinute = _samplingRateMinute;\n    devices[devicesCount] = device;\n  }\n\n  function addAttributeToDeviceById(\n    uint _deviceId,\n    string memory _name,\n    int256 _minimunThreshold,\n    uint256 _minimunViolationCount,\n    DeviceDefaultAttribute.Criticality _minimumCriticality,\n    int256 _maximumThresold,\n    uint256 _maximumViolationCount,\n    DeviceDefaultAttribute.Criticality _maximumCriticality\n  ) public returns (uint256){\n    Device storage device = devices[_deviceId];\n    uint counter = device.attributeCount;\n    device.attributeCount = counter + 1;\n    DeviceDefaultAttribute.Attribute memory attribute =\n    DeviceDefaultAttribute.Attribute(\n      _name,\n      _minimunThreshold,\n      _minimunViolationCount,\n      _minimumCriticality,\n      _maximumThresold,\n      _maximumViolationCount,\n      _maximumCriticality\n    );\n    device.attributes[device.attributeCount] = attribute;\n    devices[_deviceId] = device;\n    return device.attributeCount;\n  }\n\n  function getDeviceAttributes (uint _deviceId)\n  public\n  returns (\n    DeviceDefaultAttribute.Attribute[] memory\n  ){\n    Device storage device = devices[_deviceId];\n    uint size = device.attributeCount;\n    attrCount = size;\n    DeviceDefaultAttribute.Attribute[] memory attributes = new DeviceDefaultAttribute.Attribute[](size);\n    for (uint i = 1; i <= size; i++) {\n      attributes[i - 1] = device.attributes[i];\n    }\n    return attributes;\n  }\n}",
  "sourcePath": "/Users/shirin/Desktop/Thesis/Implementation/MSc-Thesis/Implementation/thesis-front/contracts/DeviceProfiles.sol",
  "compiler": {
    "name": "solc",
    "version": "0.5.12+commit.7709ece9.Emscripten.clang"
  },
  "schemaVersion": "3.0.15",
  "updatedAt": "2019-10-19T22:27:46.425Z",
  "devdoc": {
    "methods": {}
  },
  "userdoc": {
    "methods": {}
  }
}